{
	"smartcontracts/repl.sol": {
		"lottery1": {
			"abi": [
				{
					"inputs": [
						{
							"internalType": "uint256",
							"name": "",
							"type": "uint256"
						}
					],
					"name": "buyers",
					"outputs": [
						{
							"internalType": "address payable",
							"name": "",
							"type": "address"
						}
					],
					"stateMutability": "view",
					"type": "function"
				},
				{
					"inputs": [],
					"name": "getbalance",
					"outputs": [
						{
							"internalType": "uint256",
							"name": "",
							"type": "uint256"
						}
					],
					"stateMutability": "view",
					"type": "function"
				},
				{
					"inputs": [],
					"name": "manager",
					"outputs": [
						{
							"internalType": "address",
							"name": "",
							"type": "address"
						}
					],
					"stateMutability": "view",
					"type": "function"
				},
				{
					"inputs": [],
					"name": "random",
					"outputs": [
						{
							"internalType": "uint256",
							"name": "",
							"type": "uint256"
						}
					],
					"stateMutability": "view",
					"type": "function"
				},
				{
					"inputs": [],
					"name": "rematic",
					"outputs": [
						{
							"internalType": "uint256",
							"name": "",
							"type": "uint256"
						}
					],
					"stateMutability": "view",
					"type": "function"
				},
				{
					"inputs": [],
					"name": "selectwinner",
					"outputs": [],
					"stateMutability": "nonpayable",
					"type": "function"
				},
				{
					"inputs": [],
					"name": "totalticket",
					"outputs": [
						{
							"internalType": "uint256",
							"name": "",
							"type": "uint256"
						}
					],
					"stateMutability": "view",
					"type": "function"
				},
				{
					"stateMutability": "payable",
					"type": "receive"
				}
			],
			"devdoc": {
				"kind": "dev",
				"methods": {},
				"version": 1
			},
			"evm": {
				"assembly": "    /* \"smartcontracts/repl.sol\":61:944  contract lottery1{... */\n  mstore(0x40, 0x80)\n    /* \"smartcontracts/repl.sol\":221:228  100 wei */\n  0x64\n    /* \"smartcontracts/repl.sol\":210:228  uint price=100 wei */\n  0x04\n  sstore\n    /* \"smartcontracts/repl.sol\":61:944  contract lottery1{... */\n  callvalue\n  dup1\n  iszero\n  tag_1\n  jumpi\n  0x00\n  dup1\n  revert\ntag_1:\n  pop\n  dataSize(sub_0)\n  dup1\n  dataOffset(sub_0)\n  0x00\n  codecopy\n  0x00\n  return\nstop\n\nsub_0: assembly {\n        /* \"smartcontracts/repl.sol\":61:944  contract lottery1{... */\n      mstore(0x40, 0x80)\n      jumpi(tag_1, lt(calldatasize, 0x04))\n      shr(0xe0, calldataload(0x00))\n      dup1\n      0x4d9b3d5d\n      gt\n      tag_10\n      jumpi\n      dup1\n      0x4d9b3d5d\n      eq\n      tag_6\n      jumpi\n      dup1\n      0x5ec01e4d\n      eq\n      tag_7\n      jumpi\n      dup1\n      0xf06e40ba\n      eq\n      tag_8\n      jumpi\n      dup1\n      0xf2aa8218\n      eq\n      tag_9\n      jumpi\n      jump(tag_2)\n    tag_10:\n      dup1\n      0x1a964534\n      eq\n      tag_3\n      jumpi\n      dup1\n      0x331f7d9d\n      eq\n      tag_4\n      jumpi\n      dup1\n      0x481c6a75\n      eq\n      tag_5\n      jumpi\n      jump(tag_2)\n    tag_1:\n      jumpi(tag_2, calldatasize)\n        /* \"smartcontracts/repl.sol\":288:289  0 */\n      0x00\n        /* \"smartcontracts/repl.sol\":280:287  rematic */\n      sload(0x03)\n        /* \"smartcontracts/repl.sol\":280:289  rematic>0 */\n      gt\n        /* \"smartcontracts/repl.sol\":272:290  require(rematic>0) */\n      tag_13\n      jumpi\n      0x00\n      dup1\n      revert\n    tag_13:\n        /* \"smartcontracts/repl.sol\":318:323  price */\n      sload(0x04)\n        /* \"smartcontracts/repl.sol\":307:316  msg.value */\n      callvalue\n        /* \"smartcontracts/repl.sol\":307:323  msg.value==price */\n      eq\n        /* \"smartcontracts/repl.sol\":299:324  require(msg.value==price) */\n      tag_14\n      jumpi\n      0x00\n      dup1\n      revert\n    tag_14:\n        /* \"smartcontracts/repl.sol\":333:355  address payable player */\n      0x00\n        /* \"smartcontracts/repl.sol\":365:375  msg.sender */\n      caller\n        /* \"smartcontracts/repl.sol\":333:376  address payable player=payable (msg.sender) */\n      swap1\n      pop\n        /* \"smartcontracts/repl.sol\":385:391  buyers */\n      0x01\n        /* \"smartcontracts/repl.sol\":397:403  player */\n      dup2\n        /* \"smartcontracts/repl.sol\":385:404  buyers.push(player) */\n      swap1\n      dup1\n      0x01\n      dup2\n      sload\n      add\n      dup1\n      dup3\n      sstore\n      dup1\n      swap2\n      pop\n      pop\n      0x01\n      swap1\n      sub\n      swap1\n      0x00\n      mstore\n      keccak256(0x00, 0x20)\n      add\n      0x00\n      swap1\n      swap2\n      swap1\n      swap2\n      swap1\n      swap2\n      0x0100\n      exp\n      dup2\n      sload\n      dup2\n      0xffffffffffffffffffffffffffffffffffffffff\n      mul\n      not\n      and\n      swap1\n      dup4\n      0xffffffffffffffffffffffffffffffffffffffff\n      and\n      mul\n      or\n      swap1\n      sstore\n      pop\n        /* \"smartcontracts/repl.sol\":413:420  rematic */\n      0x03\n      0x00\n        /* \"smartcontracts/repl.sol\":413:422  rematic-- */\n      dup2\n      sload\n      dup1\n      swap3\n      swap2\n      swap1\n      tag_16\n      swap1\n      tag_17\n      jump\t// in\n    tag_16:\n      swap2\n      swap1\n      pop\n      sstore\n      stop\n        /* \"smartcontracts/repl.sol\":61:944  contract lottery1{... */\n    tag_2:\n      0x00\n      dup1\n      revert\n        /* \"smartcontracts/repl.sol\":183:203  uint  public rematic */\n    tag_3:\n      callvalue\n      dup1\n      iszero\n      tag_18\n      jumpi\n      0x00\n      dup1\n      revert\n    tag_18:\n      pop\n      tag_19\n      tag_20\n      jump\t// in\n    tag_19:\n      mload(0x40)\n      tag_21\n      swap2\n      swap1\n      tag_22\n      jump\t// in\n    tag_21:\n      mload(0x40)\n      dup1\n      swap2\n      sub\n      swap1\n      return\n        /* \"smartcontracts/repl.sol\":152:176  uint  public totalticket */\n    tag_4:\n      callvalue\n      dup1\n      iszero\n      tag_23\n      jumpi\n      0x00\n      dup1\n      revert\n    tag_23:\n      pop\n      tag_24\n      tag_25\n      jump\t// in\n    tag_24:\n      mload(0x40)\n      tag_26\n      swap2\n      swap1\n      tag_22\n      jump\t// in\n    tag_26:\n      mload(0x40)\n      dup1\n      swap2\n      sub\n      swap1\n      return\n        /* \"smartcontracts/repl.sol\":85:107  address public manager */\n    tag_5:\n      callvalue\n      dup1\n      iszero\n      tag_27\n      jumpi\n      0x00\n      dup1\n      revert\n    tag_27:\n      pop\n      tag_28\n      tag_29\n      jump\t// in\n    tag_28:\n      mload(0x40)\n      tag_30\n      swap2\n      swap1\n      tag_31\n      jump\t// in\n    tag_30:\n      mload(0x40)\n      dup1\n      swap2\n      sub\n      swap1\n      return\n        /* \"smartcontracts/repl.sol\":440:578  function getbalance() public view returns (uint){... */\n    tag_6:\n      callvalue\n      dup1\n      iszero\n      tag_32\n      jumpi\n      0x00\n      dup1\n      revert\n    tag_32:\n      pop\n      tag_33\n      tag_34\n      jump\t// in\n    tag_33:\n      mload(0x40)\n      tag_35\n      swap2\n      swap1\n      tag_22\n      jump\t// in\n    tag_35:\n      mload(0x40)\n      dup1\n      swap2\n      sub\n      swap1\n      return\n        /* \"smartcontracts/repl.sol\":586:735  function random() public view returns (uint){... */\n    tag_7:\n      callvalue\n      dup1\n      iszero\n      tag_36\n      jumpi\n      0x00\n      dup1\n      revert\n    tag_36:\n      pop\n      tag_37\n      tag_38\n      jump\t// in\n    tag_37:\n      mload(0x40)\n      tag_39\n      swap2\n      swap1\n      tag_22\n      jump\t// in\n    tag_39:\n      mload(0x40)\n      dup1\n      swap2\n      sub\n      swap1\n      return\n        /* \"smartcontracts/repl.sol\":743:939  function selectwinner() public {... */\n    tag_8:\n      callvalue\n      dup1\n      iszero\n      tag_40\n      jumpi\n      0x00\n      dup1\n      revert\n    tag_40:\n      pop\n      tag_41\n      tag_42\n      jump\t// in\n    tag_41:\n      stop\n        /* \"smartcontracts/repl.sol\":114:145  address payable []public buyers */\n    tag_9:\n      callvalue\n      dup1\n      iszero\n      tag_43\n      jumpi\n      0x00\n      dup1\n      revert\n    tag_43:\n      pop\n      tag_44\n      0x04\n      dup1\n      calldatasize\n      sub\n      dup2\n      add\n      swap1\n      tag_45\n      swap2\n      swap1\n      tag_46\n      jump\t// in\n    tag_45:\n      tag_47\n      jump\t// in\n    tag_44:\n      mload(0x40)\n      tag_48\n      swap2\n      swap1\n      tag_49\n      jump\t// in\n    tag_48:\n      mload(0x40)\n      dup1\n      swap2\n      sub\n      swap1\n      return\n        /* \"smartcontracts/repl.sol\":183:203  uint  public rematic */\n    tag_20:\n      sload(0x03)\n      dup2\n      jump\t// out\n        /* \"smartcontracts/repl.sol\":152:176  uint  public totalticket */\n    tag_25:\n      sload(0x02)\n      dup2\n      jump\t// out\n        /* \"smartcontracts/repl.sol\":85:107  address public manager */\n    tag_29:\n      0x00\n      dup1\n      sload\n      swap1\n      0x0100\n      exp\n      swap1\n      div\n      0xffffffffffffffffffffffffffffffffffffffff\n      and\n      dup2\n      jump\t// out\n        /* \"smartcontracts/repl.sol\":440:578  function getbalance() public view returns (uint){... */\n    tag_34:\n        /* \"smartcontracts/repl.sol\":483:487  uint */\n      0x00\n        /* \"smartcontracts/repl.sol\":520:527  manager */\n      dup1\n      0x00\n      swap1\n      sload\n      swap1\n      0x0100\n      exp\n      swap1\n      div\n      0xffffffffffffffffffffffffffffffffffffffff\n      and\n        /* \"smartcontracts/repl.sol\":508:527  msg.sender==manager */\n      0xffffffffffffffffffffffffffffffffffffffff\n      and\n        /* \"smartcontracts/repl.sol\":508:518  msg.sender */\n      caller\n        /* \"smartcontracts/repl.sol\":508:527  msg.sender==manager */\n      0xffffffffffffffffffffffffffffffffffffffff\n      and\n      eq\n        /* \"smartcontracts/repl.sol\":500:528  require(msg.sender==manager) */\n      tag_51\n      jumpi\n      0x00\n      dup1\n      revert\n    tag_51:\n        /* \"smartcontracts/repl.sol\":547:568  address(this).balance */\n      selfbalance\n        /* \"smartcontracts/repl.sol\":540:568  return address(this).balance */\n      swap1\n      pop\n        /* \"smartcontracts/repl.sol\":440:578  function getbalance() public view returns (uint){... */\n      swap1\n      jump\t// out\n        /* \"smartcontracts/repl.sol\":586:735  function random() public view returns (uint){... */\n    tag_38:\n        /* \"smartcontracts/repl.sol\":625:629  uint */\n      0x00\n        /* \"smartcontracts/repl.sol\":674:690  block.difficulty */\n      prevrandao\n        /* \"smartcontracts/repl.sol\":692:707  block.timestamp */\n      timestamp\n        /* \"smartcontracts/repl.sol\":709:715  buyers */\n      0x01\n        /* \"smartcontracts/repl.sol\":709:722  buyers.length */\n      dup1\n      sload\n      swap1\n      pop\n        /* \"smartcontracts/repl.sol\":657:723  abi.encodePacked(block.difficulty, block.timestamp, buyers.length) */\n      add(0x20, mload(0x40))\n      tag_53\n      swap4\n      swap3\n      swap2\n      swap1\n      tag_54\n      jump\t// in\n    tag_53:\n      mload(0x40)\n      0x20\n      dup2\n      dup4\n      sub\n      sub\n      dup2\n      mstore\n      swap1\n      0x40\n      mstore\n        /* \"smartcontracts/repl.sol\":647:724  keccak256(abi.encodePacked(block.difficulty, block.timestamp, buyers.length)) */\n      dup1\n      mload\n      swap1\n      0x20\n      add\n      keccak256\n        /* \"smartcontracts/repl.sol\":642:725  uint(keccak256(abi.encodePacked(block.difficulty, block.timestamp, buyers.length))) */\n      pop\n        /* \"smartcontracts/repl.sol\":586:735  function random() public view returns (uint){... */\n      swap1\n      jump\t// out\n        /* \"smartcontracts/repl.sol\":743:939  function selectwinner() public {... */\n    tag_42:\n        /* \"smartcontracts/repl.sol\":806:813  manager */\n      0x00\n      dup1\n      sload\n      swap1\n      0x0100\n      exp\n      swap1\n      div\n      0xffffffffffffffffffffffffffffffffffffffff\n      and\n        /* \"smartcontracts/repl.sol\":794:813  msg.sender==manager */\n      0xffffffffffffffffffffffffffffffffffffffff\n      and\n        /* \"smartcontracts/repl.sol\":794:804  msg.sender */\n      caller\n        /* \"smartcontracts/repl.sol\":794:813  msg.sender==manager */\n      0xffffffffffffffffffffffffffffffffffffffff\n      and\n      eq\n        /* \"smartcontracts/repl.sol\":786:814  require(msg.sender==manager) */\n      tag_56\n      jumpi\n      0x00\n      dup1\n      revert\n    tag_56:\n        /* \"smartcontracts/repl.sol\":849:850  3 */\n      0x03\n        /* \"smartcontracts/repl.sol\":834:840  buyers */\n      0x01\n        /* \"smartcontracts/repl.sol\":834:847  buyers.length */\n      dup1\n      sload\n      swap1\n      pop\n        /* \"smartcontracts/repl.sol\":834:850  buyers.length>=3 */\n      lt\n      iszero\n        /* \"smartcontracts/repl.sol\":826:851  require(buyers.length>=3) */\n      tag_57\n      jumpi\n      0x00\n      dup1\n      revert\n    tag_57:\n        /* \"smartcontracts/repl.sol\":863:869  uint r */\n      0x00\n        /* \"smartcontracts/repl.sol\":870:878  random() */\n      tag_58\n        /* \"smartcontracts/repl.sol\":870:876  random */\n      tag_38\n        /* \"smartcontracts/repl.sol\":870:878  random() */\n      jump\t// in\n    tag_58:\n        /* \"smartcontracts/repl.sol\":863:878  uint r=random() */\n      swap1\n      pop\n        /* \"smartcontracts/repl.sol\":890:900  uint index */\n      0x00\n        /* \"smartcontracts/repl.sol\":903:909  buyers */\n      0x01\n        /* \"smartcontracts/repl.sol\":903:916  buyers.length */\n      dup1\n      sload\n      swap1\n      pop\n        /* \"smartcontracts/repl.sol\":901:902  r */\n      dup3\n        /* \"smartcontracts/repl.sol\":901:916  r%buyers.length */\n      tag_59\n      swap2\n      swap1\n      tag_60\n      jump\t// in\n    tag_59:\n        /* \"smartcontracts/repl.sol\":890:916  uint index=r%buyers.length */\n      swap1\n      pop\n        /* \"smartcontracts/repl.sol\":774:939  {... */\n      pop\n      pop\n        /* \"smartcontracts/repl.sol\":743:939  function selectwinner() public {... */\n      jump\t// out\n        /* \"smartcontracts/repl.sol\":114:145  address payable []public buyers */\n    tag_47:\n      0x01\n      dup2\n      dup2\n      sload\n      dup2\n      lt\n      tag_61\n      jumpi\n      0x00\n      dup1\n      revert\n    tag_61:\n      swap1\n      0x00\n      mstore\n      keccak256(0x00, 0x20)\n      add\n      0x00\n      swap2\n      pop\n      sload\n      swap1\n      0x0100\n      exp\n      swap1\n      div\n      0xffffffffffffffffffffffffffffffffffffffff\n      and\n      dup2\n      jump\t// out\n        /* \"#utility.yul\":7:187   */\n    tag_63:\n        /* \"#utility.yul\":55:132   */\n      0x4e487b7100000000000000000000000000000000000000000000000000000000\n        /* \"#utility.yul\":52:53   */\n      0x00\n        /* \"#utility.yul\":45:133   */\n      mstore\n        /* \"#utility.yul\":152:156   */\n      0x11\n        /* \"#utility.yul\":149:150   */\n      0x04\n        /* \"#utility.yul\":142:157   */\n      mstore\n        /* \"#utility.yul\":176:180   */\n      0x24\n        /* \"#utility.yul\":173:174   */\n      0x00\n        /* \"#utility.yul\":166:181   */\n      revert\n        /* \"#utility.yul\":193:270   */\n    tag_64:\n        /* \"#utility.yul\":230:237   */\n      0x00\n        /* \"#utility.yul\":259:264   */\n      dup2\n        /* \"#utility.yul\":248:264   */\n      swap1\n      pop\n        /* \"#utility.yul\":193:270   */\n      swap2\n      swap1\n      pop\n      jump\t// out\n        /* \"#utility.yul\":276:447   */\n    tag_17:\n        /* \"#utility.yul\":315:318   */\n      0x00\n        /* \"#utility.yul\":338:362   */\n      tag_83\n        /* \"#utility.yul\":356:361   */\n      dup3\n        /* \"#utility.yul\":338:362   */\n      tag_64\n      jump\t// in\n    tag_83:\n        /* \"#utility.yul\":329:362   */\n      swap2\n      pop\n        /* \"#utility.yul\":384:388   */\n      0x00\n        /* \"#utility.yul\":377:382   */\n      dup3\n        /* \"#utility.yul\":374:389   */\n      sub\n        /* \"#utility.yul\":371:412   */\n      tag_84\n      jumpi\n        /* \"#utility.yul\":392:410   */\n      tag_85\n      tag_63\n      jump\t// in\n    tag_85:\n        /* \"#utility.yul\":371:412   */\n    tag_84:\n        /* \"#utility.yul\":439:440   */\n      0x01\n        /* \"#utility.yul\":432:437   */\n      dup3\n        /* \"#utility.yul\":428:441   */\n      sub\n        /* \"#utility.yul\":421:441   */\n      swap1\n      pop\n        /* \"#utility.yul\":276:447   */\n      swap2\n      swap1\n      pop\n      jump\t// out\n        /* \"#utility.yul\":453:571   */\n    tag_65:\n        /* \"#utility.yul\":540:564   */\n      tag_87\n        /* \"#utility.yul\":558:563   */\n      dup2\n        /* \"#utility.yul\":540:564   */\n      tag_64\n      jump\t// in\n    tag_87:\n        /* \"#utility.yul\":535:538   */\n      dup3\n        /* \"#utility.yul\":528:565   */\n      mstore\n        /* \"#utility.yul\":453:571   */\n      pop\n      pop\n      jump\t// out\n        /* \"#utility.yul\":577:799   */\n    tag_22:\n        /* \"#utility.yul\":670:674   */\n      0x00\n        /* \"#utility.yul\":708:710   */\n      0x20\n        /* \"#utility.yul\":697:706   */\n      dup3\n        /* \"#utility.yul\":693:711   */\n      add\n        /* \"#utility.yul\":685:711   */\n      swap1\n      pop\n        /* \"#utility.yul\":721:792   */\n      tag_89\n        /* \"#utility.yul\":789:790   */\n      0x00\n        /* \"#utility.yul\":778:787   */\n      dup4\n        /* \"#utility.yul\":774:791   */\n      add\n        /* \"#utility.yul\":765:771   */\n      dup5\n        /* \"#utility.yul\":721:792   */\n      tag_65\n      jump\t// in\n    tag_89:\n        /* \"#utility.yul\":577:799   */\n      swap3\n      swap2\n      pop\n      pop\n      jump\t// out\n        /* \"#utility.yul\":805:931   */\n    tag_66:\n        /* \"#utility.yul\":842:849   */\n      0x00\n        /* \"#utility.yul\":882:924   */\n      0xffffffffffffffffffffffffffffffffffffffff\n        /* \"#utility.yul\":875:880   */\n      dup3\n        /* \"#utility.yul\":871:925   */\n      and\n        /* \"#utility.yul\":860:925   */\n      swap1\n      pop\n        /* \"#utility.yul\":805:931   */\n      swap2\n      swap1\n      pop\n      jump\t// out\n        /* \"#utility.yul\":937:1033   */\n    tag_67:\n        /* \"#utility.yul\":974:981   */\n      0x00\n        /* \"#utility.yul\":1003:1027   */\n      tag_92\n        /* \"#utility.yul\":1021:1026   */\n      dup3\n        /* \"#utility.yul\":1003:1027   */\n      tag_66\n      jump\t// in\n    tag_92:\n        /* \"#utility.yul\":992:1027   */\n      swap1\n      pop\n        /* \"#utility.yul\":937:1033   */\n      swap2\n      swap1\n      pop\n      jump\t// out\n        /* \"#utility.yul\":1039:1157   */\n    tag_68:\n        /* \"#utility.yul\":1126:1150   */\n      tag_94\n        /* \"#utility.yul\":1144:1149   */\n      dup2\n        /* \"#utility.yul\":1126:1150   */\n      tag_67\n      jump\t// in\n    tag_94:\n        /* \"#utility.yul\":1121:1124   */\n      dup3\n        /* \"#utility.yul\":1114:1151   */\n      mstore\n        /* \"#utility.yul\":1039:1157   */\n      pop\n      pop\n      jump\t// out\n        /* \"#utility.yul\":1163:1385   */\n    tag_31:\n        /* \"#utility.yul\":1256:1260   */\n      0x00\n        /* \"#utility.yul\":1294:1296   */\n      0x20\n        /* \"#utility.yul\":1283:1292   */\n      dup3\n        /* \"#utility.yul\":1279:1297   */\n      add\n        /* \"#utility.yul\":1271:1297   */\n      swap1\n      pop\n        /* \"#utility.yul\":1307:1378   */\n      tag_96\n        /* \"#utility.yul\":1375:1376   */\n      0x00\n        /* \"#utility.yul\":1364:1373   */\n      dup4\n        /* \"#utility.yul\":1360:1377   */\n      add\n        /* \"#utility.yul\":1351:1357   */\n      dup5\n        /* \"#utility.yul\":1307:1378   */\n      tag_68\n      jump\t// in\n    tag_96:\n        /* \"#utility.yul\":1163:1385   */\n      swap3\n      swap2\n      pop\n      pop\n      jump\t// out\n        /* \"#utility.yul\":1472:1589   */\n    tag_70:\n        /* \"#utility.yul\":1581:1582   */\n      0x00\n        /* \"#utility.yul\":1578:1579   */\n      dup1\n        /* \"#utility.yul\":1571:1583   */\n      revert\n        /* \"#utility.yul\":1718:1840   */\n    tag_72:\n        /* \"#utility.yul\":1791:1815   */\n      tag_101\n        /* \"#utility.yul\":1809:1814   */\n      dup2\n        /* \"#utility.yul\":1791:1815   */\n      tag_64\n      jump\t// in\n    tag_101:\n        /* \"#utility.yul\":1784:1789   */\n      dup2\n        /* \"#utility.yul\":1781:1816   */\n      eq\n        /* \"#utility.yul\":1771:1834   */\n      tag_102\n      jumpi\n        /* \"#utility.yul\":1830:1831   */\n      0x00\n        /* \"#utility.yul\":1827:1828   */\n      dup1\n        /* \"#utility.yul\":1820:1832   */\n      revert\n        /* \"#utility.yul\":1771:1834   */\n    tag_102:\n        /* \"#utility.yul\":1718:1840   */\n      pop\n      jump\t// out\n        /* \"#utility.yul\":1846:1985   */\n    tag_73:\n        /* \"#utility.yul\":1892:1897   */\n      0x00\n        /* \"#utility.yul\":1930:1936   */\n      dup2\n        /* \"#utility.yul\":1917:1937   */\n      calldataload\n        /* \"#utility.yul\":1908:1937   */\n      swap1\n      pop\n        /* \"#utility.yul\":1946:1979   */\n      tag_104\n        /* \"#utility.yul\":1973:1978   */\n      dup2\n        /* \"#utility.yul\":1946:1979   */\n      tag_72\n      jump\t// in\n    tag_104:\n        /* \"#utility.yul\":1846:1985   */\n      swap3\n      swap2\n      pop\n      pop\n      jump\t// out\n        /* \"#utility.yul\":1991:2320   */\n    tag_46:\n        /* \"#utility.yul\":2050:2056   */\n      0x00\n        /* \"#utility.yul\":2099:2101   */\n      0x20\n        /* \"#utility.yul\":2087:2096   */\n      dup3\n        /* \"#utility.yul\":2078:2085   */\n      dup5\n        /* \"#utility.yul\":2074:2097   */\n      sub\n        /* \"#utility.yul\":2070:2102   */\n      slt\n        /* \"#utility.yul\":2067:2186   */\n      iszero\n      tag_106\n      jumpi\n        /* \"#utility.yul\":2105:2184   */\n      tag_107\n      tag_70\n      jump\t// in\n    tag_107:\n        /* \"#utility.yul\":2067:2186   */\n    tag_106:\n        /* \"#utility.yul\":2225:2226   */\n      0x00\n        /* \"#utility.yul\":2250:2303   */\n      tag_108\n        /* \"#utility.yul\":2295:2302   */\n      dup5\n        /* \"#utility.yul\":2286:2292   */\n      dup3\n        /* \"#utility.yul\":2275:2284   */\n      dup6\n        /* \"#utility.yul\":2271:2293   */\n      add\n        /* \"#utility.yul\":2250:2303   */\n      tag_73\n      jump\t// in\n    tag_108:\n        /* \"#utility.yul\":2240:2303   */\n      swap2\n      pop\n        /* \"#utility.yul\":2196:2313   */\n      pop\n        /* \"#utility.yul\":1991:2320   */\n      swap3\n      swap2\n      pop\n      pop\n      jump\t// out\n        /* \"#utility.yul\":2326:2430   */\n    tag_74:\n        /* \"#utility.yul\":2371:2378   */\n      0x00\n        /* \"#utility.yul\":2400:2424   */\n      tag_110\n        /* \"#utility.yul\":2418:2423   */\n      dup3\n        /* \"#utility.yul\":2400:2424   */\n      tag_66\n      jump\t// in\n    tag_110:\n        /* \"#utility.yul\":2389:2424   */\n      swap1\n      pop\n        /* \"#utility.yul\":2326:2430   */\n      swap2\n      swap1\n      pop\n      jump\t// out\n        /* \"#utility.yul\":2436:2578   */\n    tag_75:\n        /* \"#utility.yul\":2539:2571   */\n      tag_112\n        /* \"#utility.yul\":2565:2570   */\n      dup2\n        /* \"#utility.yul\":2539:2571   */\n      tag_74\n      jump\t// in\n    tag_112:\n        /* \"#utility.yul\":2534:2537   */\n      dup3\n        /* \"#utility.yul\":2527:2572   */\n      mstore\n        /* \"#utility.yul\":2436:2578   */\n      pop\n      pop\n      jump\t// out\n        /* \"#utility.yul\":2584:2838   */\n    tag_49:\n        /* \"#utility.yul\":2693:2697   */\n      0x00\n        /* \"#utility.yul\":2731:2733   */\n      0x20\n        /* \"#utility.yul\":2720:2729   */\n      dup3\n        /* \"#utility.yul\":2716:2734   */\n      add\n        /* \"#utility.yul\":2708:2734   */\n      swap1\n      pop\n        /* \"#utility.yul\":2744:2831   */\n      tag_114\n        /* \"#utility.yul\":2828:2829   */\n      0x00\n        /* \"#utility.yul\":2817:2826   */\n      dup4\n        /* \"#utility.yul\":2813:2830   */\n      add\n        /* \"#utility.yul\":2804:2810   */\n      dup5\n        /* \"#utility.yul\":2744:2831   */\n      tag_75\n      jump\t// in\n    tag_114:\n        /* \"#utility.yul\":2584:2838   */\n      swap3\n      swap2\n      pop\n      pop\n      jump\t// out\n        /* \"#utility.yul\":2844:2923   */\n    tag_76:\n        /* \"#utility.yul\":2883:2890   */\n      0x00\n        /* \"#utility.yul\":2912:2917   */\n      dup2\n        /* \"#utility.yul\":2901:2917   */\n      swap1\n      pop\n        /* \"#utility.yul\":2844:2923   */\n      swap2\n      swap1\n      pop\n      jump\t// out\n        /* \"#utility.yul\":2929:3086   */\n    tag_77:\n        /* \"#utility.yul\":3034:3079   */\n      tag_117\n        /* \"#utility.yul\":3054:3078   */\n      tag_118\n        /* \"#utility.yul\":3072:3077   */\n      dup3\n        /* \"#utility.yul\":3054:3078   */\n      tag_64\n      jump\t// in\n    tag_118:\n        /* \"#utility.yul\":3034:3079   */\n      tag_76\n      jump\t// in\n    tag_117:\n        /* \"#utility.yul\":3029:3032   */\n      dup3\n        /* \"#utility.yul\":3022:3080   */\n      mstore\n        /* \"#utility.yul\":2929:3086   */\n      pop\n      pop\n      jump\t// out\n        /* \"#utility.yul\":3092:3630   */\n    tag_54:\n        /* \"#utility.yul\":3260:3263   */\n      0x00\n        /* \"#utility.yul\":3275:3350   */\n      tag_120\n        /* \"#utility.yul\":3346:3349   */\n      dup3\n        /* \"#utility.yul\":3337:3343   */\n      dup7\n        /* \"#utility.yul\":3275:3350   */\n      tag_77\n      jump\t// in\n    tag_120:\n        /* \"#utility.yul\":3375:3377   */\n      0x20\n        /* \"#utility.yul\":3370:3373   */\n      dup3\n        /* \"#utility.yul\":3366:3378   */\n      add\n        /* \"#utility.yul\":3359:3378   */\n      swap2\n      pop\n        /* \"#utility.yul\":3388:3463   */\n      tag_121\n        /* \"#utility.yul\":3459:3462   */\n      dup3\n        /* \"#utility.yul\":3450:3456   */\n      dup6\n        /* \"#utility.yul\":3388:3463   */\n      tag_77\n      jump\t// in\n    tag_121:\n        /* \"#utility.yul\":3488:3490   */\n      0x20\n        /* \"#utility.yul\":3483:3486   */\n      dup3\n        /* \"#utility.yul\":3479:3491   */\n      add\n        /* \"#utility.yul\":3472:3491   */\n      swap2\n      pop\n        /* \"#utility.yul\":3501:3576   */\n      tag_122\n        /* \"#utility.yul\":3572:3575   */\n      dup3\n        /* \"#utility.yul\":3563:3569   */\n      dup5\n        /* \"#utility.yul\":3501:3576   */\n      tag_77\n      jump\t// in\n    tag_122:\n        /* \"#utility.yul\":3601:3603   */\n      0x20\n        /* \"#utility.yul\":3596:3599   */\n      dup3\n        /* \"#utility.yul\":3592:3604   */\n      add\n        /* \"#utility.yul\":3585:3604   */\n      swap2\n      pop\n        /* \"#utility.yul\":3621:3624   */\n      dup2\n        /* \"#utility.yul\":3614:3624   */\n      swap1\n      pop\n        /* \"#utility.yul\":3092:3630   */\n      swap5\n      swap4\n      pop\n      pop\n      pop\n      pop\n      jump\t// out\n        /* \"#utility.yul\":3636:3816   */\n    tag_78:\n        /* \"#utility.yul\":3684:3761   */\n      0x4e487b7100000000000000000000000000000000000000000000000000000000\n        /* \"#utility.yul\":3681:3682   */\n      0x00\n        /* \"#utility.yul\":3674:3762   */\n      mstore\n        /* \"#utility.yul\":3781:3785   */\n      0x12\n        /* \"#utility.yul\":3778:3779   */\n      0x04\n        /* \"#utility.yul\":3771:3786   */\n      mstore\n        /* \"#utility.yul\":3805:3809   */\n      0x24\n        /* \"#utility.yul\":3802:3803   */\n      0x00\n        /* \"#utility.yul\":3795:3810   */\n      revert\n        /* \"#utility.yul\":3822:3998   */\n    tag_60:\n        /* \"#utility.yul\":3854:3855   */\n      0x00\n        /* \"#utility.yul\":3871:3891   */\n      tag_125\n        /* \"#utility.yul\":3889:3890   */\n      dup3\n        /* \"#utility.yul\":3871:3891   */\n      tag_64\n      jump\t// in\n    tag_125:\n        /* \"#utility.yul\":3866:3891   */\n      swap2\n      pop\n        /* \"#utility.yul\":3905:3925   */\n      tag_126\n        /* \"#utility.yul\":3923:3924   */\n      dup4\n        /* \"#utility.yul\":3905:3925   */\n      tag_64\n      jump\t// in\n    tag_126:\n        /* \"#utility.yul\":3900:3925   */\n      swap3\n      pop\n        /* \"#utility.yul\":3944:3945   */\n      dup3\n        /* \"#utility.yul\":3934:3969   */\n      tag_127\n      jumpi\n        /* \"#utility.yul\":3949:3967   */\n      tag_128\n      tag_78\n      jump\t// in\n    tag_128:\n        /* \"#utility.yul\":3934:3969   */\n    tag_127:\n        /* \"#utility.yul\":3990:3991   */\n      dup3\n        /* \"#utility.yul\":3987:3988   */\n      dup3\n        /* \"#utility.yul\":3983:3992   */\n      mod\n        /* \"#utility.yul\":3978:3992   */\n      swap1\n      pop\n        /* \"#utility.yul\":3822:3998   */\n      swap3\n      swap2\n      pop\n      pop\n      jump\t// out\n\n    auxdata: 0xa2646970667358221220362ea634d60a13d50054ea7dd497ee550c8904562907bba4761353b159bfed8864736f6c63430008190033\n}\n",
				"bytecode": {
					"linkReferences": {},
					"object": "608060405260646004553480156013575f80fd5b5061061c806100215f395ff3fe608060405260043610610073575f3560e01c80634d9b3d5d1161004d5780634d9b3d5d146101905780635ec01e4d146101ba578063f06e40ba146101e4578063f2aa8218146101fa5761010e565b80631a96453414610112578063331f7d9d1461013c578063481c6a75146101665761010e565b3661010e575f60035411610085575f80fd5b6004543414610092575f80fd5b5f339050600181908060018154018082558091505060019003905f5260205f20015f9091909190916101000a81548173ffffffffffffffffffffffffffffffffffffffff021916908373ffffffffffffffffffffffffffffffffffffffff16021790555060035f815480929190610108906103f4565b91905055005b5f80fd5b34801561011d575f80fd5b50610126610236565b604051610133919061042a565b60405180910390f35b348015610147575f80fd5b5061015061023c565b60405161015d919061042a565b60405180910390f35b348015610171575f80fd5b5061017a610242565b6040516101879190610482565b60405180910390f35b34801561019b575f80fd5b506101a4610265565b6040516101b1919061042a565b60405180910390f35b3480156101c5575f80fd5b506101ce6102c3565b6040516101db919061042a565b60405180910390f35b3480156101ef575f80fd5b506101f86102f8565b005b348015610205575f80fd5b50610220600480360381019061021b91906104c9565b610383565b60405161022d9190610514565b60405180910390f35b60035481565b60025481565b5f8054906101000a900473ffffffffffffffffffffffffffffffffffffffff1681565b5f805f9054906101000a900473ffffffffffffffffffffffffffffffffffffffff1673ffffffffffffffffffffffffffffffffffffffff163373ffffffffffffffffffffffffffffffffffffffff16146102bd575f80fd5b47905090565b5f44426001805490506040516020016102de9392919061054d565b604051602081830303815290604052805190602001205090565b5f8054906101000a900473ffffffffffffffffffffffffffffffffffffffff1673ffffffffffffffffffffffffffffffffffffffff163373ffffffffffffffffffffffffffffffffffffffff161461034e575f80fd5b60036001805490501015610360575f80fd5b5f6103696102c3565b90505f6001805490508261037d91906105b6565b90505050565b60018181548110610392575f80fd5b905f5260205f20015f915054906101000a900473ffffffffffffffffffffffffffffffffffffffff1681565b7f4e487b71000000000000000000000000000000000000000000000000000000005f52601160045260245ffd5b5f819050919050565b5f6103fe826103eb565b91505f82036104105761040f6103be565b5b600182039050919050565b610424816103eb565b82525050565b5f60208201905061043d5f83018461041b565b92915050565b5f73ffffffffffffffffffffffffffffffffffffffff82169050919050565b5f61046c82610443565b9050919050565b61047c81610462565b82525050565b5f6020820190506104955f830184610473565b92915050565b5f80fd5b6104a8816103eb565b81146104b2575f80fd5b50565b5f813590506104c38161049f565b92915050565b5f602082840312156104de576104dd61049b565b5b5f6104eb848285016104b5565b91505092915050565b5f6104fe82610443565b9050919050565b61050e816104f4565b82525050565b5f6020820190506105275f830184610505565b92915050565b5f819050919050565b610547610542826103eb565b61052d565b82525050565b5f6105588286610536565b6020820191506105688285610536565b6020820191506105788284610536565b602082019150819050949350505050565b7f4e487b71000000000000000000000000000000000000000000000000000000005f52601260045260245ffd5b5f6105c0826103eb565b91506105cb836103eb565b9250826105db576105da610589565b5b82820690509291505056fea2646970667358221220362ea634d60a13d50054ea7dd497ee550c8904562907bba4761353b159bfed8864736f6c63430008190033",
					"opcodes": "PUSH1 0x80 PUSH1 0x40 MSTORE PUSH1 0x64 PUSH1 0x4 SSTORE CALLVALUE DUP1 ISZERO PUSH1 0x13 JUMPI PUSH0 DUP1 REVERT JUMPDEST POP PUSH2 0x61C DUP1 PUSH2 0x21 PUSH0 CODECOPY PUSH0 RETURN INVALID PUSH1 0x80 PUSH1 0x40 MSTORE PUSH1 0x4 CALLDATASIZE LT PUSH2 0x73 JUMPI PUSH0 CALLDATALOAD PUSH1 0xE0 SHR DUP1 PUSH4 0x4D9B3D5D GT PUSH2 0x4D JUMPI DUP1 PUSH4 0x4D9B3D5D EQ PUSH2 0x190 JUMPI DUP1 PUSH4 0x5EC01E4D EQ PUSH2 0x1BA JUMPI DUP1 PUSH4 0xF06E40BA EQ PUSH2 0x1E4 JUMPI DUP1 PUSH4 0xF2AA8218 EQ PUSH2 0x1FA JUMPI PUSH2 0x10E JUMP JUMPDEST DUP1 PUSH4 0x1A964534 EQ PUSH2 0x112 JUMPI DUP1 PUSH4 0x331F7D9D EQ PUSH2 0x13C JUMPI DUP1 PUSH4 0x481C6A75 EQ PUSH2 0x166 JUMPI PUSH2 0x10E JUMP JUMPDEST CALLDATASIZE PUSH2 0x10E JUMPI PUSH0 PUSH1 0x3 SLOAD GT PUSH2 0x85 JUMPI PUSH0 DUP1 REVERT JUMPDEST PUSH1 0x4 SLOAD CALLVALUE EQ PUSH2 0x92 JUMPI PUSH0 DUP1 REVERT JUMPDEST PUSH0 CALLER SWAP1 POP PUSH1 0x1 DUP2 SWAP1 DUP1 PUSH1 0x1 DUP2 SLOAD ADD DUP1 DUP3 SSTORE DUP1 SWAP2 POP POP PUSH1 0x1 SWAP1 SUB SWAP1 PUSH0 MSTORE PUSH1 0x20 PUSH0 KECCAK256 ADD PUSH0 SWAP1 SWAP2 SWAP1 SWAP2 SWAP1 SWAP2 PUSH2 0x100 EXP DUP2 SLOAD DUP2 PUSH20 0xFFFFFFFFFFFFFFFFFFFFFFFFFFFFFFFFFFFFFFFF MUL NOT AND SWAP1 DUP4 PUSH20 0xFFFFFFFFFFFFFFFFFFFFFFFFFFFFFFFFFFFFFFFF AND MUL OR SWAP1 SSTORE POP PUSH1 0x3 PUSH0 DUP2 SLOAD DUP1 SWAP3 SWAP2 SWAP1 PUSH2 0x108 SWAP1 PUSH2 0x3F4 JUMP JUMPDEST SWAP2 SWAP1 POP SSTORE STOP JUMPDEST PUSH0 DUP1 REVERT JUMPDEST CALLVALUE DUP1 ISZERO PUSH2 0x11D JUMPI PUSH0 DUP1 REVERT JUMPDEST POP PUSH2 0x126 PUSH2 0x236 JUMP JUMPDEST PUSH1 0x40 MLOAD PUSH2 0x133 SWAP2 SWAP1 PUSH2 0x42A JUMP JUMPDEST PUSH1 0x40 MLOAD DUP1 SWAP2 SUB SWAP1 RETURN JUMPDEST CALLVALUE DUP1 ISZERO PUSH2 0x147 JUMPI PUSH0 DUP1 REVERT JUMPDEST POP PUSH2 0x150 PUSH2 0x23C JUMP JUMPDEST PUSH1 0x40 MLOAD PUSH2 0x15D SWAP2 SWAP1 PUSH2 0x42A JUMP JUMPDEST PUSH1 0x40 MLOAD DUP1 SWAP2 SUB SWAP1 RETURN JUMPDEST CALLVALUE DUP1 ISZERO PUSH2 0x171 JUMPI PUSH0 DUP1 REVERT JUMPDEST POP PUSH2 0x17A PUSH2 0x242 JUMP JUMPDEST PUSH1 0x40 MLOAD PUSH2 0x187 SWAP2 SWAP1 PUSH2 0x482 JUMP JUMPDEST PUSH1 0x40 MLOAD DUP1 SWAP2 SUB SWAP1 RETURN JUMPDEST CALLVALUE DUP1 ISZERO PUSH2 0x19B JUMPI PUSH0 DUP1 REVERT JUMPDEST POP PUSH2 0x1A4 PUSH2 0x265 JUMP JUMPDEST PUSH1 0x40 MLOAD PUSH2 0x1B1 SWAP2 SWAP1 PUSH2 0x42A JUMP JUMPDEST PUSH1 0x40 MLOAD DUP1 SWAP2 SUB SWAP1 RETURN JUMPDEST CALLVALUE DUP1 ISZERO PUSH2 0x1C5 JUMPI PUSH0 DUP1 REVERT JUMPDEST POP PUSH2 0x1CE PUSH2 0x2C3 JUMP JUMPDEST PUSH1 0x40 MLOAD PUSH2 0x1DB SWAP2 SWAP1 PUSH2 0x42A JUMP JUMPDEST PUSH1 0x40 MLOAD DUP1 SWAP2 SUB SWAP1 RETURN JUMPDEST CALLVALUE DUP1 ISZERO PUSH2 0x1EF JUMPI PUSH0 DUP1 REVERT JUMPDEST POP PUSH2 0x1F8 PUSH2 0x2F8 JUMP JUMPDEST STOP JUMPDEST CALLVALUE DUP1 ISZERO PUSH2 0x205 JUMPI PUSH0 DUP1 REVERT JUMPDEST POP PUSH2 0x220 PUSH1 0x4 DUP1 CALLDATASIZE SUB DUP2 ADD SWAP1 PUSH2 0x21B SWAP2 SWAP1 PUSH2 0x4C9 JUMP JUMPDEST PUSH2 0x383 JUMP JUMPDEST PUSH1 0x40 MLOAD PUSH2 0x22D SWAP2 SWAP1 PUSH2 0x514 JUMP JUMPDEST PUSH1 0x40 MLOAD DUP1 SWAP2 SUB SWAP1 RETURN JUMPDEST PUSH1 0x3 SLOAD DUP2 JUMP JUMPDEST PUSH1 0x2 SLOAD DUP2 JUMP JUMPDEST PUSH0 DUP1 SLOAD SWAP1 PUSH2 0x100 EXP SWAP1 DIV PUSH20 0xFFFFFFFFFFFFFFFFFFFFFFFFFFFFFFFFFFFFFFFF AND DUP2 JUMP JUMPDEST PUSH0 DUP1 PUSH0 SWAP1 SLOAD SWAP1 PUSH2 0x100 EXP SWAP1 DIV PUSH20 0xFFFFFFFFFFFFFFFFFFFFFFFFFFFFFFFFFFFFFFFF AND PUSH20 0xFFFFFFFFFFFFFFFFFFFFFFFFFFFFFFFFFFFFFFFF AND CALLER PUSH20 0xFFFFFFFFFFFFFFFFFFFFFFFFFFFFFFFFFFFFFFFF AND EQ PUSH2 0x2BD JUMPI PUSH0 DUP1 REVERT JUMPDEST SELFBALANCE SWAP1 POP SWAP1 JUMP JUMPDEST PUSH0 PREVRANDAO TIMESTAMP PUSH1 0x1 DUP1 SLOAD SWAP1 POP PUSH1 0x40 MLOAD PUSH1 0x20 ADD PUSH2 0x2DE SWAP4 SWAP3 SWAP2 SWAP1 PUSH2 0x54D JUMP JUMPDEST PUSH1 0x40 MLOAD PUSH1 0x20 DUP2 DUP4 SUB SUB DUP2 MSTORE SWAP1 PUSH1 0x40 MSTORE DUP1 MLOAD SWAP1 PUSH1 0x20 ADD KECCAK256 POP SWAP1 JUMP JUMPDEST PUSH0 DUP1 SLOAD SWAP1 PUSH2 0x100 EXP SWAP1 DIV PUSH20 0xFFFFFFFFFFFFFFFFFFFFFFFFFFFFFFFFFFFFFFFF AND PUSH20 0xFFFFFFFFFFFFFFFFFFFFFFFFFFFFFFFFFFFFFFFF AND CALLER PUSH20 0xFFFFFFFFFFFFFFFFFFFFFFFFFFFFFFFFFFFFFFFF AND EQ PUSH2 0x34E JUMPI PUSH0 DUP1 REVERT JUMPDEST PUSH1 0x3 PUSH1 0x1 DUP1 SLOAD SWAP1 POP LT ISZERO PUSH2 0x360 JUMPI PUSH0 DUP1 REVERT JUMPDEST PUSH0 PUSH2 0x369 PUSH2 0x2C3 JUMP JUMPDEST SWAP1 POP PUSH0 PUSH1 0x1 DUP1 SLOAD SWAP1 POP DUP3 PUSH2 0x37D SWAP2 SWAP1 PUSH2 0x5B6 JUMP JUMPDEST SWAP1 POP POP POP JUMP JUMPDEST PUSH1 0x1 DUP2 DUP2 SLOAD DUP2 LT PUSH2 0x392 JUMPI PUSH0 DUP1 REVERT JUMPDEST SWAP1 PUSH0 MSTORE PUSH1 0x20 PUSH0 KECCAK256 ADD PUSH0 SWAP2 POP SLOAD SWAP1 PUSH2 0x100 EXP SWAP1 DIV PUSH20 0xFFFFFFFFFFFFFFFFFFFFFFFFFFFFFFFFFFFFFFFF AND DUP2 JUMP JUMPDEST PUSH32 0x4E487B7100000000000000000000000000000000000000000000000000000000 PUSH0 MSTORE PUSH1 0x11 PUSH1 0x4 MSTORE PUSH1 0x24 PUSH0 REVERT JUMPDEST PUSH0 DUP2 SWAP1 POP SWAP2 SWAP1 POP JUMP JUMPDEST PUSH0 PUSH2 0x3FE DUP3 PUSH2 0x3EB JUMP JUMPDEST SWAP2 POP PUSH0 DUP3 SUB PUSH2 0x410 JUMPI PUSH2 0x40F PUSH2 0x3BE JUMP JUMPDEST JUMPDEST PUSH1 0x1 DUP3 SUB SWAP1 POP SWAP2 SWAP1 POP JUMP JUMPDEST PUSH2 0x424 DUP2 PUSH2 0x3EB JUMP JUMPDEST DUP3 MSTORE POP POP JUMP JUMPDEST PUSH0 PUSH1 0x20 DUP3 ADD SWAP1 POP PUSH2 0x43D PUSH0 DUP4 ADD DUP5 PUSH2 0x41B JUMP JUMPDEST SWAP3 SWAP2 POP POP JUMP JUMPDEST PUSH0 PUSH20 0xFFFFFFFFFFFFFFFFFFFFFFFFFFFFFFFFFFFFFFFF DUP3 AND SWAP1 POP SWAP2 SWAP1 POP JUMP JUMPDEST PUSH0 PUSH2 0x46C DUP3 PUSH2 0x443 JUMP JUMPDEST SWAP1 POP SWAP2 SWAP1 POP JUMP JUMPDEST PUSH2 0x47C DUP2 PUSH2 0x462 JUMP JUMPDEST DUP3 MSTORE POP POP JUMP JUMPDEST PUSH0 PUSH1 0x20 DUP3 ADD SWAP1 POP PUSH2 0x495 PUSH0 DUP4 ADD DUP5 PUSH2 0x473 JUMP JUMPDEST SWAP3 SWAP2 POP POP JUMP JUMPDEST PUSH0 DUP1 REVERT JUMPDEST PUSH2 0x4A8 DUP2 PUSH2 0x3EB JUMP JUMPDEST DUP2 EQ PUSH2 0x4B2 JUMPI PUSH0 DUP1 REVERT JUMPDEST POP JUMP JUMPDEST PUSH0 DUP2 CALLDATALOAD SWAP1 POP PUSH2 0x4C3 DUP2 PUSH2 0x49F JUMP JUMPDEST SWAP3 SWAP2 POP POP JUMP JUMPDEST PUSH0 PUSH1 0x20 DUP3 DUP5 SUB SLT ISZERO PUSH2 0x4DE JUMPI PUSH2 0x4DD PUSH2 0x49B JUMP JUMPDEST JUMPDEST PUSH0 PUSH2 0x4EB DUP5 DUP3 DUP6 ADD PUSH2 0x4B5 JUMP JUMPDEST SWAP2 POP POP SWAP3 SWAP2 POP POP JUMP JUMPDEST PUSH0 PUSH2 0x4FE DUP3 PUSH2 0x443 JUMP JUMPDEST SWAP1 POP SWAP2 SWAP1 POP JUMP JUMPDEST PUSH2 0x50E DUP2 PUSH2 0x4F4 JUMP JUMPDEST DUP3 MSTORE POP POP JUMP JUMPDEST PUSH0 PUSH1 0x20 DUP3 ADD SWAP1 POP PUSH2 0x527 PUSH0 DUP4 ADD DUP5 PUSH2 0x505 JUMP JUMPDEST SWAP3 SWAP2 POP POP JUMP JUMPDEST PUSH0 DUP2 SWAP1 POP SWAP2 SWAP1 POP JUMP JUMPDEST PUSH2 0x547 PUSH2 0x542 DUP3 PUSH2 0x3EB JUMP JUMPDEST PUSH2 0x52D JUMP JUMPDEST DUP3 MSTORE POP POP JUMP JUMPDEST PUSH0 PUSH2 0x558 DUP3 DUP7 PUSH2 0x536 JUMP JUMPDEST PUSH1 0x20 DUP3 ADD SWAP2 POP PUSH2 0x568 DUP3 DUP6 PUSH2 0x536 JUMP JUMPDEST PUSH1 0x20 DUP3 ADD SWAP2 POP PUSH2 0x578 DUP3 DUP5 PUSH2 0x536 JUMP JUMPDEST PUSH1 0x20 DUP3 ADD SWAP2 POP DUP2 SWAP1 POP SWAP5 SWAP4 POP POP POP POP JUMP JUMPDEST PUSH32 0x4E487B7100000000000000000000000000000000000000000000000000000000 PUSH0 MSTORE PUSH1 0x12 PUSH1 0x4 MSTORE PUSH1 0x24 PUSH0 REVERT JUMPDEST PUSH0 PUSH2 0x5C0 DUP3 PUSH2 0x3EB JUMP JUMPDEST SWAP2 POP PUSH2 0x5CB DUP4 PUSH2 0x3EB JUMP JUMPDEST SWAP3 POP DUP3 PUSH2 0x5DB JUMPI PUSH2 0x5DA PUSH2 0x589 JUMP JUMPDEST JUMPDEST DUP3 DUP3 MOD SWAP1 POP SWAP3 SWAP2 POP POP JUMP INVALID LOG2 PUSH5 0x6970667358 0x22 SLT KECCAK256 CALLDATASIZE 0x2E 0xA6 CALLVALUE 0xD6 EXP SGT 0xD5 STOP SLOAD 0xEA PUSH30 0xD497EE550C8904562907BBA4761353B159BFED8864736F6C634300081900 CALLER "
				},
				"gasEstimates": {
					"creation": {
						"codeDepositCost": "312800",
						"executionCost": "22453",
						"totalCost": "335253"
					},
					"external": {
						"buyers(uint256)": "5010",
						"getbalance()": "2503",
						"manager()": "2550",
						"random()": "infinite",
						"rematic()": "2426",
						"selectwinner()": "infinite",
						"totalticket()": "2448"
					}
				},
				"methodIdentifiers": {
					"buyers(uint256)": "f2aa8218",
					"getbalance()": "4d9b3d5d",
					"manager()": "481c6a75",
					"random()": "5ec01e4d",
					"rematic()": "1a964534",
					"selectwinner()": "f06e40ba",
					"totalticket()": "331f7d9d"
				}
			},
			"storageLayout": {
				"storage": [
					{
						"astId": 3,
						"contract": "smartcontracts/repl.sol:lottery1",
						"label": "manager",
						"offset": 0,
						"slot": "0",
						"type": "t_address"
					},
					{
						"astId": 6,
						"contract": "smartcontracts/repl.sol:lottery1",
						"label": "buyers",
						"offset": 0,
						"slot": "1",
						"type": "t_array(t_address_payable)dyn_storage"
					},
					{
						"astId": 8,
						"contract": "smartcontracts/repl.sol:lottery1",
						"label": "totalticket",
						"offset": 0,
						"slot": "2",
						"type": "t_uint256"
					},
					{
						"astId": 10,
						"contract": "smartcontracts/repl.sol:lottery1",
						"label": "rematic",
						"offset": 0,
						"slot": "3",
						"type": "t_uint256"
					},
					{
						"astId": 13,
						"contract": "smartcontracts/repl.sol:lottery1",
						"label": "price",
						"offset": 0,
						"slot": "4",
						"type": "t_uint256"
					}
				],
				"types": {
					"t_address": {
						"encoding": "inplace",
						"label": "address",
						"numberOfBytes": "20"
					},
					"t_address_payable": {
						"encoding": "inplace",
						"label": "address payable",
						"numberOfBytes": "20"
					},
					"t_array(t_address_payable)dyn_storage": {
						"base": "t_address_payable",
						"encoding": "dynamic_array",
						"label": "address payable[]",
						"numberOfBytes": "32"
					},
					"t_uint256": {
						"encoding": "inplace",
						"label": "uint256",
						"numberOfBytes": "32"
					}
				}
			},
			"userdoc": {
				"kind": "user",
				"methods": {},
				"version": 1
			}
		}
	}
}