{
	"firstproject/eventmanagement.sol": {
		"events": {
			"abi": [
				{
					"inputs": [
						{
							"internalType": "uint256",
							"name": "id",
							"type": "uint256"
						},
						{
							"internalType": "uint256",
							"name": "quantity",
							"type": "uint256"
						}
					],
					"name": "buyticket",
					"outputs": [],
					"stateMutability": "payable",
					"type": "function"
				},
				{
					"inputs": [
						{
							"internalType": "string",
							"name": "name",
							"type": "string"
						},
						{
							"internalType": "uint256",
							"name": "price",
							"type": "uint256"
						},
						{
							"internalType": "uint256",
							"name": "date",
							"type": "uint256"
						},
						{
							"internalType": "uint256",
							"name": "totalticket",
							"type": "uint256"
						}
					],
					"name": "createevent",
					"outputs": [],
					"stateMutability": "nonpayable",
					"type": "function"
				},
				{
					"inputs": [
						{
							"internalType": "uint256",
							"name": "",
							"type": "uint256"
						}
					],
					"name": "devents",
					"outputs": [
						{
							"internalType": "address",
							"name": "organiser",
							"type": "address"
						},
						{
							"internalType": "string",
							"name": "name",
							"type": "string"
						},
						{
							"internalType": "uint256",
							"name": "date",
							"type": "uint256"
						},
						{
							"internalType": "uint256",
							"name": "price",
							"type": "uint256"
						},
						{
							"internalType": "uint256",
							"name": "totalticket",
							"type": "uint256"
						},
						{
							"internalType": "uint256",
							"name": "remainingticket",
							"type": "uint256"
						}
					],
					"stateMutability": "view",
					"type": "function"
				},
				{
					"inputs": [],
					"name": "nextid",
					"outputs": [
						{
							"internalType": "uint256",
							"name": "",
							"type": "uint256"
						}
					],
					"stateMutability": "view",
					"type": "function"
				},
				{
					"inputs": [
						{
							"internalType": "address",
							"name": "",
							"type": "address"
						},
						{
							"internalType": "uint256",
							"name": "",
							"type": "uint256"
						}
					],
					"name": "tickets",
					"outputs": [
						{
							"internalType": "uint256",
							"name": "",
							"type": "uint256"
						}
					],
					"stateMutability": "view",
					"type": "function"
				},
				{
					"inputs": [
						{
							"internalType": "uint256",
							"name": "id",
							"type": "uint256"
						},
						{
							"internalType": "uint256",
							"name": "quantity",
							"type": "uint256"
						},
						{
							"internalType": "address",
							"name": "to",
							"type": "address"
						}
					],
					"name": "transferticket",
					"outputs": [],
					"stateMutability": "nonpayable",
					"type": "function"
				}
			],
			"devdoc": {
				"kind": "dev",
				"methods": {},
				"version": 1
			},
			"evm": {
				"assembly": "    /* \"firstproject/eventmanagement.sol\":62:1469  contract events{... */\n  mstore(0x40, 0x80)\n  callvalue\n  dup1\n  iszero\n  tag_1\n  jumpi\n  0x00\n  dup1\n  revert\ntag_1:\n  pop\n  dataSize(sub_0)\n  dup1\n  dataOffset(sub_0)\n  0x00\n  codecopy\n  0x00\n  return\nstop\n\nsub_0: assembly {\n        /* \"firstproject/eventmanagement.sol\":62:1469  contract events{... */\n      mstore(0x40, 0x80)\n      jumpi(tag_1, lt(calldatasize, 0x04))\n      shr(0xe0, calldataload(0x00))\n      dup1\n      0x3a0d3ab7\n      eq\n      tag_2\n      jumpi\n      dup1\n      0x5c29d40d\n      eq\n      tag_3\n      jumpi\n      dup1\n      0x5cf47e12\n      eq\n      tag_4\n      jumpi\n      dup1\n      0x7a5a2462\n      eq\n      tag_5\n      jumpi\n      dup1\n      0xd9e20b7c\n      eq\n      tag_6\n      jumpi\n      dup1\n      0xdae7a13c\n      eq\n      tag_7\n      jumpi\n    tag_1:\n      0x00\n      dup1\n      revert\n        /* \"firstproject/eventmanagement.sol\":397:695  function createevent(string memory name,uint price,uint date,uint totalticket) external {... */\n    tag_2:\n      callvalue\n      dup1\n      iszero\n      tag_8\n      jumpi\n      0x00\n      dup1\n      revert\n    tag_8:\n      pop\n      tag_9\n      0x04\n      dup1\n      calldatasize\n      sub\n      dup2\n      add\n      swap1\n      tag_10\n      swap2\n      swap1\n      tag_11\n      jump\t// in\n    tag_10:\n      tag_12\n      jump\t// in\n    tag_9:\n      stop\n        /* \"firstproject/eventmanagement.sol\":370:388  uint public nextid */\n    tag_3:\n      callvalue\n      dup1\n      iszero\n      tag_13\n      jumpi\n      0x00\n      dup1\n      revert\n    tag_13:\n      pop\n      tag_14\n      tag_15\n      jump\t// in\n    tag_14:\n      mload(0x40)\n      tag_16\n      swap2\n      swap1\n      tag_17\n      jump\t// in\n    tag_16:\n      mload(0x40)\n      dup1\n      swap2\n      sub\n      swap1\n      return\n        /* \"firstproject/eventmanagement.sol\":266:302  mapping(uint=>devent) public devents */\n    tag_4:\n      callvalue\n      dup1\n      iszero\n      tag_18\n      jumpi\n      0x00\n      dup1\n      revert\n    tag_18:\n      pop\n      tag_19\n      0x04\n      dup1\n      calldatasize\n      sub\n      dup2\n      add\n      swap1\n      tag_20\n      swap2\n      swap1\n      tag_21\n      jump\t// in\n    tag_20:\n      tag_22\n      jump\t// in\n    tag_19:\n      mload(0x40)\n      tag_23\n      swap7\n      swap6\n      swap5\n      swap4\n      swap3\n      swap2\n      swap1\n      tag_24\n      jump\t// in\n    tag_23:\n      mload(0x40)\n      dup1\n      swap2\n      sub\n      swap1\n      return\n        /* \"firstproject/eventmanagement.sol\":1108:1460  function transferticket(uint id,uint quantity,address to) external{... */\n    tag_5:\n      callvalue\n      dup1\n      iszero\n      tag_25\n      jumpi\n      0x00\n      dup1\n      revert\n    tag_25:\n      pop\n      tag_26\n      0x04\n      dup1\n      calldatasize\n      sub\n      dup2\n      add\n      swap1\n      tag_27\n      swap2\n      swap1\n      tag_28\n      jump\t// in\n    tag_27:\n      tag_29\n      jump\t// in\n    tag_26:\n      stop\n        /* \"firstproject/eventmanagement.sol\":701:1102  function buyticket(uint id,uint quantity) payable external {... */\n    tag_6:\n      tag_30\n      0x04\n      dup1\n      calldatasize\n      sub\n      dup2\n      add\n      swap1\n      tag_31\n      swap2\n      swap1\n      tag_32\n      jump\t// in\n    tag_31:\n      tag_33\n      jump\t// in\n    tag_30:\n      stop\n        /* \"firstproject/eventmanagement.sol\":310:363  mapping(address=>mapping (uint=>uint)) public tickets */\n    tag_7:\n      callvalue\n      dup1\n      iszero\n      tag_34\n      jumpi\n      0x00\n      dup1\n      revert\n    tag_34:\n      pop\n      tag_35\n      0x04\n      dup1\n      calldatasize\n      sub\n      dup2\n      add\n      swap1\n      tag_36\n      swap2\n      swap1\n      tag_37\n      jump\t// in\n    tag_36:\n      tag_38\n      jump\t// in\n    tag_35:\n      mload(0x40)\n      tag_39\n      swap2\n      swap1\n      tag_17\n      jump\t// in\n    tag_39:\n      mload(0x40)\n      dup1\n      swap2\n      sub\n      swap1\n      return\n        /* \"firstproject/eventmanagement.sol\":397:695  function createevent(string memory name,uint price,uint date,uint totalticket) external {... */\n    tag_12:\n        /* \"firstproject/eventmanagement.sol\":509:524  block.timestamp */\n      timestamp\n        /* \"firstproject/eventmanagement.sol\":504:508  date */\n      dup3\n        /* \"firstproject/eventmanagement.sol\":504:524  date>block.timestamp */\n      gt\n        /* \"firstproject/eventmanagement.sol\":496:544  require(date>block.timestamp,\"event is expired\") */\n      tag_41\n      jumpi\n      mload(0x40)\n      0x08c379a000000000000000000000000000000000000000000000000000000000\n      dup2\n      mstore\n      0x04\n      add\n      tag_42\n      swap1\n      tag_43\n      jump\t// in\n    tag_42:\n      mload(0x40)\n      dup1\n      swap2\n      sub\n      swap1\n      revert\n    tag_41:\n        /* \"firstproject/eventmanagement.sol\":575:576  0 */\n      0x00\n        /* \"firstproject/eventmanagement.sol\":563:574  totalticket */\n      dup2\n        /* \"firstproject/eventmanagement.sol\":563:576  totalticket>0 */\n      gt\n        /* \"firstproject/eventmanagement.sol\":555:577  require(totalticket>0) */\n      tag_44\n      jumpi\n      0x00\n      dup1\n      revert\n    tag_44:\n        /* \"firstproject/eventmanagement.sol\":604:662  devent(msg.sender,name,date,price,totalticket,totalticket) */\n      mload(0x40)\n      dup1\n      0xc0\n      add\n      0x40\n      mstore\n      dup1\n        /* \"firstproject/eventmanagement.sol\":611:621  msg.sender */\n      caller\n        /* \"firstproject/eventmanagement.sol\":604:662  devent(msg.sender,name,date,price,totalticket,totalticket) */\n      0xffffffffffffffffffffffffffffffffffffffff\n      and\n      dup2\n      mstore\n      0x20\n      add\n        /* \"firstproject/eventmanagement.sol\":622:626  name */\n      dup6\n        /* \"firstproject/eventmanagement.sol\":604:662  devent(msg.sender,name,date,price,totalticket,totalticket) */\n      dup2\n      mstore\n      0x20\n      add\n        /* \"firstproject/eventmanagement.sol\":627:631  date */\n      dup4\n        /* \"firstproject/eventmanagement.sol\":604:662  devent(msg.sender,name,date,price,totalticket,totalticket) */\n      dup2\n      mstore\n      0x20\n      add\n        /* \"firstproject/eventmanagement.sol\":632:637  price */\n      dup5\n        /* \"firstproject/eventmanagement.sol\":604:662  devent(msg.sender,name,date,price,totalticket,totalticket) */\n      dup2\n      mstore\n      0x20\n      add\n        /* \"firstproject/eventmanagement.sol\":638:649  totalticket */\n      dup3\n        /* \"firstproject/eventmanagement.sol\":604:662  devent(msg.sender,name,date,price,totalticket,totalticket) */\n      dup2\n      mstore\n      0x20\n      add\n        /* \"firstproject/eventmanagement.sol\":650:661  totalticket */\n      dup3\n        /* \"firstproject/eventmanagement.sol\":604:662  devent(msg.sender,name,date,price,totalticket,totalticket) */\n      dup2\n      mstore\n      pop\n        /* \"firstproject/eventmanagement.sol\":588:595  devents */\n      0x00\n        /* \"firstproject/eventmanagement.sol\":588:603  devents[nextid] */\n      dup1\n        /* \"firstproject/eventmanagement.sol\":596:602  nextid */\n      sload(0x02)\n        /* \"firstproject/eventmanagement.sol\":588:603  devents[nextid] */\n      dup2\n      mstore\n      0x20\n      add\n      swap1\n      dup2\n      mstore\n      0x20\n      add\n      0x00\n      keccak256\n        /* \"firstproject/eventmanagement.sol\":588:662  devents[nextid]=devent(msg.sender,name,date,price,totalticket,totalticket) */\n      0x00\n      dup3\n      add\n      mload\n      dup2\n      0x00\n      add\n      exp(0x0100, 0x00)\n      dup2\n      sload\n      dup2\n      0xffffffffffffffffffffffffffffffffffffffff\n      mul\n      not\n      and\n      swap1\n      dup4\n      0xffffffffffffffffffffffffffffffffffffffff\n      and\n      mul\n      or\n      swap1\n      sstore\n      pop\n      0x20\n      dup3\n      add\n      mload\n      dup2\n      0x01\n      add\n      swap1\n      dup2\n      tag_45\n      swap2\n      swap1\n      tag_46\n      jump\t// in\n    tag_45:\n      pop\n      0x40\n      dup3\n      add\n      mload\n      dup2\n      0x02\n      add\n      sstore\n      0x60\n      dup3\n      add\n      mload\n      dup2\n      0x03\n      add\n      sstore\n      0x80\n      dup3\n      add\n      mload\n      dup2\n      0x04\n      add\n      sstore\n      0xa0\n      dup3\n      add\n      mload\n      dup2\n      0x05\n      add\n      sstore\n      swap1\n      pop\n      pop\n        /* \"firstproject/eventmanagement.sol\":673:679  nextid */\n      0x02\n      0x00\n        /* \"firstproject/eventmanagement.sol\":673:681  nextid++ */\n      dup2\n      sload\n      dup1\n      swap3\n      swap2\n      swap1\n      tag_47\n      swap1\n      tag_48\n      jump\t// in\n    tag_47:\n      swap2\n      swap1\n      pop\n      sstore\n      pop\n        /* \"firstproject/eventmanagement.sol\":397:695  function createevent(string memory name,uint price,uint date,uint totalticket) external {... */\n      pop\n      pop\n      pop\n      pop\n      jump\t// out\n        /* \"firstproject/eventmanagement.sol\":370:388  uint public nextid */\n    tag_15:\n      sload(0x02)\n      dup2\n      jump\t// out\n        /* \"firstproject/eventmanagement.sol\":266:302  mapping(uint=>devent) public devents */\n    tag_22:\n      mstore(0x20, 0x00)\n      dup1\n      0x00\n      mstore\n      keccak256(0x00, 0x40)\n      0x00\n      swap2\n      pop\n      swap1\n      pop\n      dup1\n      0x00\n      add\n      0x00\n      swap1\n      sload\n      swap1\n      0x0100\n      exp\n      swap1\n      div\n      0xffffffffffffffffffffffffffffffffffffffff\n      and\n      swap1\n      dup1\n      0x01\n      add\n      dup1\n      sload\n      tag_49\n      swap1\n      tag_50\n      jump\t// in\n    tag_49:\n      dup1\n      0x1f\n      add\n      0x20\n      dup1\n      swap2\n      div\n      mul\n      0x20\n      add\n      mload(0x40)\n      swap1\n      dup2\n      add\n      0x40\n      mstore\n      dup1\n      swap3\n      swap2\n      swap1\n      dup2\n      dup2\n      mstore\n      0x20\n      add\n      dup3\n      dup1\n      sload\n      tag_51\n      swap1\n      tag_50\n      jump\t// in\n    tag_51:\n      dup1\n      iszero\n      tag_52\n      jumpi\n      dup1\n      0x1f\n      lt\n      tag_53\n      jumpi\n      0x0100\n      dup1\n      dup4\n      sload\n      div\n      mul\n      dup4\n      mstore\n      swap2\n      0x20\n      add\n      swap2\n      jump(tag_52)\n    tag_53:\n      dup3\n      add\n      swap2\n      swap1\n      0x00\n      mstore\n      keccak256(0x00, 0x20)\n      swap1\n    tag_54:\n      dup2\n      sload\n      dup2\n      mstore\n      swap1\n      0x01\n      add\n      swap1\n      0x20\n      add\n      dup1\n      dup4\n      gt\n      tag_54\n      jumpi\n      dup3\n      swap1\n      sub\n      0x1f\n      and\n      dup3\n      add\n      swap2\n    tag_52:\n      pop\n      pop\n      pop\n      pop\n      pop\n      swap1\n      dup1\n      0x02\n      add\n      sload\n      swap1\n      dup1\n      0x03\n      add\n      sload\n      swap1\n      dup1\n      0x04\n      add\n      sload\n      swap1\n      dup1\n      0x05\n      add\n      sload\n      swap1\n      pop\n      dup7\n      jump\t// out\n        /* \"firstproject/eventmanagement.sol\":1108:1460  function transferticket(uint id,uint quantity,address to) external{... */\n    tag_29:\n        /* \"firstproject/eventmanagement.sol\":1208:1209  0 */\n      0x00\n        /* \"firstproject/eventmanagement.sol\":1190:1197  devents */\n      dup1\n        /* \"firstproject/eventmanagement.sol\":1190:1201  devents[id] */\n      0x00\n        /* \"firstproject/eventmanagement.sol\":1198:1200  id */\n      dup6\n        /* \"firstproject/eventmanagement.sol\":1190:1201  devents[id] */\n      dup2\n      mstore\n      0x20\n      add\n      swap1\n      dup2\n      mstore\n      0x20\n      add\n      0x00\n      keccak256\n        /* \"firstproject/eventmanagement.sol\":1190:1206  devents[id].date */\n      0x02\n      add\n      sload\n        /* \"firstproject/eventmanagement.sol\":1190:1209  devents[id].date!=0 */\n      sub\n        /* \"firstproject/eventmanagement.sol\":1182:1229  require(devents[id].date!=0,\"event not exists\") */\n      tag_56\n      jumpi\n      mload(0x40)\n      0x08c379a000000000000000000000000000000000000000000000000000000000\n      dup2\n      mstore\n      0x04\n      add\n      tag_57\n      swap1\n      tag_58\n      jump\t// in\n    tag_57:\n      mload(0x40)\n      dup1\n      swap2\n      sub\n      swap1\n      revert\n    tag_56:\n        /* \"firstproject/eventmanagement.sol\":1265:1280  block.timestamp */\n      timestamp\n        /* \"firstproject/eventmanagement.sol\":1248:1255  devents */\n      0x00\n        /* \"firstproject/eventmanagement.sol\":1248:1259  devents[id] */\n      dup1\n        /* \"firstproject/eventmanagement.sol\":1256:1258  id */\n      dup6\n        /* \"firstproject/eventmanagement.sol\":1248:1259  devents[id] */\n      dup2\n      mstore\n      0x20\n      add\n      swap1\n      dup2\n      mstore\n      0x20\n      add\n      0x00\n      keccak256\n        /* \"firstproject/eventmanagement.sol\":1248:1264  devents[id].date */\n      0x02\n      add\n      sload\n        /* \"firstproject/eventmanagement.sol\":1248:1280  devents[id].date>block.timestamp */\n      gt\n        /* \"firstproject/eventmanagement.sol\":1240:1299  require(devents[id].date>block.timestamp,\"event has ended\") */\n      tag_59\n      jumpi\n      mload(0x40)\n      0x08c379a000000000000000000000000000000000000000000000000000000000\n      dup2\n      mstore\n      0x04\n      add\n      tag_60\n      swap1\n      tag_61\n      jump\t// in\n    tag_60:\n      mload(0x40)\n      dup1\n      swap2\n      sub\n      swap1\n      revert\n    tag_59:\n        /* \"firstproject/eventmanagement.sol\":1343:1351  quantity */\n      dup2\n        /* \"firstproject/eventmanagement.sol\":1318:1325  tickets */\n      0x01\n        /* \"firstproject/eventmanagement.sol\":1318:1337  tickets[msg.sender] */\n      0x00\n        /* \"firstproject/eventmanagement.sol\":1326:1336  msg.sender */\n      caller\n        /* \"firstproject/eventmanagement.sol\":1318:1337  tickets[msg.sender] */\n      0xffffffffffffffffffffffffffffffffffffffff\n      and\n      0xffffffffffffffffffffffffffffffffffffffff\n      and\n      dup2\n      mstore\n      0x20\n      add\n      swap1\n      dup2\n      mstore\n      0x20\n      add\n      0x00\n      keccak256\n        /* \"firstproject/eventmanagement.sol\":1318:1341  tickets[msg.sender][id] */\n      0x00\n        /* \"firstproject/eventmanagement.sol\":1338:1340  id */\n      dup6\n        /* \"firstproject/eventmanagement.sol\":1318:1341  tickets[msg.sender][id] */\n      dup2\n      mstore\n      0x20\n      add\n      swap1\n      dup2\n      mstore\n      0x20\n      add\n      0x00\n      keccak256\n      sload\n        /* \"firstproject/eventmanagement.sol\":1318:1351  tickets[msg.sender][id]>=quantity */\n      lt\n      iszero\n        /* \"firstproject/eventmanagement.sol\":1310:1372  require(tickets[msg.sender][id]>=quantity,\"not enough ticket\") */\n      tag_62\n      jumpi\n      mload(0x40)\n      0x08c379a000000000000000000000000000000000000000000000000000000000\n      dup2\n      mstore\n      0x04\n      add\n      tag_63\n      swap1\n      tag_64\n      jump\t// in\n    tag_63:\n      mload(0x40)\n      dup1\n      swap2\n      sub\n      swap1\n      revert\n    tag_62:\n        /* \"firstproject/eventmanagement.sol\":1408:1416  quantity */\n      dup2\n        /* \"firstproject/eventmanagement.sol\":1383:1390  tickets */\n      0x01\n        /* \"firstproject/eventmanagement.sol\":1383:1402  tickets[msg.sender] */\n      0x00\n        /* \"firstproject/eventmanagement.sol\":1391:1401  msg.sender */\n      caller\n        /* \"firstproject/eventmanagement.sol\":1383:1402  tickets[msg.sender] */\n      0xffffffffffffffffffffffffffffffffffffffff\n      and\n      0xffffffffffffffffffffffffffffffffffffffff\n      and\n      dup2\n      mstore\n      0x20\n      add\n      swap1\n      dup2\n      mstore\n      0x20\n      add\n      0x00\n      keccak256\n        /* \"firstproject/eventmanagement.sol\":1383:1406  tickets[msg.sender][id] */\n      0x00\n        /* \"firstproject/eventmanagement.sol\":1403:1405  id */\n      dup6\n        /* \"firstproject/eventmanagement.sol\":1383:1406  tickets[msg.sender][id] */\n      dup2\n      mstore\n      0x20\n      add\n      swap1\n      dup2\n      mstore\n      0x20\n      add\n      0x00\n      keccak256\n      0x00\n        /* \"firstproject/eventmanagement.sol\":1383:1416  tickets[msg.sender][id]-=quantity */\n      dup3\n      dup3\n      sload\n      tag_65\n      swap2\n      swap1\n      tag_66\n      jump\t// in\n    tag_65:\n      swap3\n      pop\n      pop\n      dup2\n      swap1\n      sstore\n      pop\n        /* \"firstproject/eventmanagement.sol\":1444:1452  quantity */\n      dup2\n        /* \"firstproject/eventmanagement.sol\":1427:1434  tickets */\n      0x01\n        /* \"firstproject/eventmanagement.sol\":1427:1438  tickets[to] */\n      0x00\n        /* \"firstproject/eventmanagement.sol\":1435:1437  to */\n      dup4\n        /* \"firstproject/eventmanagement.sol\":1427:1438  tickets[to] */\n      0xffffffffffffffffffffffffffffffffffffffff\n      and\n      0xffffffffffffffffffffffffffffffffffffffff\n      and\n      dup2\n      mstore\n      0x20\n      add\n      swap1\n      dup2\n      mstore\n      0x20\n      add\n      0x00\n      keccak256\n        /* \"firstproject/eventmanagement.sol\":1427:1442  tickets[to][id] */\n      0x00\n        /* \"firstproject/eventmanagement.sol\":1439:1441  id */\n      dup6\n        /* \"firstproject/eventmanagement.sol\":1427:1442  tickets[to][id] */\n      dup2\n      mstore\n      0x20\n      add\n      swap1\n      dup2\n      mstore\n      0x20\n      add\n      0x00\n      keccak256\n      0x00\n        /* \"firstproject/eventmanagement.sol\":1427:1452  tickets[to][id]+=quantity */\n      dup3\n      dup3\n      sload\n      tag_67\n      swap2\n      swap1\n      tag_68\n      jump\t// in\n    tag_67:\n      swap3\n      pop\n      pop\n      dup2\n      swap1\n      sstore\n      pop\n        /* \"firstproject/eventmanagement.sol\":1108:1460  function transferticket(uint id,uint quantity,address to) external{... */\n      pop\n      pop\n      pop\n      jump\t// out\n        /* \"firstproject/eventmanagement.sol\":701:1102  function buyticket(uint id,uint quantity) payable external {... */\n    tag_33:\n        /* \"firstproject/eventmanagement.sol\":796:797  0 */\n      0x00\n        /* \"firstproject/eventmanagement.sol\":778:785  devents */\n      dup1\n        /* \"firstproject/eventmanagement.sol\":778:789  devents[id] */\n      0x00\n        /* \"firstproject/eventmanagement.sol\":786:788  id */\n      dup5\n        /* \"firstproject/eventmanagement.sol\":778:789  devents[id] */\n      dup2\n      mstore\n      0x20\n      add\n      swap1\n      dup2\n      mstore\n      0x20\n      add\n      0x00\n      keccak256\n        /* \"firstproject/eventmanagement.sol\":778:794  devents[id].date */\n      0x02\n      add\n      sload\n        /* \"firstproject/eventmanagement.sol\":778:797  devents[id].date!=0 */\n      sub\n        /* \"firstproject/eventmanagement.sol\":770:817  require(devents[id].date!=0,\"event not exists\") */\n      tag_70\n      jumpi\n      mload(0x40)\n      0x08c379a000000000000000000000000000000000000000000000000000000000\n      dup2\n      mstore\n      0x04\n      add\n      tag_71\n      swap1\n      tag_58\n      jump\t// in\n    tag_71:\n      mload(0x40)\n      dup1\n      swap2\n      sub\n      swap1\n      revert\n    tag_70:\n        /* \"firstproject/eventmanagement.sol\":853:868  block.timestamp */\n      timestamp\n        /* \"firstproject/eventmanagement.sol\":836:843  devents */\n      0x00\n        /* \"firstproject/eventmanagement.sol\":836:847  devents[id] */\n      dup1\n        /* \"firstproject/eventmanagement.sol\":844:846  id */\n      dup5\n        /* \"firstproject/eventmanagement.sol\":836:847  devents[id] */\n      dup2\n      mstore\n      0x20\n      add\n      swap1\n      dup2\n      mstore\n      0x20\n      add\n      0x00\n      keccak256\n        /* \"firstproject/eventmanagement.sol\":836:852  devents[id].date */\n      0x02\n      add\n      sload\n        /* \"firstproject/eventmanagement.sol\":836:868  devents[id].date>block.timestamp */\n      gt\n        /* \"firstproject/eventmanagement.sol\":828:887  require(devents[id].date>block.timestamp,\"event has ended\") */\n      tag_72\n      jumpi\n      mload(0x40)\n      0x08c379a000000000000000000000000000000000000000000000000000000000\n      dup2\n      mstore\n      0x04\n      add\n      tag_73\n      swap1\n      tag_61\n      jump\t// in\n    tag_73:\n      mload(0x40)\n      dup1\n      swap2\n      sub\n      swap1\n      revert\n    tag_72:\n        /* \"firstproject/eventmanagement.sol\":934:943  msg.value */\n      callvalue\n        /* \"firstproject/eventmanagement.sol\":924:932  quantity */\n      dup2\n        /* \"firstproject/eventmanagement.sol\":906:913  devents */\n      0x00\n        /* \"firstproject/eventmanagement.sol\":906:917  devents[id] */\n      dup1\n        /* \"firstproject/eventmanagement.sol\":914:916  id */\n      dup6\n        /* \"firstproject/eventmanagement.sol\":906:917  devents[id] */\n      dup2\n      mstore\n      0x20\n      add\n      swap1\n      dup2\n      mstore\n      0x20\n      add\n      0x00\n      keccak256\n        /* \"firstproject/eventmanagement.sol\":906:923  devents[id].price */\n      0x03\n      add\n      sload\n        /* \"firstproject/eventmanagement.sol\":906:932  devents[id].price*quantity */\n      tag_74\n      swap2\n      swap1\n      tag_75\n      jump\t// in\n    tag_74:\n        /* \"firstproject/eventmanagement.sol\":906:943  devents[id].price*quantity==msg.value */\n      eq\n        /* \"firstproject/eventmanagement.sol\":898:944  require(devents[id].price*quantity==msg.value) */\n      tag_76\n      jumpi\n      0x00\n      dup1\n      revert\n    tag_76:\n        /* \"firstproject/eventmanagement.sol\":991:999  quantity */\n      dup1\n        /* \"firstproject/eventmanagement.sol\":963:970  devents */\n      0x00\n        /* \"firstproject/eventmanagement.sol\":963:974  devents[id] */\n      dup1\n        /* \"firstproject/eventmanagement.sol\":971:973  id */\n      dup5\n        /* \"firstproject/eventmanagement.sol\":963:974  devents[id] */\n      dup2\n      mstore\n      0x20\n      add\n      swap1\n      dup2\n      mstore\n      0x20\n      add\n      0x00\n      keccak256\n        /* \"firstproject/eventmanagement.sol\":963:990  devents[id].remainingticket */\n      0x05\n      add\n      sload\n        /* \"firstproject/eventmanagement.sol\":963:999  devents[id].remainingticket>quantity */\n      gt\n        /* \"firstproject/eventmanagement.sol\":955:1000  require(devents[id].remainingticket>quantity) */\n      tag_77\n      jumpi\n      0x00\n      dup1\n      revert\n    tag_77:\n        /* \"firstproject/eventmanagement.sol\":1040:1048  quantity */\n      dup1\n        /* \"firstproject/eventmanagement.sol\":1011:1018  devents */\n      0x00\n        /* \"firstproject/eventmanagement.sol\":1011:1022  devents[id] */\n      dup1\n        /* \"firstproject/eventmanagement.sol\":1019:1021  id */\n      dup5\n        /* \"firstproject/eventmanagement.sol\":1011:1022  devents[id] */\n      dup2\n      mstore\n      0x20\n      add\n      swap1\n      dup2\n      mstore\n      0x20\n      add\n      0x00\n      keccak256\n        /* \"firstproject/eventmanagement.sol\":1011:1038  devents[id].remainingticket */\n      0x05\n      add\n      0x00\n        /* \"firstproject/eventmanagement.sol\":1011:1048  devents[id].remainingticket-=quantity */\n      dup3\n      dup3\n      sload\n      tag_78\n      swap2\n      swap1\n      tag_66\n      jump\t// in\n    tag_78:\n      swap3\n      pop\n      pop\n      dup2\n      swap1\n      sstore\n      pop\n        /* \"firstproject/eventmanagement.sol\":1084:1092  quantity */\n      dup1\n        /* \"firstproject/eventmanagement.sol\":1059:1066  tickets */\n      0x01\n        /* \"firstproject/eventmanagement.sol\":1059:1078  tickets[msg.sender] */\n      0x00\n        /* \"firstproject/eventmanagement.sol\":1067:1077  msg.sender */\n      caller\n        /* \"firstproject/eventmanagement.sol\":1059:1078  tickets[msg.sender] */\n      0xffffffffffffffffffffffffffffffffffffffff\n      and\n      0xffffffffffffffffffffffffffffffffffffffff\n      and\n      dup2\n      mstore\n      0x20\n      add\n      swap1\n      dup2\n      mstore\n      0x20\n      add\n      0x00\n      keccak256\n        /* \"firstproject/eventmanagement.sol\":1059:1082  tickets[msg.sender][id] */\n      0x00\n        /* \"firstproject/eventmanagement.sol\":1079:1081  id */\n      dup5\n        /* \"firstproject/eventmanagement.sol\":1059:1082  tickets[msg.sender][id] */\n      dup2\n      mstore\n      0x20\n      add\n      swap1\n      dup2\n      mstore\n      0x20\n      add\n      0x00\n      keccak256\n      0x00\n        /* \"firstproject/eventmanagement.sol\":1059:1092  tickets[msg.sender][id]+=quantity */\n      dup3\n      dup3\n      sload\n      tag_79\n      swap2\n      swap1\n      tag_68\n      jump\t// in\n    tag_79:\n      swap3\n      pop\n      pop\n      dup2\n      swap1\n      sstore\n      pop\n        /* \"firstproject/eventmanagement.sol\":701:1102  function buyticket(uint id,uint quantity) payable external {... */\n      pop\n      pop\n      jump\t// out\n        /* \"firstproject/eventmanagement.sol\":310:363  mapping(address=>mapping (uint=>uint)) public tickets */\n    tag_38:\n      mstore(0x20, 0x01)\n      dup2\n      0x00\n      mstore\n      mstore(0x20, keccak256(0x00, 0x40))\n      dup1\n      0x00\n      mstore\n      keccak256(0x00, 0x40)\n      0x00\n      swap2\n      pop\n      swap2\n      pop\n      pop\n      sload\n      dup2\n      jump\t// out\n        /* \"#utility.yul\":7:82   */\n    tag_80:\n        /* \"#utility.yul\":40:46   */\n      0x00\n        /* \"#utility.yul\":73:75   */\n      0x40\n        /* \"#utility.yul\":67:76   */\n      mload\n        /* \"#utility.yul\":57:76   */\n      swap1\n      pop\n        /* \"#utility.yul\":7:82   */\n      swap1\n      jump\t// out\n        /* \"#utility.yul\":88:205   */\n    tag_81:\n        /* \"#utility.yul\":197:198   */\n      0x00\n        /* \"#utility.yul\":194:195   */\n      dup1\n        /* \"#utility.yul\":187:199   */\n      revert\n        /* \"#utility.yul\":211:328   */\n    tag_82:\n        /* \"#utility.yul\":320:321   */\n      0x00\n        /* \"#utility.yul\":317:318   */\n      dup1\n        /* \"#utility.yul\":310:322   */\n      revert\n        /* \"#utility.yul\":334:451   */\n    tag_83:\n        /* \"#utility.yul\":443:444   */\n      0x00\n        /* \"#utility.yul\":440:441   */\n      dup1\n        /* \"#utility.yul\":433:445   */\n      revert\n        /* \"#utility.yul\":457:574   */\n    tag_84:\n        /* \"#utility.yul\":566:567   */\n      0x00\n        /* \"#utility.yul\":563:564   */\n      dup1\n        /* \"#utility.yul\":556:568   */\n      revert\n        /* \"#utility.yul\":580:682   */\n    tag_85:\n        /* \"#utility.yul\":621:627   */\n      0x00\n        /* \"#utility.yul\":672:674   */\n      0x1f\n        /* \"#utility.yul\":668:675   */\n      not\n        /* \"#utility.yul\":663:665   */\n      0x1f\n        /* \"#utility.yul\":656:661   */\n      dup4\n        /* \"#utility.yul\":652:666   */\n      add\n        /* \"#utility.yul\":648:676   */\n      and\n        /* \"#utility.yul\":638:676   */\n      swap1\n      pop\n        /* \"#utility.yul\":580:682   */\n      swap2\n      swap1\n      pop\n      jump\t// out\n        /* \"#utility.yul\":688:868   */\n    tag_86:\n        /* \"#utility.yul\":736:813   */\n      0x4e487b7100000000000000000000000000000000000000000000000000000000\n        /* \"#utility.yul\":733:734   */\n      0x00\n        /* \"#utility.yul\":726:814   */\n      mstore\n        /* \"#utility.yul\":833:837   */\n      0x41\n        /* \"#utility.yul\":830:831   */\n      0x04\n        /* \"#utility.yul\":823:838   */\n      mstore\n        /* \"#utility.yul\":857:861   */\n      0x24\n        /* \"#utility.yul\":854:855   */\n      0x00\n        /* \"#utility.yul\":847:862   */\n      revert\n        /* \"#utility.yul\":874:1155   */\n    tag_87:\n        /* \"#utility.yul\":957:984   */\n      tag_140\n        /* \"#utility.yul\":979:983   */\n      dup3\n        /* \"#utility.yul\":957:984   */\n      tag_85\n      jump\t// in\n    tag_140:\n        /* \"#utility.yul\":949:955   */\n      dup2\n        /* \"#utility.yul\":945:985   */\n      add\n        /* \"#utility.yul\":1087:1093   */\n      dup2\n        /* \"#utility.yul\":1075:1085   */\n      dup2\n        /* \"#utility.yul\":1072:1094   */\n      lt\n        /* \"#utility.yul\":1051:1069   */\n      0xffffffffffffffff\n        /* \"#utility.yul\":1039:1049   */\n      dup3\n        /* \"#utility.yul\":1036:1070   */\n      gt\n        /* \"#utility.yul\":1033:1095   */\n      or\n        /* \"#utility.yul\":1030:1118   */\n      iszero\n      tag_141\n      jumpi\n        /* \"#utility.yul\":1098:1116   */\n      tag_142\n      tag_86\n      jump\t// in\n    tag_142:\n        /* \"#utility.yul\":1030:1118   */\n    tag_141:\n        /* \"#utility.yul\":1138:1148   */\n      dup1\n        /* \"#utility.yul\":1134:1136   */\n      0x40\n        /* \"#utility.yul\":1127:1149   */\n      mstore\n        /* \"#utility.yul\":917:1155   */\n      pop\n        /* \"#utility.yul\":874:1155   */\n      pop\n      pop\n      jump\t// out\n        /* \"#utility.yul\":1161:1290   */\n    tag_88:\n        /* \"#utility.yul\":1195:1201   */\n      0x00\n        /* \"#utility.yul\":1222:1242   */\n      tag_144\n      tag_80\n      jump\t// in\n    tag_144:\n        /* \"#utility.yul\":1212:1242   */\n      swap1\n      pop\n        /* \"#utility.yul\":1251:1284   */\n      tag_145\n        /* \"#utility.yul\":1279:1283   */\n      dup3\n        /* \"#utility.yul\":1271:1277   */\n      dup3\n        /* \"#utility.yul\":1251:1284   */\n      tag_87\n      jump\t// in\n    tag_145:\n        /* \"#utility.yul\":1161:1290   */\n      swap2\n      swap1\n      pop\n      jump\t// out\n        /* \"#utility.yul\":1296:1604   */\n    tag_89:\n        /* \"#utility.yul\":1358:1362   */\n      0x00\n        /* \"#utility.yul\":1448:1466   */\n      0xffffffffffffffff\n        /* \"#utility.yul\":1440:1446   */\n      dup3\n        /* \"#utility.yul\":1437:1467   */\n      gt\n        /* \"#utility.yul\":1434:1490   */\n      iszero\n      tag_147\n      jumpi\n        /* \"#utility.yul\":1470:1488   */\n      tag_148\n      tag_86\n      jump\t// in\n    tag_148:\n        /* \"#utility.yul\":1434:1490   */\n    tag_147:\n        /* \"#utility.yul\":1508:1537   */\n      tag_149\n        /* \"#utility.yul\":1530:1536   */\n      dup3\n        /* \"#utility.yul\":1508:1537   */\n      tag_85\n      jump\t// in\n    tag_149:\n        /* \"#utility.yul\":1500:1537   */\n      swap1\n      pop\n        /* \"#utility.yul\":1592:1596   */\n      0x20\n        /* \"#utility.yul\":1586:1590   */\n      dup2\n        /* \"#utility.yul\":1582:1597   */\n      add\n        /* \"#utility.yul\":1574:1597   */\n      swap1\n      pop\n        /* \"#utility.yul\":1296:1604   */\n      swap2\n      swap1\n      pop\n      jump\t// out\n        /* \"#utility.yul\":1610:1758   */\n    tag_90:\n        /* \"#utility.yul\":1708:1714   */\n      dup3\n        /* \"#utility.yul\":1703:1706   */\n      dup2\n        /* \"#utility.yul\":1698:1701   */\n      dup4\n        /* \"#utility.yul\":1685:1715   */\n      calldatacopy\n        /* \"#utility.yul\":1749:1750   */\n      0x00\n        /* \"#utility.yul\":1740:1746   */\n      dup4\n        /* \"#utility.yul\":1735:1738   */\n      dup4\n        /* \"#utility.yul\":1731:1747   */\n      add\n        /* \"#utility.yul\":1724:1751   */\n      mstore\n        /* \"#utility.yul\":1610:1758   */\n      pop\n      pop\n      pop\n      jump\t// out\n        /* \"#utility.yul\":1764:2189   */\n    tag_91:\n        /* \"#utility.yul\":1842:1847   */\n      0x00\n        /* \"#utility.yul\":1867:1933   */\n      tag_152\n        /* \"#utility.yul\":1883:1932   */\n      tag_153\n        /* \"#utility.yul\":1925:1931   */\n      dup5\n        /* \"#utility.yul\":1883:1932   */\n      tag_89\n      jump\t// in\n    tag_153:\n        /* \"#utility.yul\":1867:1933   */\n      tag_88\n      jump\t// in\n    tag_152:\n        /* \"#utility.yul\":1858:1933   */\n      swap1\n      pop\n        /* \"#utility.yul\":1956:1962   */\n      dup3\n        /* \"#utility.yul\":1949:1954   */\n      dup2\n        /* \"#utility.yul\":1942:1963   */\n      mstore\n        /* \"#utility.yul\":1994:1998   */\n      0x20\n        /* \"#utility.yul\":1987:1992   */\n      dup2\n        /* \"#utility.yul\":1983:1999   */\n      add\n        /* \"#utility.yul\":2032:2035   */\n      dup5\n        /* \"#utility.yul\":2023:2029   */\n      dup5\n        /* \"#utility.yul\":2018:2021   */\n      dup5\n        /* \"#utility.yul\":2014:2030   */\n      add\n        /* \"#utility.yul\":2011:2036   */\n      gt\n        /* \"#utility.yul\":2008:2120   */\n      iszero\n      tag_154\n      jumpi\n        /* \"#utility.yul\":2039:2118   */\n      tag_155\n      tag_84\n      jump\t// in\n    tag_155:\n        /* \"#utility.yul\":2008:2120   */\n    tag_154:\n        /* \"#utility.yul\":2129:2183   */\n      tag_156\n        /* \"#utility.yul\":2176:2182   */\n      dup5\n        /* \"#utility.yul\":2171:2174   */\n      dup3\n        /* \"#utility.yul\":2166:2169   */\n      dup6\n        /* \"#utility.yul\":2129:2183   */\n      tag_90\n      jump\t// in\n    tag_156:\n        /* \"#utility.yul\":1848:2189   */\n      pop\n        /* \"#utility.yul\":1764:2189   */\n      swap4\n      swap3\n      pop\n      pop\n      pop\n      jump\t// out\n        /* \"#utility.yul\":2209:2549   */\n    tag_92:\n        /* \"#utility.yul\":2265:2270   */\n      0x00\n        /* \"#utility.yul\":2314:2317   */\n      dup3\n        /* \"#utility.yul\":2307:2311   */\n      0x1f\n        /* \"#utility.yul\":2299:2305   */\n      dup4\n        /* \"#utility.yul\":2295:2312   */\n      add\n        /* \"#utility.yul\":2291:2318   */\n      slt\n        /* \"#utility.yul\":2281:2403   */\n      tag_158\n      jumpi\n        /* \"#utility.yul\":2322:2401   */\n      tag_159\n      tag_83\n      jump\t// in\n    tag_159:\n        /* \"#utility.yul\":2281:2403   */\n    tag_158:\n        /* \"#utility.yul\":2439:2445   */\n      dup2\n        /* \"#utility.yul\":2426:2446   */\n      calldataload\n        /* \"#utility.yul\":2464:2543   */\n      tag_160\n        /* \"#utility.yul\":2539:2542   */\n      dup5\n        /* \"#utility.yul\":2531:2537   */\n      dup3\n        /* \"#utility.yul\":2524:2528   */\n      0x20\n        /* \"#utility.yul\":2516:2522   */\n      dup7\n        /* \"#utility.yul\":2512:2529   */\n      add\n        /* \"#utility.yul\":2464:2543   */\n      tag_91\n      jump\t// in\n    tag_160:\n        /* \"#utility.yul\":2455:2543   */\n      swap2\n      pop\n        /* \"#utility.yul\":2271:2549   */\n      pop\n        /* \"#utility.yul\":2209:2549   */\n      swap3\n      swap2\n      pop\n      pop\n      jump\t// out\n        /* \"#utility.yul\":2555:2632   */\n    tag_93:\n        /* \"#utility.yul\":2592:2599   */\n      0x00\n        /* \"#utility.yul\":2621:2626   */\n      dup2\n        /* \"#utility.yul\":2610:2626   */\n      swap1\n      pop\n        /* \"#utility.yul\":2555:2632   */\n      swap2\n      swap1\n      pop\n      jump\t// out\n        /* \"#utility.yul\":2638:2760   */\n    tag_94:\n        /* \"#utility.yul\":2711:2735   */\n      tag_163\n        /* \"#utility.yul\":2729:2734   */\n      dup2\n        /* \"#utility.yul\":2711:2735   */\n      tag_93\n      jump\t// in\n    tag_163:\n        /* \"#utility.yul\":2704:2709   */\n      dup2\n        /* \"#utility.yul\":2701:2736   */\n      eq\n        /* \"#utility.yul\":2691:2754   */\n      tag_164\n      jumpi\n        /* \"#utility.yul\":2750:2751   */\n      0x00\n        /* \"#utility.yul\":2747:2748   */\n      dup1\n        /* \"#utility.yul\":2740:2752   */\n      revert\n        /* \"#utility.yul\":2691:2754   */\n    tag_164:\n        /* \"#utility.yul\":2638:2760   */\n      pop\n      jump\t// out\n        /* \"#utility.yul\":2766:2905   */\n    tag_95:\n        /* \"#utility.yul\":2812:2817   */\n      0x00\n        /* \"#utility.yul\":2850:2856   */\n      dup2\n        /* \"#utility.yul\":2837:2857   */\n      calldataload\n        /* \"#utility.yul\":2828:2857   */\n      swap1\n      pop\n        /* \"#utility.yul\":2866:2899   */\n      tag_166\n        /* \"#utility.yul\":2893:2898   */\n      dup2\n        /* \"#utility.yul\":2866:2899   */\n      tag_94\n      jump\t// in\n    tag_166:\n        /* \"#utility.yul\":2766:2905   */\n      swap3\n      swap2\n      pop\n      pop\n      jump\t// out\n        /* \"#utility.yul\":2911:3856   */\n    tag_11:\n        /* \"#utility.yul\":3007:3013   */\n      0x00\n        /* \"#utility.yul\":3015:3021   */\n      dup1\n        /* \"#utility.yul\":3023:3029   */\n      0x00\n        /* \"#utility.yul\":3031:3037   */\n      dup1\n        /* \"#utility.yul\":3080:3083   */\n      0x80\n        /* \"#utility.yul\":3068:3077   */\n      dup6\n        /* \"#utility.yul\":3059:3066   */\n      dup8\n        /* \"#utility.yul\":3055:3078   */\n      sub\n        /* \"#utility.yul\":3051:3084   */\n      slt\n        /* \"#utility.yul\":3048:3168   */\n      iszero\n      tag_168\n      jumpi\n        /* \"#utility.yul\":3087:3166   */\n      tag_169\n      tag_81\n      jump\t// in\n    tag_169:\n        /* \"#utility.yul\":3048:3168   */\n    tag_168:\n        /* \"#utility.yul\":3235:3236   */\n      0x00\n        /* \"#utility.yul\":3224:3233   */\n      dup6\n        /* \"#utility.yul\":3220:3237   */\n      add\n        /* \"#utility.yul\":3207:3238   */\n      calldataload\n        /* \"#utility.yul\":3265:3283   */\n      0xffffffffffffffff\n        /* \"#utility.yul\":3257:3263   */\n      dup2\n        /* \"#utility.yul\":3254:3284   */\n      gt\n        /* \"#utility.yul\":3251:3368   */\n      iszero\n      tag_170\n      jumpi\n        /* \"#utility.yul\":3287:3366   */\n      tag_171\n      tag_82\n      jump\t// in\n    tag_171:\n        /* \"#utility.yul\":3251:3368   */\n    tag_170:\n        /* \"#utility.yul\":3392:3455   */\n      tag_172\n        /* \"#utility.yul\":3447:3454   */\n      dup8\n        /* \"#utility.yul\":3438:3444   */\n      dup3\n        /* \"#utility.yul\":3427:3436   */\n      dup9\n        /* \"#utility.yul\":3423:3445   */\n      add\n        /* \"#utility.yul\":3392:3455   */\n      tag_92\n      jump\t// in\n    tag_172:\n        /* \"#utility.yul\":3382:3455   */\n      swap5\n      pop\n        /* \"#utility.yul\":3178:3465   */\n      pop\n        /* \"#utility.yul\":3504:3506   */\n      0x20\n        /* \"#utility.yul\":3530:3583   */\n      tag_173\n        /* \"#utility.yul\":3575:3582   */\n      dup8\n        /* \"#utility.yul\":3566:3572   */\n      dup3\n        /* \"#utility.yul\":3555:3564   */\n      dup9\n        /* \"#utility.yul\":3551:3573   */\n      add\n        /* \"#utility.yul\":3530:3583   */\n      tag_95\n      jump\t// in\n    tag_173:\n        /* \"#utility.yul\":3520:3583   */\n      swap4\n      pop\n        /* \"#utility.yul\":3475:3593   */\n      pop\n        /* \"#utility.yul\":3632:3634   */\n      0x40\n        /* \"#utility.yul\":3658:3711   */\n      tag_174\n        /* \"#utility.yul\":3703:3710   */\n      dup8\n        /* \"#utility.yul\":3694:3700   */\n      dup3\n        /* \"#utility.yul\":3683:3692   */\n      dup9\n        /* \"#utility.yul\":3679:3701   */\n      add\n        /* \"#utility.yul\":3658:3711   */\n      tag_95\n      jump\t// in\n    tag_174:\n        /* \"#utility.yul\":3648:3711   */\n      swap3\n      pop\n        /* \"#utility.yul\":3603:3721   */\n      pop\n        /* \"#utility.yul\":3760:3762   */\n      0x60\n        /* \"#utility.yul\":3786:3839   */\n      tag_175\n        /* \"#utility.yul\":3831:3838   */\n      dup8\n        /* \"#utility.yul\":3822:3828   */\n      dup3\n        /* \"#utility.yul\":3811:3820   */\n      dup9\n        /* \"#utility.yul\":3807:3829   */\n      add\n        /* \"#utility.yul\":3786:3839   */\n      tag_95\n      jump\t// in\n    tag_175:\n        /* \"#utility.yul\":3776:3839   */\n      swap2\n      pop\n        /* \"#utility.yul\":3731:3849   */\n      pop\n        /* \"#utility.yul\":2911:3856   */\n      swap3\n      swap6\n      swap2\n      swap5\n      pop\n      swap3\n      pop\n      jump\t// out\n        /* \"#utility.yul\":3862:3980   */\n    tag_96:\n        /* \"#utility.yul\":3949:3973   */\n      tag_177\n        /* \"#utility.yul\":3967:3972   */\n      dup2\n        /* \"#utility.yul\":3949:3973   */\n      tag_93\n      jump\t// in\n    tag_177:\n        /* \"#utility.yul\":3944:3947   */\n      dup3\n        /* \"#utility.yul\":3937:3974   */\n      mstore\n        /* \"#utility.yul\":3862:3980   */\n      pop\n      pop\n      jump\t// out\n        /* \"#utility.yul\":3986:4208   */\n    tag_17:\n        /* \"#utility.yul\":4079:4083   */\n      0x00\n        /* \"#utility.yul\":4117:4119   */\n      0x20\n        /* \"#utility.yul\":4106:4115   */\n      dup3\n        /* \"#utility.yul\":4102:4120   */\n      add\n        /* \"#utility.yul\":4094:4120   */\n      swap1\n      pop\n        /* \"#utility.yul\":4130:4201   */\n      tag_179\n        /* \"#utility.yul\":4198:4199   */\n      0x00\n        /* \"#utility.yul\":4187:4196   */\n      dup4\n        /* \"#utility.yul\":4183:4200   */\n      add\n        /* \"#utility.yul\":4174:4180   */\n      dup5\n        /* \"#utility.yul\":4130:4201   */\n      tag_96\n      jump\t// in\n    tag_179:\n        /* \"#utility.yul\":3986:4208   */\n      swap3\n      swap2\n      pop\n      pop\n      jump\t// out\n        /* \"#utility.yul\":4214:4543   */\n    tag_21:\n        /* \"#utility.yul\":4273:4279   */\n      0x00\n        /* \"#utility.yul\":4322:4324   */\n      0x20\n        /* \"#utility.yul\":4310:4319   */\n      dup3\n        /* \"#utility.yul\":4301:4308   */\n      dup5\n        /* \"#utility.yul\":4297:4320   */\n      sub\n        /* \"#utility.yul\":4293:4325   */\n      slt\n        /* \"#utility.yul\":4290:4409   */\n      iszero\n      tag_181\n      jumpi\n        /* \"#utility.yul\":4328:4407   */\n      tag_182\n      tag_81\n      jump\t// in\n    tag_182:\n        /* \"#utility.yul\":4290:4409   */\n    tag_181:\n        /* \"#utility.yul\":4448:4449   */\n      0x00\n        /* \"#utility.yul\":4473:4526   */\n      tag_183\n        /* \"#utility.yul\":4518:4525   */\n      dup5\n        /* \"#utility.yul\":4509:4515   */\n      dup3\n        /* \"#utility.yul\":4498:4507   */\n      dup6\n        /* \"#utility.yul\":4494:4516   */\n      add\n        /* \"#utility.yul\":4473:4526   */\n      tag_95\n      jump\t// in\n    tag_183:\n        /* \"#utility.yul\":4463:4526   */\n      swap2\n      pop\n        /* \"#utility.yul\":4419:4536   */\n      pop\n        /* \"#utility.yul\":4214:4543   */\n      swap3\n      swap2\n      pop\n      pop\n      jump\t// out\n        /* \"#utility.yul\":4549:4675   */\n    tag_97:\n        /* \"#utility.yul\":4586:4593   */\n      0x00\n        /* \"#utility.yul\":4626:4668   */\n      0xffffffffffffffffffffffffffffffffffffffff\n        /* \"#utility.yul\":4619:4624   */\n      dup3\n        /* \"#utility.yul\":4615:4669   */\n      and\n        /* \"#utility.yul\":4604:4669   */\n      swap1\n      pop\n        /* \"#utility.yul\":4549:4675   */\n      swap2\n      swap1\n      pop\n      jump\t// out\n        /* \"#utility.yul\":4681:4777   */\n    tag_98:\n        /* \"#utility.yul\":4718:4725   */\n      0x00\n        /* \"#utility.yul\":4747:4771   */\n      tag_186\n        /* \"#utility.yul\":4765:4770   */\n      dup3\n        /* \"#utility.yul\":4747:4771   */\n      tag_97\n      jump\t// in\n    tag_186:\n        /* \"#utility.yul\":4736:4771   */\n      swap1\n      pop\n        /* \"#utility.yul\":4681:4777   */\n      swap2\n      swap1\n      pop\n      jump\t// out\n        /* \"#utility.yul\":4783:4901   */\n    tag_99:\n        /* \"#utility.yul\":4870:4894   */\n      tag_188\n        /* \"#utility.yul\":4888:4893   */\n      dup2\n        /* \"#utility.yul\":4870:4894   */\n      tag_98\n      jump\t// in\n    tag_188:\n        /* \"#utility.yul\":4865:4868   */\n      dup3\n        /* \"#utility.yul\":4858:4895   */\n      mstore\n        /* \"#utility.yul\":4783:4901   */\n      pop\n      pop\n      jump\t// out\n        /* \"#utility.yul\":4907:5006   */\n    tag_100:\n        /* \"#utility.yul\":4959:4965   */\n      0x00\n        /* \"#utility.yul\":4993:4998   */\n      dup2\n        /* \"#utility.yul\":4987:4999   */\n      mload\n        /* \"#utility.yul\":4977:4999   */\n      swap1\n      pop\n        /* \"#utility.yul\":4907:5006   */\n      swap2\n      swap1\n      pop\n      jump\t// out\n        /* \"#utility.yul\":5012:5181   */\n    tag_101:\n        /* \"#utility.yul\":5096:5107   */\n      0x00\n        /* \"#utility.yul\":5130:5136   */\n      dup3\n        /* \"#utility.yul\":5125:5128   */\n      dup3\n        /* \"#utility.yul\":5118:5137   */\n      mstore\n        /* \"#utility.yul\":5170:5174   */\n      0x20\n        /* \"#utility.yul\":5165:5168   */\n      dup3\n        /* \"#utility.yul\":5161:5175   */\n      add\n        /* \"#utility.yul\":5146:5175   */\n      swap1\n      pop\n        /* \"#utility.yul\":5012:5181   */\n      swap3\n      swap2\n      pop\n      pop\n      jump\t// out\n        /* \"#utility.yul\":5187:5326   */\n    tag_102:\n        /* \"#utility.yul\":5276:5282   */\n      dup3\n        /* \"#utility.yul\":5271:5274   */\n      dup2\n        /* \"#utility.yul\":5266:5269   */\n      dup4\n        /* \"#utility.yul\":5260:5283   */\n      mcopy\n        /* \"#utility.yul\":5317:5318   */\n      0x00\n        /* \"#utility.yul\":5308:5314   */\n      dup4\n        /* \"#utility.yul\":5303:5306   */\n      dup4\n        /* \"#utility.yul\":5299:5315   */\n      add\n        /* \"#utility.yul\":5292:5319   */\n      mstore\n        /* \"#utility.yul\":5187:5326   */\n      pop\n      pop\n      pop\n      jump\t// out\n        /* \"#utility.yul\":5332:5709   */\n    tag_103:\n        /* \"#utility.yul\":5420:5423   */\n      0x00\n        /* \"#utility.yul\":5448:5487   */\n      tag_193\n        /* \"#utility.yul\":5481:5486   */\n      dup3\n        /* \"#utility.yul\":5448:5487   */\n      tag_100\n      jump\t// in\n    tag_193:\n        /* \"#utility.yul\":5503:5574   */\n      tag_194\n        /* \"#utility.yul\":5567:5573   */\n      dup2\n        /* \"#utility.yul\":5562:5565   */\n      dup6\n        /* \"#utility.yul\":5503:5574   */\n      tag_101\n      jump\t// in\n    tag_194:\n        /* \"#utility.yul\":5496:5574   */\n      swap4\n      pop\n        /* \"#utility.yul\":5583:5648   */\n      tag_195\n        /* \"#utility.yul\":5641:5647   */\n      dup2\n        /* \"#utility.yul\":5636:5639   */\n      dup6\n        /* \"#utility.yul\":5629:5633   */\n      0x20\n        /* \"#utility.yul\":5622:5627   */\n      dup7\n        /* \"#utility.yul\":5618:5634   */\n      add\n        /* \"#utility.yul\":5583:5648   */\n      tag_102\n      jump\t// in\n    tag_195:\n        /* \"#utility.yul\":5673:5702   */\n      tag_196\n        /* \"#utility.yul\":5695:5701   */\n      dup2\n        /* \"#utility.yul\":5673:5702   */\n      tag_85\n      jump\t// in\n    tag_196:\n        /* \"#utility.yul\":5668:5671   */\n      dup5\n        /* \"#utility.yul\":5664:5703   */\n      add\n        /* \"#utility.yul\":5657:5703   */\n      swap2\n      pop\n        /* \"#utility.yul\":5424:5709   */\n      pop\n        /* \"#utility.yul\":5332:5709   */\n      swap3\n      swap2\n      pop\n      pop\n      jump\t// out\n        /* \"#utility.yul\":5715:6581   */\n    tag_24:\n        /* \"#utility.yul\":5968:5972   */\n      0x00\n        /* \"#utility.yul\":6006:6009   */\n      0xc0\n        /* \"#utility.yul\":5995:6004   */\n      dup3\n        /* \"#utility.yul\":5991:6010   */\n      add\n        /* \"#utility.yul\":5983:6010   */\n      swap1\n      pop\n        /* \"#utility.yul\":6020:6091   */\n      tag_198\n        /* \"#utility.yul\":6088:6089   */\n      0x00\n        /* \"#utility.yul\":6077:6086   */\n      dup4\n        /* \"#utility.yul\":6073:6090   */\n      add\n        /* \"#utility.yul\":6064:6070   */\n      dup10\n        /* \"#utility.yul\":6020:6091   */\n      tag_99\n      jump\t// in\n    tag_198:\n        /* \"#utility.yul\":6138:6147   */\n      dup2\n        /* \"#utility.yul\":6132:6136   */\n      dup2\n        /* \"#utility.yul\":6128:6148   */\n      sub\n        /* \"#utility.yul\":6123:6125   */\n      0x20\n        /* \"#utility.yul\":6112:6121   */\n      dup4\n        /* \"#utility.yul\":6108:6126   */\n      add\n        /* \"#utility.yul\":6101:6149   */\n      mstore\n        /* \"#utility.yul\":6166:6244   */\n      tag_199\n        /* \"#utility.yul\":6239:6243   */\n      dup2\n        /* \"#utility.yul\":6230:6236   */\n      dup9\n        /* \"#utility.yul\":6166:6244   */\n      tag_103\n      jump\t// in\n    tag_199:\n        /* \"#utility.yul\":6158:6244   */\n      swap1\n      pop\n        /* \"#utility.yul\":6254:6326   */\n      tag_200\n        /* \"#utility.yul\":6322:6324   */\n      0x40\n        /* \"#utility.yul\":6311:6320   */\n      dup4\n        /* \"#utility.yul\":6307:6325   */\n      add\n        /* \"#utility.yul\":6298:6304   */\n      dup8\n        /* \"#utility.yul\":6254:6326   */\n      tag_96\n      jump\t// in\n    tag_200:\n        /* \"#utility.yul\":6336:6408   */\n      tag_201\n        /* \"#utility.yul\":6404:6406   */\n      0x60\n        /* \"#utility.yul\":6393:6402   */\n      dup4\n        /* \"#utility.yul\":6389:6407   */\n      add\n        /* \"#utility.yul\":6380:6386   */\n      dup7\n        /* \"#utility.yul\":6336:6408   */\n      tag_96\n      jump\t// in\n    tag_201:\n        /* \"#utility.yul\":6418:6491   */\n      tag_202\n        /* \"#utility.yul\":6486:6489   */\n      0x80\n        /* \"#utility.yul\":6475:6484   */\n      dup4\n        /* \"#utility.yul\":6471:6490   */\n      add\n        /* \"#utility.yul\":6462:6468   */\n      dup6\n        /* \"#utility.yul\":6418:6491   */\n      tag_96\n      jump\t// in\n    tag_202:\n        /* \"#utility.yul\":6501:6574   */\n      tag_203\n        /* \"#utility.yul\":6569:6572   */\n      0xa0\n        /* \"#utility.yul\":6558:6567   */\n      dup4\n        /* \"#utility.yul\":6554:6573   */\n      add\n        /* \"#utility.yul\":6545:6551   */\n      dup5\n        /* \"#utility.yul\":6501:6574   */\n      tag_96\n      jump\t// in\n    tag_203:\n        /* \"#utility.yul\":5715:6581   */\n      swap8\n      swap7\n      pop\n      pop\n      pop\n      pop\n      pop\n      pop\n      pop\n      jump\t// out\n        /* \"#utility.yul\":6587:6709   */\n    tag_104:\n        /* \"#utility.yul\":6660:6684   */\n      tag_205\n        /* \"#utility.yul\":6678:6683   */\n      dup2\n        /* \"#utility.yul\":6660:6684   */\n      tag_98\n      jump\t// in\n    tag_205:\n        /* \"#utility.yul\":6653:6658   */\n      dup2\n        /* \"#utility.yul\":6650:6685   */\n      eq\n        /* \"#utility.yul\":6640:6703   */\n      tag_206\n      jumpi\n        /* \"#utility.yul\":6699:6700   */\n      0x00\n        /* \"#utility.yul\":6696:6697   */\n      dup1\n        /* \"#utility.yul\":6689:6701   */\n      revert\n        /* \"#utility.yul\":6640:6703   */\n    tag_206:\n        /* \"#utility.yul\":6587:6709   */\n      pop\n      jump\t// out\n        /* \"#utility.yul\":6715:6854   */\n    tag_105:\n        /* \"#utility.yul\":6761:6766   */\n      0x00\n        /* \"#utility.yul\":6799:6805   */\n      dup2\n        /* \"#utility.yul\":6786:6806   */\n      calldataload\n        /* \"#utility.yul\":6777:6806   */\n      swap1\n      pop\n        /* \"#utility.yul\":6815:6848   */\n      tag_208\n        /* \"#utility.yul\":6842:6847   */\n      dup2\n        /* \"#utility.yul\":6815:6848   */\n      tag_104\n      jump\t// in\n    tag_208:\n        /* \"#utility.yul\":6715:6854   */\n      swap3\n      swap2\n      pop\n      pop\n      jump\t// out\n        /* \"#utility.yul\":6860:7479   */\n    tag_28:\n        /* \"#utility.yul\":6937:6943   */\n      0x00\n        /* \"#utility.yul\":6945:6951   */\n      dup1\n        /* \"#utility.yul\":6953:6959   */\n      0x00\n        /* \"#utility.yul\":7002:7004   */\n      0x60\n        /* \"#utility.yul\":6990:6999   */\n      dup5\n        /* \"#utility.yul\":6981:6988   */\n      dup7\n        /* \"#utility.yul\":6977:7000   */\n      sub\n        /* \"#utility.yul\":6973:7005   */\n      slt\n        /* \"#utility.yul\":6970:7089   */\n      iszero\n      tag_210\n      jumpi\n        /* \"#utility.yul\":7008:7087   */\n      tag_211\n      tag_81\n      jump\t// in\n    tag_211:\n        /* \"#utility.yul\":6970:7089   */\n    tag_210:\n        /* \"#utility.yul\":7128:7129   */\n      0x00\n        /* \"#utility.yul\":7153:7206   */\n      tag_212\n        /* \"#utility.yul\":7198:7205   */\n      dup7\n        /* \"#utility.yul\":7189:7195   */\n      dup3\n        /* \"#utility.yul\":7178:7187   */\n      dup8\n        /* \"#utility.yul\":7174:7196   */\n      add\n        /* \"#utility.yul\":7153:7206   */\n      tag_95\n      jump\t// in\n    tag_212:\n        /* \"#utility.yul\":7143:7206   */\n      swap4\n      pop\n        /* \"#utility.yul\":7099:7216   */\n      pop\n        /* \"#utility.yul\":7255:7257   */\n      0x20\n        /* \"#utility.yul\":7281:7334   */\n      tag_213\n        /* \"#utility.yul\":7326:7333   */\n      dup7\n        /* \"#utility.yul\":7317:7323   */\n      dup3\n        /* \"#utility.yul\":7306:7315   */\n      dup8\n        /* \"#utility.yul\":7302:7324   */\n      add\n        /* \"#utility.yul\":7281:7334   */\n      tag_95\n      jump\t// in\n    tag_213:\n        /* \"#utility.yul\":7271:7334   */\n      swap3\n      pop\n        /* \"#utility.yul\":7226:7344   */\n      pop\n        /* \"#utility.yul\":7383:7385   */\n      0x40\n        /* \"#utility.yul\":7409:7462   */\n      tag_214\n        /* \"#utility.yul\":7454:7461   */\n      dup7\n        /* \"#utility.yul\":7445:7451   */\n      dup3\n        /* \"#utility.yul\":7434:7443   */\n      dup8\n        /* \"#utility.yul\":7430:7452   */\n      add\n        /* \"#utility.yul\":7409:7462   */\n      tag_105\n      jump\t// in\n    tag_214:\n        /* \"#utility.yul\":7399:7462   */\n      swap2\n      pop\n        /* \"#utility.yul\":7354:7472   */\n      pop\n        /* \"#utility.yul\":6860:7479   */\n      swap3\n      pop\n      swap3\n      pop\n      swap3\n      jump\t// out\n        /* \"#utility.yul\":7485:7959   */\n    tag_32:\n        /* \"#utility.yul\":7553:7559   */\n      0x00\n        /* \"#utility.yul\":7561:7567   */\n      dup1\n        /* \"#utility.yul\":7610:7612   */\n      0x40\n        /* \"#utility.yul\":7598:7607   */\n      dup4\n        /* \"#utility.yul\":7589:7596   */\n      dup6\n        /* \"#utility.yul\":7585:7608   */\n      sub\n        /* \"#utility.yul\":7581:7613   */\n      slt\n        /* \"#utility.yul\":7578:7697   */\n      iszero\n      tag_216\n      jumpi\n        /* \"#utility.yul\":7616:7695   */\n      tag_217\n      tag_81\n      jump\t// in\n    tag_217:\n        /* \"#utility.yul\":7578:7697   */\n    tag_216:\n        /* \"#utility.yul\":7736:7737   */\n      0x00\n        /* \"#utility.yul\":7761:7814   */\n      tag_218\n        /* \"#utility.yul\":7806:7813   */\n      dup6\n        /* \"#utility.yul\":7797:7803   */\n      dup3\n        /* \"#utility.yul\":7786:7795   */\n      dup7\n        /* \"#utility.yul\":7782:7804   */\n      add\n        /* \"#utility.yul\":7761:7814   */\n      tag_95\n      jump\t// in\n    tag_218:\n        /* \"#utility.yul\":7751:7814   */\n      swap3\n      pop\n        /* \"#utility.yul\":7707:7824   */\n      pop\n        /* \"#utility.yul\":7863:7865   */\n      0x20\n        /* \"#utility.yul\":7889:7942   */\n      tag_219\n        /* \"#utility.yul\":7934:7941   */\n      dup6\n        /* \"#utility.yul\":7925:7931   */\n      dup3\n        /* \"#utility.yul\":7914:7923   */\n      dup7\n        /* \"#utility.yul\":7910:7932   */\n      add\n        /* \"#utility.yul\":7889:7942   */\n      tag_95\n      jump\t// in\n    tag_219:\n        /* \"#utility.yul\":7879:7942   */\n      swap2\n      pop\n        /* \"#utility.yul\":7834:7952   */\n      pop\n        /* \"#utility.yul\":7485:7959   */\n      swap3\n      pop\n      swap3\n      swap1\n      pop\n      jump\t// out\n        /* \"#utility.yul\":7965:8439   */\n    tag_37:\n        /* \"#utility.yul\":8033:8039   */\n      0x00\n        /* \"#utility.yul\":8041:8047   */\n      dup1\n        /* \"#utility.yul\":8090:8092   */\n      0x40\n        /* \"#utility.yul\":8078:8087   */\n      dup4\n        /* \"#utility.yul\":8069:8076   */\n      dup6\n        /* \"#utility.yul\":8065:8088   */\n      sub\n        /* \"#utility.yul\":8061:8093   */\n      slt\n        /* \"#utility.yul\":8058:8177   */\n      iszero\n      tag_221\n      jumpi\n        /* \"#utility.yul\":8096:8175   */\n      tag_222\n      tag_81\n      jump\t// in\n    tag_222:\n        /* \"#utility.yul\":8058:8177   */\n    tag_221:\n        /* \"#utility.yul\":8216:8217   */\n      0x00\n        /* \"#utility.yul\":8241:8294   */\n      tag_223\n        /* \"#utility.yul\":8286:8293   */\n      dup6\n        /* \"#utility.yul\":8277:8283   */\n      dup3\n        /* \"#utility.yul\":8266:8275   */\n      dup7\n        /* \"#utility.yul\":8262:8284   */\n      add\n        /* \"#utility.yul\":8241:8294   */\n      tag_105\n      jump\t// in\n    tag_223:\n        /* \"#utility.yul\":8231:8294   */\n      swap3\n      pop\n        /* \"#utility.yul\":8187:8304   */\n      pop\n        /* \"#utility.yul\":8343:8345   */\n      0x20\n        /* \"#utility.yul\":8369:8422   */\n      tag_224\n        /* \"#utility.yul\":8414:8421   */\n      dup6\n        /* \"#utility.yul\":8405:8411   */\n      dup3\n        /* \"#utility.yul\":8394:8403   */\n      dup7\n        /* \"#utility.yul\":8390:8412   */\n      add\n        /* \"#utility.yul\":8369:8422   */\n      tag_95\n      jump\t// in\n    tag_224:\n        /* \"#utility.yul\":8359:8422   */\n      swap2\n      pop\n        /* \"#utility.yul\":8314:8432   */\n      pop\n        /* \"#utility.yul\":7965:8439   */\n      swap3\n      pop\n      swap3\n      swap1\n      pop\n      jump\t// out\n        /* \"#utility.yul\":8445:8611   */\n    tag_106:\n        /* \"#utility.yul\":8585:8603   */\n      0x6576656e74206973206578706972656400000000000000000000000000000000\n        /* \"#utility.yul\":8581:8582   */\n      0x00\n        /* \"#utility.yul\":8573:8579   */\n      dup3\n        /* \"#utility.yul\":8569:8583   */\n      add\n        /* \"#utility.yul\":8562:8604   */\n      mstore\n        /* \"#utility.yul\":8445:8611   */\n      pop\n      jump\t// out\n        /* \"#utility.yul\":8617:8983   */\n    tag_107:\n        /* \"#utility.yul\":8759:8762   */\n      0x00\n        /* \"#utility.yul\":8780:8847   */\n      tag_227\n        /* \"#utility.yul\":8844:8846   */\n      0x10\n        /* \"#utility.yul\":8839:8842   */\n      dup4\n        /* \"#utility.yul\":8780:8847   */\n      tag_101\n      jump\t// in\n    tag_227:\n        /* \"#utility.yul\":8773:8847   */\n      swap2\n      pop\n        /* \"#utility.yul\":8856:8949   */\n      tag_228\n        /* \"#utility.yul\":8945:8948   */\n      dup3\n        /* \"#utility.yul\":8856:8949   */\n      tag_106\n      jump\t// in\n    tag_228:\n        /* \"#utility.yul\":8974:8976   */\n      0x20\n        /* \"#utility.yul\":8969:8972   */\n      dup3\n        /* \"#utility.yul\":8965:8977   */\n      add\n        /* \"#utility.yul\":8958:8977   */\n      swap1\n      pop\n        /* \"#utility.yul\":8617:8983   */\n      swap2\n      swap1\n      pop\n      jump\t// out\n        /* \"#utility.yul\":8989:9408   */\n    tag_43:\n        /* \"#utility.yul\":9155:9159   */\n      0x00\n        /* \"#utility.yul\":9193:9195   */\n      0x20\n        /* \"#utility.yul\":9182:9191   */\n      dup3\n        /* \"#utility.yul\":9178:9196   */\n      add\n        /* \"#utility.yul\":9170:9196   */\n      swap1\n      pop\n        /* \"#utility.yul\":9242:9251   */\n      dup2\n        /* \"#utility.yul\":9236:9240   */\n      dup2\n        /* \"#utility.yul\":9232:9252   */\n      sub\n        /* \"#utility.yul\":9228:9229   */\n      0x00\n        /* \"#utility.yul\":9217:9226   */\n      dup4\n        /* \"#utility.yul\":9213:9230   */\n      add\n        /* \"#utility.yul\":9206:9253   */\n      mstore\n        /* \"#utility.yul\":9270:9401   */\n      tag_230\n        /* \"#utility.yul\":9396:9400   */\n      dup2\n        /* \"#utility.yul\":9270:9401   */\n      tag_107\n      jump\t// in\n    tag_230:\n        /* \"#utility.yul\":9262:9401   */\n      swap1\n      pop\n        /* \"#utility.yul\":8989:9408   */\n      swap2\n      swap1\n      pop\n      jump\t// out\n        /* \"#utility.yul\":9414:9594   */\n    tag_108:\n        /* \"#utility.yul\":9462:9539   */\n      0x4e487b7100000000000000000000000000000000000000000000000000000000\n        /* \"#utility.yul\":9459:9460   */\n      0x00\n        /* \"#utility.yul\":9452:9540   */\n      mstore\n        /* \"#utility.yul\":9559:9563   */\n      0x22\n        /* \"#utility.yul\":9556:9557   */\n      0x04\n        /* \"#utility.yul\":9549:9564   */\n      mstore\n        /* \"#utility.yul\":9583:9587   */\n      0x24\n        /* \"#utility.yul\":9580:9581   */\n      0x00\n        /* \"#utility.yul\":9573:9588   */\n      revert\n        /* \"#utility.yul\":9600:9920   */\n    tag_50:\n        /* \"#utility.yul\":9644:9650   */\n      0x00\n        /* \"#utility.yul\":9681:9682   */\n      0x02\n        /* \"#utility.yul\":9675:9679   */\n      dup3\n        /* \"#utility.yul\":9671:9683   */\n      div\n        /* \"#utility.yul\":9661:9683   */\n      swap1\n      pop\n        /* \"#utility.yul\":9728:9729   */\n      0x01\n        /* \"#utility.yul\":9722:9726   */\n      dup3\n        /* \"#utility.yul\":9718:9730   */\n      and\n        /* \"#utility.yul\":9749:9767   */\n      dup1\n        /* \"#utility.yul\":9739:9820   */\n      tag_233\n      jumpi\n        /* \"#utility.yul\":9805:9809   */\n      0x7f\n        /* \"#utility.yul\":9797:9803   */\n      dup3\n        /* \"#utility.yul\":9793:9810   */\n      and\n        /* \"#utility.yul\":9783:9810   */\n      swap2\n      pop\n        /* \"#utility.yul\":9739:9820   */\n    tag_233:\n        /* \"#utility.yul\":9867:9869   */\n      0x20\n        /* \"#utility.yul\":9859:9865   */\n      dup3\n        /* \"#utility.yul\":9856:9870   */\n      lt\n        /* \"#utility.yul\":9836:9854   */\n      dup2\n        /* \"#utility.yul\":9833:9871   */\n      sub\n        /* \"#utility.yul\":9830:9914   */\n      tag_234\n      jumpi\n        /* \"#utility.yul\":9886:9904   */\n      tag_235\n      tag_108\n      jump\t// in\n    tag_235:\n        /* \"#utility.yul\":9830:9914   */\n    tag_234:\n        /* \"#utility.yul\":9651:9920   */\n      pop\n        /* \"#utility.yul\":9600:9920   */\n      swap2\n      swap1\n      pop\n      jump\t// out\n        /* \"#utility.yul\":9926:10067   */\n    tag_109:\n        /* \"#utility.yul\":9975:9979   */\n      0x00\n        /* \"#utility.yul\":9998:10001   */\n      dup2\n        /* \"#utility.yul\":9990:10001   */\n      swap1\n      pop\n        /* \"#utility.yul\":10021:10024   */\n      dup2\n        /* \"#utility.yul\":10018:10019   */\n      0x00\n        /* \"#utility.yul\":10011:10025   */\n      mstore\n        /* \"#utility.yul\":10055:10059   */\n      0x20\n        /* \"#utility.yul\":10052:10053   */\n      0x00\n        /* \"#utility.yul\":10042:10060   */\n      keccak256\n        /* \"#utility.yul\":10034:10060   */\n      swap1\n      pop\n        /* \"#utility.yul\":9926:10067   */\n      swap2\n      swap1\n      pop\n      jump\t// out\n        /* \"#utility.yul\":10073:10166   */\n    tag_110:\n        /* \"#utility.yul\":10110:10116   */\n      0x00\n        /* \"#utility.yul\":10157:10159   */\n      0x20\n        /* \"#utility.yul\":10152:10154   */\n      0x1f\n        /* \"#utility.yul\":10145:10150   */\n      dup4\n        /* \"#utility.yul\":10141:10155   */\n      add\n        /* \"#utility.yul\":10137:10160   */\n      div\n        /* \"#utility.yul\":10127:10160   */\n      swap1\n      pop\n        /* \"#utility.yul\":10073:10166   */\n      swap2\n      swap1\n      pop\n      jump\t// out\n        /* \"#utility.yul\":10172:10279   */\n    tag_111:\n        /* \"#utility.yul\":10216:10224   */\n      0x00\n        /* \"#utility.yul\":10266:10271   */\n      dup3\n        /* \"#utility.yul\":10260:10264   */\n      dup3\n        /* \"#utility.yul\":10256:10272   */\n      shl\n        /* \"#utility.yul\":10235:10272   */\n      swap1\n      pop\n        /* \"#utility.yul\":10172:10279   */\n      swap3\n      swap2\n      pop\n      pop\n      jump\t// out\n        /* \"#utility.yul\":10285:10678   */\n    tag_112:\n        /* \"#utility.yul\":10354:10360   */\n      0x00\n        /* \"#utility.yul\":10404:10405   */\n      0x08\n        /* \"#utility.yul\":10392:10402   */\n      dup4\n        /* \"#utility.yul\":10388:10406   */\n      mul\n        /* \"#utility.yul\":10427:10524   */\n      tag_240\n        /* \"#utility.yul\":10457:10523   */\n      0xffffffffffffffffffffffffffffffffffffffffffffffffffffffffffffffff\n        /* \"#utility.yul\":10446:10455   */\n      dup3\n        /* \"#utility.yul\":10427:10524   */\n      tag_111\n      jump\t// in\n    tag_240:\n        /* \"#utility.yul\":10545:10584   */\n      tag_241\n        /* \"#utility.yul\":10575:10583   */\n      dup7\n        /* \"#utility.yul\":10564:10573   */\n      dup4\n        /* \"#utility.yul\":10545:10584   */\n      tag_111\n      jump\t// in\n    tag_241:\n        /* \"#utility.yul\":10533:10584   */\n      swap6\n      pop\n        /* \"#utility.yul\":10617:10621   */\n      dup1\n        /* \"#utility.yul\":10613:10622   */\n      not\n        /* \"#utility.yul\":10606:10611   */\n      dup5\n        /* \"#utility.yul\":10602:10623   */\n      and\n        /* \"#utility.yul\":10593:10623   */\n      swap4\n      pop\n        /* \"#utility.yul\":10666:10670   */\n      dup1\n        /* \"#utility.yul\":10656:10664   */\n      dup7\n        /* \"#utility.yul\":10652:10671   */\n      and\n        /* \"#utility.yul\":10645:10650   */\n      dup5\n        /* \"#utility.yul\":10642:10672   */\n      or\n        /* \"#utility.yul\":10632:10672   */\n      swap3\n      pop\n        /* \"#utility.yul\":10361:10678   */\n      pop\n      pop\n        /* \"#utility.yul\":10285:10678   */\n      swap4\n      swap3\n      pop\n      pop\n      pop\n      jump\t// out\n        /* \"#utility.yul\":10684:10744   */\n    tag_113:\n        /* \"#utility.yul\":10712:10715   */\n      0x00\n        /* \"#utility.yul\":10733:10738   */\n      dup2\n        /* \"#utility.yul\":10726:10738   */\n      swap1\n      pop\n        /* \"#utility.yul\":10684:10744   */\n      swap2\n      swap1\n      pop\n      jump\t// out\n        /* \"#utility.yul\":10750:10892   */\n    tag_114:\n        /* \"#utility.yul\":10800:10809   */\n      0x00\n        /* \"#utility.yul\":10833:10886   */\n      tag_244\n        /* \"#utility.yul\":10851:10885   */\n      tag_245\n        /* \"#utility.yul\":10860:10884   */\n      tag_246\n        /* \"#utility.yul\":10878:10883   */\n      dup5\n        /* \"#utility.yul\":10860:10884   */\n      tag_93\n      jump\t// in\n    tag_246:\n        /* \"#utility.yul\":10851:10885   */\n      tag_113\n      jump\t// in\n    tag_245:\n        /* \"#utility.yul\":10833:10886   */\n      tag_93\n      jump\t// in\n    tag_244:\n        /* \"#utility.yul\":10820:10886   */\n      swap1\n      pop\n        /* \"#utility.yul\":10750:10892   */\n      swap2\n      swap1\n      pop\n      jump\t// out\n        /* \"#utility.yul\":10898:10973   */\n    tag_115:\n        /* \"#utility.yul\":10941:10944   */\n      0x00\n        /* \"#utility.yul\":10962:10967   */\n      dup2\n        /* \"#utility.yul\":10955:10967   */\n      swap1\n      pop\n        /* \"#utility.yul\":10898:10973   */\n      swap2\n      swap1\n      pop\n      jump\t// out\n        /* \"#utility.yul\":10979:11248   */\n    tag_116:\n        /* \"#utility.yul\":11089:11128   */\n      tag_249\n        /* \"#utility.yul\":11120:11127   */\n      dup4\n        /* \"#utility.yul\":11089:11128   */\n      tag_114\n      jump\t// in\n    tag_249:\n        /* \"#utility.yul\":11150:11241   */\n      tag_250\n        /* \"#utility.yul\":11199:11240   */\n      tag_251\n        /* \"#utility.yul\":11223:11239   */\n      dup3\n        /* \"#utility.yul\":11199:11240   */\n      tag_115\n      jump\t// in\n    tag_251:\n        /* \"#utility.yul\":11191:11197   */\n      dup5\n        /* \"#utility.yul\":11184:11188   */\n      dup5\n        /* \"#utility.yul\":11178:11189   */\n      sload\n        /* \"#utility.yul\":11150:11241   */\n      tag_112\n      jump\t// in\n    tag_250:\n        /* \"#utility.yul\":11144:11148   */\n      dup3\n        /* \"#utility.yul\":11137:11242   */\n      sstore\n        /* \"#utility.yul\":11055:11248   */\n      pop\n        /* \"#utility.yul\":10979:11248   */\n      pop\n      pop\n      pop\n      jump\t// out\n        /* \"#utility.yul\":11254:11327   */\n    tag_117:\n        /* \"#utility.yul\":11299:11302   */\n      0x00\n        /* \"#utility.yul\":11254:11327   */\n      swap1\n      jump\t// out\n        /* \"#utility.yul\":11333:11522   */\n    tag_118:\n        /* \"#utility.yul\":11410:11442   */\n      tag_254\n      tag_117\n      jump\t// in\n    tag_254:\n        /* \"#utility.yul\":11451:11516   */\n      tag_255\n        /* \"#utility.yul\":11509:11515   */\n      dup2\n        /* \"#utility.yul\":11501:11507   */\n      dup5\n        /* \"#utility.yul\":11495:11499   */\n      dup5\n        /* \"#utility.yul\":11451:11516   */\n      tag_116\n      jump\t// in\n    tag_255:\n        /* \"#utility.yul\":11386:11522   */\n      pop\n        /* \"#utility.yul\":11333:11522   */\n      pop\n      pop\n      jump\t// out\n        /* \"#utility.yul\":11528:11714   */\n    tag_119:\n        /* \"#utility.yul\":11588:11708   */\n    tag_257:\n        /* \"#utility.yul\":11605:11608   */\n      dup2\n        /* \"#utility.yul\":11598:11603   */\n      dup2\n        /* \"#utility.yul\":11595:11609   */\n      lt\n        /* \"#utility.yul\":11588:11708   */\n      iszero\n      tag_259\n      jumpi\n        /* \"#utility.yul\":11659:11698   */\n      tag_260\n        /* \"#utility.yul\":11696:11697   */\n      0x00\n        /* \"#utility.yul\":11689:11694   */\n      dup3\n        /* \"#utility.yul\":11659:11698   */\n      tag_118\n      jump\t// in\n    tag_260:\n        /* \"#utility.yul\":11632:11633   */\n      0x01\n        /* \"#utility.yul\":11625:11630   */\n      dup2\n        /* \"#utility.yul\":11621:11634   */\n      add\n        /* \"#utility.yul\":11612:11634   */\n      swap1\n      pop\n        /* \"#utility.yul\":11588:11708   */\n      jump(tag_257)\n    tag_259:\n        /* \"#utility.yul\":11528:11714   */\n      pop\n      pop\n      jump\t// out\n        /* \"#utility.yul\":11720:12263   */\n    tag_120:\n        /* \"#utility.yul\":11821:11823   */\n      0x1f\n        /* \"#utility.yul\":11816:11819   */\n      dup3\n        /* \"#utility.yul\":11813:11824   */\n      gt\n        /* \"#utility.yul\":11810:12256   */\n      iszero\n      tag_262\n      jumpi\n        /* \"#utility.yul\":11855:11893   */\n      tag_263\n        /* \"#utility.yul\":11887:11892   */\n      dup2\n        /* \"#utility.yul\":11855:11893   */\n      tag_109\n      jump\t// in\n    tag_263:\n        /* \"#utility.yul\":11939:11968   */\n      tag_264\n        /* \"#utility.yul\":11957:11967   */\n      dup5\n        /* \"#utility.yul\":11939:11968   */\n      tag_110\n      jump\t// in\n    tag_264:\n        /* \"#utility.yul\":11929:11937   */\n      dup2\n        /* \"#utility.yul\":11925:11969   */\n      add\n        /* \"#utility.yul\":12122:12124   */\n      0x20\n        /* \"#utility.yul\":12110:12120   */\n      dup6\n        /* \"#utility.yul\":12107:12125   */\n      lt\n        /* \"#utility.yul\":12104:12153   */\n      iszero\n      tag_265\n      jumpi\n        /* \"#utility.yul\":12143:12151   */\n      dup2\n        /* \"#utility.yul\":12128:12151   */\n      swap1\n      pop\n        /* \"#utility.yul\":12104:12153   */\n    tag_265:\n        /* \"#utility.yul\":12166:12246   */\n      tag_266\n        /* \"#utility.yul\":12222:12244   */\n      tag_267\n        /* \"#utility.yul\":12240:12243   */\n      dup6\n        /* \"#utility.yul\":12222:12244   */\n      tag_110\n      jump\t// in\n    tag_267:\n        /* \"#utility.yul\":12212:12220   */\n      dup4\n        /* \"#utility.yul\":12208:12245   */\n      add\n        /* \"#utility.yul\":12195:12206   */\n      dup3\n        /* \"#utility.yul\":12166:12246   */\n      tag_119\n      jump\t// in\n    tag_266:\n        /* \"#utility.yul\":11825:12256   */\n      pop\n      pop\n        /* \"#utility.yul\":11810:12256   */\n    tag_262:\n        /* \"#utility.yul\":11720:12263   */\n      pop\n      pop\n      pop\n      jump\t// out\n        /* \"#utility.yul\":12269:12386   */\n    tag_121:\n        /* \"#utility.yul\":12323:12331   */\n      0x00\n        /* \"#utility.yul\":12373:12378   */\n      dup3\n        /* \"#utility.yul\":12367:12371   */\n      dup3\n        /* \"#utility.yul\":12363:12379   */\n      shr\n        /* \"#utility.yul\":12342:12379   */\n      swap1\n      pop\n        /* \"#utility.yul\":12269:12386   */\n      swap3\n      swap2\n      pop\n      pop\n      jump\t// out\n        /* \"#utility.yul\":12392:12561   */\n    tag_122:\n        /* \"#utility.yul\":12436:12442   */\n      0x00\n        /* \"#utility.yul\":12469:12520   */\n      tag_270\n        /* \"#utility.yul\":12517:12518   */\n      0x00\n        /* \"#utility.yul\":12513:12519   */\n      not\n        /* \"#utility.yul\":12505:12510   */\n      dup5\n        /* \"#utility.yul\":12502:12503   */\n      0x08\n        /* \"#utility.yul\":12498:12511   */\n      mul\n        /* \"#utility.yul\":12469:12520   */\n      tag_121\n      jump\t// in\n    tag_270:\n        /* \"#utility.yul\":12465:12521   */\n      not\n        /* \"#utility.yul\":12550:12554   */\n      dup1\n        /* \"#utility.yul\":12544:12548   */\n      dup4\n        /* \"#utility.yul\":12540:12555   */\n      and\n        /* \"#utility.yul\":12530:12555   */\n      swap2\n      pop\n        /* \"#utility.yul\":12443:12561   */\n      pop\n        /* \"#utility.yul\":12392:12561   */\n      swap3\n      swap2\n      pop\n      pop\n      jump\t// out\n        /* \"#utility.yul\":12566:12861   */\n    tag_123:\n        /* \"#utility.yul\":12642:12646   */\n      0x00\n        /* \"#utility.yul\":12788:12817   */\n      tag_272\n        /* \"#utility.yul\":12813:12816   */\n      dup4\n        /* \"#utility.yul\":12807:12811   */\n      dup4\n        /* \"#utility.yul\":12788:12817   */\n      tag_122\n      jump\t// in\n    tag_272:\n        /* \"#utility.yul\":12780:12817   */\n      swap2\n      pop\n        /* \"#utility.yul\":12850:12853   */\n      dup3\n        /* \"#utility.yul\":12847:12848   */\n      0x02\n        /* \"#utility.yul\":12843:12854   */\n      mul\n        /* \"#utility.yul\":12837:12841   */\n      dup3\n        /* \"#utility.yul\":12834:12855   */\n      or\n        /* \"#utility.yul\":12826:12855   */\n      swap1\n      pop\n        /* \"#utility.yul\":12566:12861   */\n      swap3\n      swap2\n      pop\n      pop\n      jump\t// out\n        /* \"#utility.yul\":12866:14261   */\n    tag_46:\n        /* \"#utility.yul\":12983:13020   */\n      tag_274\n        /* \"#utility.yul\":13016:13019   */\n      dup3\n        /* \"#utility.yul\":12983:13020   */\n      tag_100\n      jump\t// in\n    tag_274:\n        /* \"#utility.yul\":13085:13103   */\n      0xffffffffffffffff\n        /* \"#utility.yul\":13077:13083   */\n      dup2\n        /* \"#utility.yul\":13074:13104   */\n      gt\n        /* \"#utility.yul\":13071:13127   */\n      iszero\n      tag_275\n      jumpi\n        /* \"#utility.yul\":13107:13125   */\n      tag_276\n      tag_86\n      jump\t// in\n    tag_276:\n        /* \"#utility.yul\":13071:13127   */\n    tag_275:\n        /* \"#utility.yul\":13151:13189   */\n      tag_277\n        /* \"#utility.yul\":13183:13187   */\n      dup3\n        /* \"#utility.yul\":13177:13188   */\n      sload\n        /* \"#utility.yul\":13151:13189   */\n      tag_50\n      jump\t// in\n    tag_277:\n        /* \"#utility.yul\":13236:13303   */\n      tag_278\n        /* \"#utility.yul\":13296:13302   */\n      dup3\n        /* \"#utility.yul\":13288:13294   */\n      dup3\n        /* \"#utility.yul\":13282:13286   */\n      dup6\n        /* \"#utility.yul\":13236:13303   */\n      tag_120\n      jump\t// in\n    tag_278:\n        /* \"#utility.yul\":13330:13331   */\n      0x00\n        /* \"#utility.yul\":13354:13358   */\n      0x20\n        /* \"#utility.yul\":13341:13358   */\n      swap1\n      pop\n        /* \"#utility.yul\":13386:13388   */\n      0x1f\n        /* \"#utility.yul\":13378:13384   */\n      dup4\n        /* \"#utility.yul\":13375:13389   */\n      gt\n        /* \"#utility.yul\":13403:13404   */\n      0x01\n        /* \"#utility.yul\":13398:14016   */\n      dup2\n      eq\n      tag_280\n      jumpi\n        /* \"#utility.yul\":14060:14061   */\n      0x00\n        /* \"#utility.yul\":14077:14083   */\n      dup5\n        /* \"#utility.yul\":14074:14151   */\n      iszero\n      tag_281\n      jumpi\n        /* \"#utility.yul\":14126:14135   */\n      dup3\n        /* \"#utility.yul\":14121:14124   */\n      dup8\n        /* \"#utility.yul\":14117:14136   */\n      add\n        /* \"#utility.yul\":14111:14137   */\n      mload\n        /* \"#utility.yul\":14102:14137   */\n      swap1\n      pop\n        /* \"#utility.yul\":14074:14151   */\n    tag_281:\n        /* \"#utility.yul\":14177:14244   */\n      tag_282\n        /* \"#utility.yul\":14237:14243   */\n      dup6\n        /* \"#utility.yul\":14230:14235   */\n      dup3\n        /* \"#utility.yul\":14177:14244   */\n      tag_123\n      jump\t// in\n    tag_282:\n        /* \"#utility.yul\":14171:14175   */\n      dup7\n        /* \"#utility.yul\":14164:14245   */\n      sstore\n        /* \"#utility.yul\":14033:14255   */\n      pop\n        /* \"#utility.yul\":13368:14255   */\n      jump(tag_279)\n        /* \"#utility.yul\":13398:14016   */\n    tag_280:\n        /* \"#utility.yul\":13450:13454   */\n      0x1f\n        /* \"#utility.yul\":13446:13455   */\n      not\n        /* \"#utility.yul\":13438:13444   */\n      dup5\n        /* \"#utility.yul\":13434:13456   */\n      and\n        /* \"#utility.yul\":13484:13521   */\n      tag_283\n        /* \"#utility.yul\":13516:13520   */\n      dup7\n        /* \"#utility.yul\":13484:13521   */\n      tag_109\n      jump\t// in\n    tag_283:\n        /* \"#utility.yul\":13543:13544   */\n      0x00\n        /* \"#utility.yul\":13557:13765   */\n    tag_284:\n        /* \"#utility.yul\":13571:13578   */\n      dup3\n        /* \"#utility.yul\":13568:13569   */\n      dup2\n        /* \"#utility.yul\":13565:13579   */\n      lt\n        /* \"#utility.yul\":13557:13765   */\n      iszero\n      tag_286\n      jumpi\n        /* \"#utility.yul\":13650:13659   */\n      dup5\n        /* \"#utility.yul\":13645:13648   */\n      dup10\n        /* \"#utility.yul\":13641:13660   */\n      add\n        /* \"#utility.yul\":13635:13661   */\n      mload\n        /* \"#utility.yul\":13627:13633   */\n      dup3\n        /* \"#utility.yul\":13620:13662   */\n      sstore\n        /* \"#utility.yul\":13701:13702   */\n      0x01\n        /* \"#utility.yul\":13693:13699   */\n      dup3\n        /* \"#utility.yul\":13689:13703   */\n      add\n        /* \"#utility.yul\":13679:13703   */\n      swap2\n      pop\n        /* \"#utility.yul\":13748:13750   */\n      0x20\n        /* \"#utility.yul\":13737:13746   */\n      dup6\n        /* \"#utility.yul\":13733:13751   */\n      add\n        /* \"#utility.yul\":13720:13751   */\n      swap5\n      pop\n        /* \"#utility.yul\":13594:13598   */\n      0x20\n        /* \"#utility.yul\":13591:13592   */\n      dup2\n        /* \"#utility.yul\":13587:13599   */\n      add\n        /* \"#utility.yul\":13582:13599   */\n      swap1\n      pop\n        /* \"#utility.yul\":13557:13765   */\n      jump(tag_284)\n    tag_286:\n        /* \"#utility.yul\":13793:13799   */\n      dup7\n        /* \"#utility.yul\":13784:13791   */\n      dup4\n        /* \"#utility.yul\":13781:13800   */\n      lt\n        /* \"#utility.yul\":13778:13957   */\n      iszero\n      tag_287\n      jumpi\n        /* \"#utility.yul\":13851:13860   */\n      dup5\n        /* \"#utility.yul\":13846:13849   */\n      dup10\n        /* \"#utility.yul\":13842:13861   */\n      add\n        /* \"#utility.yul\":13836:13862   */\n      mload\n        /* \"#utility.yul\":13894:13942   */\n      tag_288\n        /* \"#utility.yul\":13936:13940   */\n      0x1f\n        /* \"#utility.yul\":13928:13934   */\n      dup10\n        /* \"#utility.yul\":13924:13941   */\n      and\n        /* \"#utility.yul\":13913:13922   */\n      dup3\n        /* \"#utility.yul\":13894:13942   */\n      tag_122\n      jump\t// in\n    tag_288:\n        /* \"#utility.yul\":13886:13892   */\n      dup4\n        /* \"#utility.yul\":13879:13943   */\n      sstore\n        /* \"#utility.yul\":13801:13957   */\n      pop\n        /* \"#utility.yul\":13778:13957   */\n    tag_287:\n        /* \"#utility.yul\":14003:14004   */\n      0x01\n        /* \"#utility.yul\":13999:14000   */\n      0x02\n        /* \"#utility.yul\":13991:13997   */\n      dup9\n        /* \"#utility.yul\":13987:14001   */\n      mul\n        /* \"#utility.yul\":13983:14005   */\n      add\n        /* \"#utility.yul\":13977:13981   */\n      dup9\n        /* \"#utility.yul\":13970:14006   */\n      sstore\n        /* \"#utility.yul\":13405:14016   */\n      pop\n      pop\n      pop\n        /* \"#utility.yul\":13368:14255   */\n    tag_279:\n      pop\n        /* \"#utility.yul\":12958:14261   */\n      pop\n      pop\n      pop\n        /* \"#utility.yul\":12866:14261   */\n      pop\n      pop\n      jump\t// out\n        /* \"#utility.yul\":14267:14447   */\n    tag_124:\n        /* \"#utility.yul\":14315:14392   */\n      0x4e487b7100000000000000000000000000000000000000000000000000000000\n        /* \"#utility.yul\":14312:14313   */\n      0x00\n        /* \"#utility.yul\":14305:14393   */\n      mstore\n        /* \"#utility.yul\":14412:14416   */\n      0x11\n        /* \"#utility.yul\":14409:14410   */\n      0x04\n        /* \"#utility.yul\":14402:14417   */\n      mstore\n        /* \"#utility.yul\":14436:14440   */\n      0x24\n        /* \"#utility.yul\":14433:14434   */\n      0x00\n        /* \"#utility.yul\":14426:14441   */\n      revert\n        /* \"#utility.yul\":14453:14686   */\n    tag_48:\n        /* \"#utility.yul\":14492:14495   */\n      0x00\n        /* \"#utility.yul\":14515:14539   */\n      tag_291\n        /* \"#utility.yul\":14533:14538   */\n      dup3\n        /* \"#utility.yul\":14515:14539   */\n      tag_93\n      jump\t// in\n    tag_291:\n        /* \"#utility.yul\":14506:14539   */\n      swap2\n      pop\n        /* \"#utility.yul\":14561:14627   */\n      0xffffffffffffffffffffffffffffffffffffffffffffffffffffffffffffffff\n        /* \"#utility.yul\":14554:14559   */\n      dup3\n        /* \"#utility.yul\":14551:14628   */\n      sub\n        /* \"#utility.yul\":14548:14651   */\n      tag_292\n      jumpi\n        /* \"#utility.yul\":14631:14649   */\n      tag_293\n      tag_124\n      jump\t// in\n    tag_293:\n        /* \"#utility.yul\":14548:14651   */\n    tag_292:\n        /* \"#utility.yul\":14678:14679   */\n      0x01\n        /* \"#utility.yul\":14671:14676   */\n      dup3\n        /* \"#utility.yul\":14667:14680   */\n      add\n        /* \"#utility.yul\":14660:14680   */\n      swap1\n      pop\n        /* \"#utility.yul\":14453:14686   */\n      swap2\n      swap1\n      pop\n      jump\t// out\n        /* \"#utility.yul\":14692:14858   */\n    tag_125:\n        /* \"#utility.yul\":14832:14850   */\n      0x6576656e74206e6f742065786973747300000000000000000000000000000000\n        /* \"#utility.yul\":14828:14829   */\n      0x00\n        /* \"#utility.yul\":14820:14826   */\n      dup3\n        /* \"#utility.yul\":14816:14830   */\n      add\n        /* \"#utility.yul\":14809:14851   */\n      mstore\n        /* \"#utility.yul\":14692:14858   */\n      pop\n      jump\t// out\n        /* \"#utility.yul\":14864:15230   */\n    tag_126:\n        /* \"#utility.yul\":15006:15009   */\n      0x00\n        /* \"#utility.yul\":15027:15094   */\n      tag_296\n        /* \"#utility.yul\":15091:15093   */\n      0x10\n        /* \"#utility.yul\":15086:15089   */\n      dup4\n        /* \"#utility.yul\":15027:15094   */\n      tag_101\n      jump\t// in\n    tag_296:\n        /* \"#utility.yul\":15020:15094   */\n      swap2\n      pop\n        /* \"#utility.yul\":15103:15196   */\n      tag_297\n        /* \"#utility.yul\":15192:15195   */\n      dup3\n        /* \"#utility.yul\":15103:15196   */\n      tag_125\n      jump\t// in\n    tag_297:\n        /* \"#utility.yul\":15221:15223   */\n      0x20\n        /* \"#utility.yul\":15216:15219   */\n      dup3\n        /* \"#utility.yul\":15212:15224   */\n      add\n        /* \"#utility.yul\":15205:15224   */\n      swap1\n      pop\n        /* \"#utility.yul\":14864:15230   */\n      swap2\n      swap1\n      pop\n      jump\t// out\n        /* \"#utility.yul\":15236:15655   */\n    tag_58:\n        /* \"#utility.yul\":15402:15406   */\n      0x00\n        /* \"#utility.yul\":15440:15442   */\n      0x20\n        /* \"#utility.yul\":15429:15438   */\n      dup3\n        /* \"#utility.yul\":15425:15443   */\n      add\n        /* \"#utility.yul\":15417:15443   */\n      swap1\n      pop\n        /* \"#utility.yul\":15489:15498   */\n      dup2\n        /* \"#utility.yul\":15483:15487   */\n      dup2\n        /* \"#utility.yul\":15479:15499   */\n      sub\n        /* \"#utility.yul\":15475:15476   */\n      0x00\n        /* \"#utility.yul\":15464:15473   */\n      dup4\n        /* \"#utility.yul\":15460:15477   */\n      add\n        /* \"#utility.yul\":15453:15500   */\n      mstore\n        /* \"#utility.yul\":15517:15648   */\n      tag_299\n        /* \"#utility.yul\":15643:15647   */\n      dup2\n        /* \"#utility.yul\":15517:15648   */\n      tag_126\n      jump\t// in\n    tag_299:\n        /* \"#utility.yul\":15509:15648   */\n      swap1\n      pop\n        /* \"#utility.yul\":15236:15655   */\n      swap2\n      swap1\n      pop\n      jump\t// out\n        /* \"#utility.yul\":15661:15826   */\n    tag_127:\n        /* \"#utility.yul\":15801:15818   */\n      0x6576656e742068617320656e6465640000000000000000000000000000000000\n        /* \"#utility.yul\":15797:15798   */\n      0x00\n        /* \"#utility.yul\":15789:15795   */\n      dup3\n        /* \"#utility.yul\":15785:15799   */\n      add\n        /* \"#utility.yul\":15778:15819   */\n      mstore\n        /* \"#utility.yul\":15661:15826   */\n      pop\n      jump\t// out\n        /* \"#utility.yul\":15832:16198   */\n    tag_128:\n        /* \"#utility.yul\":15974:15977   */\n      0x00\n        /* \"#utility.yul\":15995:16062   */\n      tag_302\n        /* \"#utility.yul\":16059:16061   */\n      0x0f\n        /* \"#utility.yul\":16054:16057   */\n      dup4\n        /* \"#utility.yul\":15995:16062   */\n      tag_101\n      jump\t// in\n    tag_302:\n        /* \"#utility.yul\":15988:16062   */\n      swap2\n      pop\n        /* \"#utility.yul\":16071:16164   */\n      tag_303\n        /* \"#utility.yul\":16160:16163   */\n      dup3\n        /* \"#utility.yul\":16071:16164   */\n      tag_127\n      jump\t// in\n    tag_303:\n        /* \"#utility.yul\":16189:16191   */\n      0x20\n        /* \"#utility.yul\":16184:16187   */\n      dup3\n        /* \"#utility.yul\":16180:16192   */\n      add\n        /* \"#utility.yul\":16173:16192   */\n      swap1\n      pop\n        /* \"#utility.yul\":15832:16198   */\n      swap2\n      swap1\n      pop\n      jump\t// out\n        /* \"#utility.yul\":16204:16623   */\n    tag_61:\n        /* \"#utility.yul\":16370:16374   */\n      0x00\n        /* \"#utility.yul\":16408:16410   */\n      0x20\n        /* \"#utility.yul\":16397:16406   */\n      dup3\n        /* \"#utility.yul\":16393:16411   */\n      add\n        /* \"#utility.yul\":16385:16411   */\n      swap1\n      pop\n        /* \"#utility.yul\":16457:16466   */\n      dup2\n        /* \"#utility.yul\":16451:16455   */\n      dup2\n        /* \"#utility.yul\":16447:16467   */\n      sub\n        /* \"#utility.yul\":16443:16444   */\n      0x00\n        /* \"#utility.yul\":16432:16441   */\n      dup4\n        /* \"#utility.yul\":16428:16445   */\n      add\n        /* \"#utility.yul\":16421:16468   */\n      mstore\n        /* \"#utility.yul\":16485:16616   */\n      tag_305\n        /* \"#utility.yul\":16611:16615   */\n      dup2\n        /* \"#utility.yul\":16485:16616   */\n      tag_128\n      jump\t// in\n    tag_305:\n        /* \"#utility.yul\":16477:16616   */\n      swap1\n      pop\n        /* \"#utility.yul\":16204:16623   */\n      swap2\n      swap1\n      pop\n      jump\t// out\n        /* \"#utility.yul\":16629:16796   */\n    tag_129:\n        /* \"#utility.yul\":16769:16788   */\n      0x6e6f7420656e6f756768207469636b6574000000000000000000000000000000\n        /* \"#utility.yul\":16765:16766   */\n      0x00\n        /* \"#utility.yul\":16757:16763   */\n      dup3\n        /* \"#utility.yul\":16753:16767   */\n      add\n        /* \"#utility.yul\":16746:16789   */\n      mstore\n        /* \"#utility.yul\":16629:16796   */\n      pop\n      jump\t// out\n        /* \"#utility.yul\":16802:17168   */\n    tag_130:\n        /* \"#utility.yul\":16944:16947   */\n      0x00\n        /* \"#utility.yul\":16965:17032   */\n      tag_308\n        /* \"#utility.yul\":17029:17031   */\n      0x11\n        /* \"#utility.yul\":17024:17027   */\n      dup4\n        /* \"#utility.yul\":16965:17032   */\n      tag_101\n      jump\t// in\n    tag_308:\n        /* \"#utility.yul\":16958:17032   */\n      swap2\n      pop\n        /* \"#utility.yul\":17041:17134   */\n      tag_309\n        /* \"#utility.yul\":17130:17133   */\n      dup3\n        /* \"#utility.yul\":17041:17134   */\n      tag_129\n      jump\t// in\n    tag_309:\n        /* \"#utility.yul\":17159:17161   */\n      0x20\n        /* \"#utility.yul\":17154:17157   */\n      dup3\n        /* \"#utility.yul\":17150:17162   */\n      add\n        /* \"#utility.yul\":17143:17162   */\n      swap1\n      pop\n        /* \"#utility.yul\":16802:17168   */\n      swap2\n      swap1\n      pop\n      jump\t// out\n        /* \"#utility.yul\":17174:17593   */\n    tag_64:\n        /* \"#utility.yul\":17340:17344   */\n      0x00\n        /* \"#utility.yul\":17378:17380   */\n      0x20\n        /* \"#utility.yul\":17367:17376   */\n      dup3\n        /* \"#utility.yul\":17363:17381   */\n      add\n        /* \"#utility.yul\":17355:17381   */\n      swap1\n      pop\n        /* \"#utility.yul\":17427:17436   */\n      dup2\n        /* \"#utility.yul\":17421:17425   */\n      dup2\n        /* \"#utility.yul\":17417:17437   */\n      sub\n        /* \"#utility.yul\":17413:17414   */\n      0x00\n        /* \"#utility.yul\":17402:17411   */\n      dup4\n        /* \"#utility.yul\":17398:17415   */\n      add\n        /* \"#utility.yul\":17391:17438   */\n      mstore\n        /* \"#utility.yul\":17455:17586   */\n      tag_311\n        /* \"#utility.yul\":17581:17585   */\n      dup2\n        /* \"#utility.yul\":17455:17586   */\n      tag_130\n      jump\t// in\n    tag_311:\n        /* \"#utility.yul\":17447:17586   */\n      swap1\n      pop\n        /* \"#utility.yul\":17174:17593   */\n      swap2\n      swap1\n      pop\n      jump\t// out\n        /* \"#utility.yul\":17599:17793   */\n    tag_66:\n        /* \"#utility.yul\":17639:17643   */\n      0x00\n        /* \"#utility.yul\":17659:17679   */\n      tag_313\n        /* \"#utility.yul\":17677:17678   */\n      dup3\n        /* \"#utility.yul\":17659:17679   */\n      tag_93\n      jump\t// in\n    tag_313:\n        /* \"#utility.yul\":17654:17679   */\n      swap2\n      pop\n        /* \"#utility.yul\":17693:17713   */\n      tag_314\n        /* \"#utility.yul\":17711:17712   */\n      dup4\n        /* \"#utility.yul\":17693:17713   */\n      tag_93\n      jump\t// in\n    tag_314:\n        /* \"#utility.yul\":17688:17713   */\n      swap3\n      pop\n        /* \"#utility.yul\":17737:17738   */\n      dup3\n        /* \"#utility.yul\":17734:17735   */\n      dup3\n        /* \"#utility.yul\":17730:17739   */\n      sub\n        /* \"#utility.yul\":17722:17739   */\n      swap1\n      pop\n        /* \"#utility.yul\":17761:17762   */\n      dup2\n        /* \"#utility.yul\":17755:17759   */\n      dup2\n        /* \"#utility.yul\":17752:17763   */\n      gt\n        /* \"#utility.yul\":17749:17786   */\n      iszero\n      tag_315\n      jumpi\n        /* \"#utility.yul\":17766:17784   */\n      tag_316\n      tag_124\n      jump\t// in\n    tag_316:\n        /* \"#utility.yul\":17749:17786   */\n    tag_315:\n        /* \"#utility.yul\":17599:17793   */\n      swap3\n      swap2\n      pop\n      pop\n      jump\t// out\n        /* \"#utility.yul\":17799:17990   */\n    tag_68:\n        /* \"#utility.yul\":17839:17842   */\n      0x00\n        /* \"#utility.yul\":17858:17878   */\n      tag_318\n        /* \"#utility.yul\":17876:17877   */\n      dup3\n        /* \"#utility.yul\":17858:17878   */\n      tag_93\n      jump\t// in\n    tag_318:\n        /* \"#utility.yul\":17853:17878   */\n      swap2\n      pop\n        /* \"#utility.yul\":17892:17912   */\n      tag_319\n        /* \"#utility.yul\":17910:17911   */\n      dup4\n        /* \"#utility.yul\":17892:17912   */\n      tag_93\n      jump\t// in\n    tag_319:\n        /* \"#utility.yul\":17887:17912   */\n      swap3\n      pop\n        /* \"#utility.yul\":17935:17936   */\n      dup3\n        /* \"#utility.yul\":17932:17933   */\n      dup3\n        /* \"#utility.yul\":17928:17937   */\n      add\n        /* \"#utility.yul\":17921:17937   */\n      swap1\n      pop\n        /* \"#utility.yul\":17956:17959   */\n      dup1\n        /* \"#utility.yul\":17953:17954   */\n      dup3\n        /* \"#utility.yul\":17950:17960   */\n      gt\n        /* \"#utility.yul\":17947:17983   */\n      iszero\n      tag_320\n      jumpi\n        /* \"#utility.yul\":17963:17981   */\n      tag_321\n      tag_124\n      jump\t// in\n    tag_321:\n        /* \"#utility.yul\":17947:17983   */\n    tag_320:\n        /* \"#utility.yul\":17799:17990   */\n      swap3\n      swap2\n      pop\n      pop\n      jump\t// out\n        /* \"#utility.yul\":17996:18406   */\n    tag_75:\n        /* \"#utility.yul\":18036:18043   */\n      0x00\n        /* \"#utility.yul\":18059:18079   */\n      tag_323\n        /* \"#utility.yul\":18077:18078   */\n      dup3\n        /* \"#utility.yul\":18059:18079   */\n      tag_93\n      jump\t// in\n    tag_323:\n        /* \"#utility.yul\":18054:18079   */\n      swap2\n      pop\n        /* \"#utility.yul\":18093:18113   */\n      tag_324\n        /* \"#utility.yul\":18111:18112   */\n      dup4\n        /* \"#utility.yul\":18093:18113   */\n      tag_93\n      jump\t// in\n    tag_324:\n        /* \"#utility.yul\":18088:18113   */\n      swap3\n      pop\n        /* \"#utility.yul\":18148:18149   */\n      dup3\n        /* \"#utility.yul\":18145:18146   */\n      dup3\n        /* \"#utility.yul\":18141:18150   */\n      mul\n        /* \"#utility.yul\":18170:18200   */\n      tag_325\n        /* \"#utility.yul\":18188:18199   */\n      dup2\n        /* \"#utility.yul\":18170:18200   */\n      tag_93\n      jump\t// in\n    tag_325:\n        /* \"#utility.yul\":18159:18200   */\n      swap2\n      pop\n        /* \"#utility.yul\":18349:18350   */\n      dup3\n        /* \"#utility.yul\":18340:18347   */\n      dup3\n        /* \"#utility.yul\":18336:18351   */\n      div\n        /* \"#utility.yul\":18333:18334   */\n      dup5\n        /* \"#utility.yul\":18330:18352   */\n      eq\n        /* \"#utility.yul\":18310:18311   */\n      dup4\n        /* \"#utility.yul\":18303:18312   */\n      iszero\n        /* \"#utility.yul\":18283:18366   */\n      or\n        /* \"#utility.yul\":18260:18399   */\n      tag_326\n      jumpi\n        /* \"#utility.yul\":18379:18397   */\n      tag_327\n      tag_124\n      jump\t// in\n    tag_327:\n        /* \"#utility.yul\":18260:18399   */\n    tag_326:\n        /* \"#utility.yul\":18044:18406   */\n      pop\n        /* \"#utility.yul\":17996:18406   */\n      swap3\n      swap2\n      pop\n      pop\n      jump\t// out\n\n    auxdata: 0xa26469706673582212207ba99fa76e89747fba4c02d4590d04c8978785698ea1bb7cd0f12cee4368eefb64736f6c63430008190033\n}\n",
				"bytecode": {
					"linkReferences": {},
					"object": "6080604052348015600e575f80fd5b5061113b8061001c5f395ff3fe608060405260043610610054575f3560e01c80633a0d3ab7146100585780635c29d40d146100805780635cf47e12146100aa5780637a5a2462146100eb578063d9e20b7c14610113578063dae7a13c1461012f575b5f80fd5b348015610063575f80fd5b5061007e600480360381019061007991906108b3565b61016b565b005b34801561008b575f80fd5b506100946102af565b6040516100a19190610942565b60405180910390f35b3480156100b5575f80fd5b506100d060048036038101906100cb919061095b565b6102b5565b6040516100e296959493929190610a25565b60405180910390f35b3480156100f6575f80fd5b50610111600480360381019061010c9190610ab5565b610391565b005b61012d60048036038101906101289190610b05565b610593565b005b34801561013a575f80fd5b5061015560048036038101906101509190610b43565b610713565b6040516101629190610942565b60405180910390f35b4282116101ad576040517f08c379a00000000000000000000000000000000000000000000000000000000081526004016101a490610bcb565b60405180910390fd5b5f81116101b8575f80fd5b6040518060c001604052803373ffffffffffffffffffffffffffffffffffffffff168152602001858152602001838152602001848152602001828152602001828152505f8060025481526020019081526020015f205f820151815f015f6101000a81548173ffffffffffffffffffffffffffffffffffffffff021916908373ffffffffffffffffffffffffffffffffffffffff16021790555060208201518160010190816102669190610de3565b5060408201518160020155606082015181600301556080820151816004015560a0820151816005015590505060025f8154809291906102a490610edf565b919050555050505050565b60025481565b5f602052805f5260405f205f91509050805f015f9054906101000a900473ffffffffffffffffffffffffffffffffffffffff16908060010180546102f890610c16565b80601f016020809104026020016040519081016040528092919081815260200182805461032490610c16565b801561036f5780601f106103465761010080835404028352916020019161036f565b820191905f5260205f20905b81548152906001019060200180831161035257829003601f168201915b5050505050908060020154908060030154908060040154908060050154905086565b5f805f8581526020019081526020015f2060020154036103e6576040517f08c379a00000000000000000000000000000000000000000000000000000000081526004016103dd90610f70565b60405180910390fd5b425f808581526020019081526020015f20600201541161043b576040517f08c379a000000000000000000000000000000000000000000000000000000000815260040161043290610fd8565b60405180910390fd5b8160015f3373ffffffffffffffffffffffffffffffffffffffff1673ffffffffffffffffffffffffffffffffffffffff1681526020019081526020015f205f8581526020019081526020015f205410156104ca576040517f08c379a00000000000000000000000000000000000000000000000000000000081526004016104c190611040565b60405180910390fd5b8160015f3373ffffffffffffffffffffffffffffffffffffffff1673ffffffffffffffffffffffffffffffffffffffff1681526020019081526020015f205f8581526020019081526020015f205f828254610525919061105e565b925050819055508160015f8373ffffffffffffffffffffffffffffffffffffffff1673ffffffffffffffffffffffffffffffffffffffff1681526020019081526020015f205f8581526020019081526020015f205f8282546105879190611091565b92505081905550505050565b5f805f8481526020019081526020015f2060020154036105e8576040517f08c379a00000000000000000000000000000000000000000000000000000000081526004016105df90610f70565b60405180910390fd5b425f808481526020019081526020015f20600201541161063d576040517f08c379a000000000000000000000000000000000000000000000000000000000815260040161063490610fd8565b60405180910390fd5b34815f808581526020019081526020015f206003015461065d91906110c4565b14610666575f80fd5b805f808481526020019081526020015f206005015411610684575f80fd5b805f808481526020019081526020015f206005015f8282546106a6919061105e565b925050819055508060015f3373ffffffffffffffffffffffffffffffffffffffff1673ffffffffffffffffffffffffffffffffffffffff1681526020019081526020015f205f8481526020019081526020015f205f8282546107089190611091565b925050819055505050565b6001602052815f5260405f20602052805f5260405f205f91509150505481565b5f604051905090565b5f80fd5b5f80fd5b5f80fd5b5f80fd5b5f601f19601f8301169050919050565b7f4e487b71000000000000000000000000000000000000000000000000000000005f52604160045260245ffd5b6107928261074c565b810181811067ffffffffffffffff821117156107b1576107b061075c565b5b80604052505050565b5f6107c3610733565b90506107cf8282610789565b919050565b5f67ffffffffffffffff8211156107ee576107ed61075c565b5b6107f78261074c565b9050602081019050919050565b828183375f83830152505050565b5f61082461081f846107d4565b6107ba565b9050828152602081018484840111156108405761083f610748565b5b61084b848285610804565b509392505050565b5f82601f83011261086757610866610744565b5b8135610877848260208601610812565b91505092915050565b5f819050919050565b61089281610880565b811461089c575f80fd5b50565b5f813590506108ad81610889565b92915050565b5f805f80608085870312156108cb576108ca61073c565b5b5f85013567ffffffffffffffff8111156108e8576108e7610740565b5b6108f487828801610853565b94505060206109058782880161089f565b93505060406109168782880161089f565b92505060606109278782880161089f565b91505092959194509250565b61093c81610880565b82525050565b5f6020820190506109555f830184610933565b92915050565b5f602082840312156109705761096f61073c565b5b5f61097d8482850161089f565b91505092915050565b5f73ffffffffffffffffffffffffffffffffffffffff82169050919050565b5f6109af82610986565b9050919050565b6109bf816109a5565b82525050565b5f81519050919050565b5f82825260208201905092915050565b8281835e5f83830152505050565b5f6109f7826109c5565b610a0181856109cf565b9350610a118185602086016109df565b610a1a8161074c565b840191505092915050565b5f60c082019050610a385f8301896109b6565b8181036020830152610a4a81886109ed565b9050610a596040830187610933565b610a666060830186610933565b610a736080830185610933565b610a8060a0830184610933565b979650505050505050565b610a94816109a5565b8114610a9e575f80fd5b50565b5f81359050610aaf81610a8b565b92915050565b5f805f60608486031215610acc57610acb61073c565b5b5f610ad98682870161089f565b9350506020610aea8682870161089f565b9250506040610afb86828701610aa1565b9150509250925092565b5f8060408385031215610b1b57610b1a61073c565b5b5f610b288582860161089f565b9250506020610b398582860161089f565b9150509250929050565b5f8060408385031215610b5957610b5861073c565b5b5f610b6685828601610aa1565b9250506020610b778582860161089f565b9150509250929050565b7f6576656e742069732065787069726564000000000000000000000000000000005f82015250565b5f610bb56010836109cf565b9150610bc082610b81565b602082019050919050565b5f6020820190508181035f830152610be281610ba9565b9050919050565b7f4e487b71000000000000000000000000000000000000000000000000000000005f52602260045260245ffd5b5f6002820490506001821680610c2d57607f821691505b602082108103610c4057610c3f610be9565b5b50919050565b5f819050815f5260205f209050919050565b5f6020601f8301049050919050565b5f82821b905092915050565b5f60088302610ca27fffffffffffffffffffffffffffffffffffffffffffffffffffffffffffffffff82610c67565b610cac8683610c67565b95508019841693508086168417925050509392505050565b5f819050919050565b5f610ce7610ce2610cdd84610880565b610cc4565b610880565b9050919050565b5f819050919050565b610d0083610ccd565b610d14610d0c82610cee565b848454610c73565b825550505050565b5f90565b610d28610d1c565b610d33818484610cf7565b505050565b5b81811015610d5657610d4b5f82610d20565b600181019050610d39565b5050565b601f821115610d9b57610d6c81610c46565b610d7584610c58565b81016020851015610d84578190505b610d98610d9085610c58565b830182610d38565b50505b505050565b5f82821c905092915050565b5f610dbb5f1984600802610da0565b1980831691505092915050565b5f610dd38383610dac565b9150826002028217905092915050565b610dec826109c5565b67ffffffffffffffff811115610e0557610e0461075c565b5b610e0f8254610c16565b610e1a828285610d5a565b5f60209050601f831160018114610e4b575f8415610e39578287015190505b610e438582610dc8565b865550610eaa565b601f198416610e5986610c46565b5f5b82811015610e8057848901518255600182019150602085019450602081019050610e5b565b86831015610e9d5784890151610e99601f891682610dac565b8355505b6001600288020188555050505b505050505050565b7f4e487b71000000000000000000000000000000000000000000000000000000005f52601160045260245ffd5b5f610ee982610880565b91507fffffffffffffffffffffffffffffffffffffffffffffffffffffffffffffffff8203610f1b57610f1a610eb2565b5b600182019050919050565b7f6576656e74206e6f7420657869737473000000000000000000000000000000005f82015250565b5f610f5a6010836109cf565b9150610f6582610f26565b602082019050919050565b5f6020820190508181035f830152610f8781610f4e565b9050919050565b7f6576656e742068617320656e64656400000000000000000000000000000000005f82015250565b5f610fc2600f836109cf565b9150610fcd82610f8e565b602082019050919050565b5f6020820190508181035f830152610fef81610fb6565b9050919050565b7f6e6f7420656e6f756768207469636b65740000000000000000000000000000005f82015250565b5f61102a6011836109cf565b915061103582610ff6565b602082019050919050565b5f6020820190508181035f8301526110578161101e565b9050919050565b5f61106882610880565b915061107383610880565b925082820390508181111561108b5761108a610eb2565b5b92915050565b5f61109b82610880565b91506110a683610880565b92508282019050808211156110be576110bd610eb2565b5b92915050565b5f6110ce82610880565b91506110d983610880565b92508282026110e781610880565b915082820484148315176110fe576110fd610eb2565b5b509291505056fea26469706673582212207ba99fa76e89747fba4c02d4590d04c8978785698ea1bb7cd0f12cee4368eefb64736f6c63430008190033",
					"opcodes": "PUSH1 0x80 PUSH1 0x40 MSTORE CALLVALUE DUP1 ISZERO PUSH1 0xE JUMPI PUSH0 DUP1 REVERT JUMPDEST POP PUSH2 0x113B DUP1 PUSH2 0x1C PUSH0 CODECOPY PUSH0 RETURN INVALID PUSH1 0x80 PUSH1 0x40 MSTORE PUSH1 0x4 CALLDATASIZE LT PUSH2 0x54 JUMPI PUSH0 CALLDATALOAD PUSH1 0xE0 SHR DUP1 PUSH4 0x3A0D3AB7 EQ PUSH2 0x58 JUMPI DUP1 PUSH4 0x5C29D40D EQ PUSH2 0x80 JUMPI DUP1 PUSH4 0x5CF47E12 EQ PUSH2 0xAA JUMPI DUP1 PUSH4 0x7A5A2462 EQ PUSH2 0xEB JUMPI DUP1 PUSH4 0xD9E20B7C EQ PUSH2 0x113 JUMPI DUP1 PUSH4 0xDAE7A13C EQ PUSH2 0x12F JUMPI JUMPDEST PUSH0 DUP1 REVERT JUMPDEST CALLVALUE DUP1 ISZERO PUSH2 0x63 JUMPI PUSH0 DUP1 REVERT JUMPDEST POP PUSH2 0x7E PUSH1 0x4 DUP1 CALLDATASIZE SUB DUP2 ADD SWAP1 PUSH2 0x79 SWAP2 SWAP1 PUSH2 0x8B3 JUMP JUMPDEST PUSH2 0x16B JUMP JUMPDEST STOP JUMPDEST CALLVALUE DUP1 ISZERO PUSH2 0x8B JUMPI PUSH0 DUP1 REVERT JUMPDEST POP PUSH2 0x94 PUSH2 0x2AF JUMP JUMPDEST PUSH1 0x40 MLOAD PUSH2 0xA1 SWAP2 SWAP1 PUSH2 0x942 JUMP JUMPDEST PUSH1 0x40 MLOAD DUP1 SWAP2 SUB SWAP1 RETURN JUMPDEST CALLVALUE DUP1 ISZERO PUSH2 0xB5 JUMPI PUSH0 DUP1 REVERT JUMPDEST POP PUSH2 0xD0 PUSH1 0x4 DUP1 CALLDATASIZE SUB DUP2 ADD SWAP1 PUSH2 0xCB SWAP2 SWAP1 PUSH2 0x95B JUMP JUMPDEST PUSH2 0x2B5 JUMP JUMPDEST PUSH1 0x40 MLOAD PUSH2 0xE2 SWAP7 SWAP6 SWAP5 SWAP4 SWAP3 SWAP2 SWAP1 PUSH2 0xA25 JUMP JUMPDEST PUSH1 0x40 MLOAD DUP1 SWAP2 SUB SWAP1 RETURN JUMPDEST CALLVALUE DUP1 ISZERO PUSH2 0xF6 JUMPI PUSH0 DUP1 REVERT JUMPDEST POP PUSH2 0x111 PUSH1 0x4 DUP1 CALLDATASIZE SUB DUP2 ADD SWAP1 PUSH2 0x10C SWAP2 SWAP1 PUSH2 0xAB5 JUMP JUMPDEST PUSH2 0x391 JUMP JUMPDEST STOP JUMPDEST PUSH2 0x12D PUSH1 0x4 DUP1 CALLDATASIZE SUB DUP2 ADD SWAP1 PUSH2 0x128 SWAP2 SWAP1 PUSH2 0xB05 JUMP JUMPDEST PUSH2 0x593 JUMP JUMPDEST STOP JUMPDEST CALLVALUE DUP1 ISZERO PUSH2 0x13A JUMPI PUSH0 DUP1 REVERT JUMPDEST POP PUSH2 0x155 PUSH1 0x4 DUP1 CALLDATASIZE SUB DUP2 ADD SWAP1 PUSH2 0x150 SWAP2 SWAP1 PUSH2 0xB43 JUMP JUMPDEST PUSH2 0x713 JUMP JUMPDEST PUSH1 0x40 MLOAD PUSH2 0x162 SWAP2 SWAP1 PUSH2 0x942 JUMP JUMPDEST PUSH1 0x40 MLOAD DUP1 SWAP2 SUB SWAP1 RETURN JUMPDEST TIMESTAMP DUP3 GT PUSH2 0x1AD JUMPI PUSH1 0x40 MLOAD PUSH32 0x8C379A000000000000000000000000000000000000000000000000000000000 DUP2 MSTORE PUSH1 0x4 ADD PUSH2 0x1A4 SWAP1 PUSH2 0xBCB JUMP JUMPDEST PUSH1 0x40 MLOAD DUP1 SWAP2 SUB SWAP1 REVERT JUMPDEST PUSH0 DUP2 GT PUSH2 0x1B8 JUMPI PUSH0 DUP1 REVERT JUMPDEST PUSH1 0x40 MLOAD DUP1 PUSH1 0xC0 ADD PUSH1 0x40 MSTORE DUP1 CALLER PUSH20 0xFFFFFFFFFFFFFFFFFFFFFFFFFFFFFFFFFFFFFFFF AND DUP2 MSTORE PUSH1 0x20 ADD DUP6 DUP2 MSTORE PUSH1 0x20 ADD DUP4 DUP2 MSTORE PUSH1 0x20 ADD DUP5 DUP2 MSTORE PUSH1 0x20 ADD DUP3 DUP2 MSTORE PUSH1 0x20 ADD DUP3 DUP2 MSTORE POP PUSH0 DUP1 PUSH1 0x2 SLOAD DUP2 MSTORE PUSH1 0x20 ADD SWAP1 DUP2 MSTORE PUSH1 0x20 ADD PUSH0 KECCAK256 PUSH0 DUP3 ADD MLOAD DUP2 PUSH0 ADD PUSH0 PUSH2 0x100 EXP DUP2 SLOAD DUP2 PUSH20 0xFFFFFFFFFFFFFFFFFFFFFFFFFFFFFFFFFFFFFFFF MUL NOT AND SWAP1 DUP4 PUSH20 0xFFFFFFFFFFFFFFFFFFFFFFFFFFFFFFFFFFFFFFFF AND MUL OR SWAP1 SSTORE POP PUSH1 0x20 DUP3 ADD MLOAD DUP2 PUSH1 0x1 ADD SWAP1 DUP2 PUSH2 0x266 SWAP2 SWAP1 PUSH2 0xDE3 JUMP JUMPDEST POP PUSH1 0x40 DUP3 ADD MLOAD DUP2 PUSH1 0x2 ADD SSTORE PUSH1 0x60 DUP3 ADD MLOAD DUP2 PUSH1 0x3 ADD SSTORE PUSH1 0x80 DUP3 ADD MLOAD DUP2 PUSH1 0x4 ADD SSTORE PUSH1 0xA0 DUP3 ADD MLOAD DUP2 PUSH1 0x5 ADD SSTORE SWAP1 POP POP PUSH1 0x2 PUSH0 DUP2 SLOAD DUP1 SWAP3 SWAP2 SWAP1 PUSH2 0x2A4 SWAP1 PUSH2 0xEDF JUMP JUMPDEST SWAP2 SWAP1 POP SSTORE POP POP POP POP POP JUMP JUMPDEST PUSH1 0x2 SLOAD DUP2 JUMP JUMPDEST PUSH0 PUSH1 0x20 MSTORE DUP1 PUSH0 MSTORE PUSH1 0x40 PUSH0 KECCAK256 PUSH0 SWAP2 POP SWAP1 POP DUP1 PUSH0 ADD PUSH0 SWAP1 SLOAD SWAP1 PUSH2 0x100 EXP SWAP1 DIV PUSH20 0xFFFFFFFFFFFFFFFFFFFFFFFFFFFFFFFFFFFFFFFF AND SWAP1 DUP1 PUSH1 0x1 ADD DUP1 SLOAD PUSH2 0x2F8 SWAP1 PUSH2 0xC16 JUMP JUMPDEST DUP1 PUSH1 0x1F ADD PUSH1 0x20 DUP1 SWAP2 DIV MUL PUSH1 0x20 ADD PUSH1 0x40 MLOAD SWAP1 DUP2 ADD PUSH1 0x40 MSTORE DUP1 SWAP3 SWAP2 SWAP1 DUP2 DUP2 MSTORE PUSH1 0x20 ADD DUP3 DUP1 SLOAD PUSH2 0x324 SWAP1 PUSH2 0xC16 JUMP JUMPDEST DUP1 ISZERO PUSH2 0x36F JUMPI DUP1 PUSH1 0x1F LT PUSH2 0x346 JUMPI PUSH2 0x100 DUP1 DUP4 SLOAD DIV MUL DUP4 MSTORE SWAP2 PUSH1 0x20 ADD SWAP2 PUSH2 0x36F JUMP JUMPDEST DUP3 ADD SWAP2 SWAP1 PUSH0 MSTORE PUSH1 0x20 PUSH0 KECCAK256 SWAP1 JUMPDEST DUP2 SLOAD DUP2 MSTORE SWAP1 PUSH1 0x1 ADD SWAP1 PUSH1 0x20 ADD DUP1 DUP4 GT PUSH2 0x352 JUMPI DUP3 SWAP1 SUB PUSH1 0x1F AND DUP3 ADD SWAP2 JUMPDEST POP POP POP POP POP SWAP1 DUP1 PUSH1 0x2 ADD SLOAD SWAP1 DUP1 PUSH1 0x3 ADD SLOAD SWAP1 DUP1 PUSH1 0x4 ADD SLOAD SWAP1 DUP1 PUSH1 0x5 ADD SLOAD SWAP1 POP DUP7 JUMP JUMPDEST PUSH0 DUP1 PUSH0 DUP6 DUP2 MSTORE PUSH1 0x20 ADD SWAP1 DUP2 MSTORE PUSH1 0x20 ADD PUSH0 KECCAK256 PUSH1 0x2 ADD SLOAD SUB PUSH2 0x3E6 JUMPI PUSH1 0x40 MLOAD PUSH32 0x8C379A000000000000000000000000000000000000000000000000000000000 DUP2 MSTORE PUSH1 0x4 ADD PUSH2 0x3DD SWAP1 PUSH2 0xF70 JUMP JUMPDEST PUSH1 0x40 MLOAD DUP1 SWAP2 SUB SWAP1 REVERT JUMPDEST TIMESTAMP PUSH0 DUP1 DUP6 DUP2 MSTORE PUSH1 0x20 ADD SWAP1 DUP2 MSTORE PUSH1 0x20 ADD PUSH0 KECCAK256 PUSH1 0x2 ADD SLOAD GT PUSH2 0x43B JUMPI PUSH1 0x40 MLOAD PUSH32 0x8C379A000000000000000000000000000000000000000000000000000000000 DUP2 MSTORE PUSH1 0x4 ADD PUSH2 0x432 SWAP1 PUSH2 0xFD8 JUMP JUMPDEST PUSH1 0x40 MLOAD DUP1 SWAP2 SUB SWAP1 REVERT JUMPDEST DUP2 PUSH1 0x1 PUSH0 CALLER PUSH20 0xFFFFFFFFFFFFFFFFFFFFFFFFFFFFFFFFFFFFFFFF AND PUSH20 0xFFFFFFFFFFFFFFFFFFFFFFFFFFFFFFFFFFFFFFFF AND DUP2 MSTORE PUSH1 0x20 ADD SWAP1 DUP2 MSTORE PUSH1 0x20 ADD PUSH0 KECCAK256 PUSH0 DUP6 DUP2 MSTORE PUSH1 0x20 ADD SWAP1 DUP2 MSTORE PUSH1 0x20 ADD PUSH0 KECCAK256 SLOAD LT ISZERO PUSH2 0x4CA JUMPI PUSH1 0x40 MLOAD PUSH32 0x8C379A000000000000000000000000000000000000000000000000000000000 DUP2 MSTORE PUSH1 0x4 ADD PUSH2 0x4C1 SWAP1 PUSH2 0x1040 JUMP JUMPDEST PUSH1 0x40 MLOAD DUP1 SWAP2 SUB SWAP1 REVERT JUMPDEST DUP2 PUSH1 0x1 PUSH0 CALLER PUSH20 0xFFFFFFFFFFFFFFFFFFFFFFFFFFFFFFFFFFFFFFFF AND PUSH20 0xFFFFFFFFFFFFFFFFFFFFFFFFFFFFFFFFFFFFFFFF AND DUP2 MSTORE PUSH1 0x20 ADD SWAP1 DUP2 MSTORE PUSH1 0x20 ADD PUSH0 KECCAK256 PUSH0 DUP6 DUP2 MSTORE PUSH1 0x20 ADD SWAP1 DUP2 MSTORE PUSH1 0x20 ADD PUSH0 KECCAK256 PUSH0 DUP3 DUP3 SLOAD PUSH2 0x525 SWAP2 SWAP1 PUSH2 0x105E JUMP JUMPDEST SWAP3 POP POP DUP2 SWAP1 SSTORE POP DUP2 PUSH1 0x1 PUSH0 DUP4 PUSH20 0xFFFFFFFFFFFFFFFFFFFFFFFFFFFFFFFFFFFFFFFF AND PUSH20 0xFFFFFFFFFFFFFFFFFFFFFFFFFFFFFFFFFFFFFFFF AND DUP2 MSTORE PUSH1 0x20 ADD SWAP1 DUP2 MSTORE PUSH1 0x20 ADD PUSH0 KECCAK256 PUSH0 DUP6 DUP2 MSTORE PUSH1 0x20 ADD SWAP1 DUP2 MSTORE PUSH1 0x20 ADD PUSH0 KECCAK256 PUSH0 DUP3 DUP3 SLOAD PUSH2 0x587 SWAP2 SWAP1 PUSH2 0x1091 JUMP JUMPDEST SWAP3 POP POP DUP2 SWAP1 SSTORE POP POP POP POP JUMP JUMPDEST PUSH0 DUP1 PUSH0 DUP5 DUP2 MSTORE PUSH1 0x20 ADD SWAP1 DUP2 MSTORE PUSH1 0x20 ADD PUSH0 KECCAK256 PUSH1 0x2 ADD SLOAD SUB PUSH2 0x5E8 JUMPI PUSH1 0x40 MLOAD PUSH32 0x8C379A000000000000000000000000000000000000000000000000000000000 DUP2 MSTORE PUSH1 0x4 ADD PUSH2 0x5DF SWAP1 PUSH2 0xF70 JUMP JUMPDEST PUSH1 0x40 MLOAD DUP1 SWAP2 SUB SWAP1 REVERT JUMPDEST TIMESTAMP PUSH0 DUP1 DUP5 DUP2 MSTORE PUSH1 0x20 ADD SWAP1 DUP2 MSTORE PUSH1 0x20 ADD PUSH0 KECCAK256 PUSH1 0x2 ADD SLOAD GT PUSH2 0x63D JUMPI PUSH1 0x40 MLOAD PUSH32 0x8C379A000000000000000000000000000000000000000000000000000000000 DUP2 MSTORE PUSH1 0x4 ADD PUSH2 0x634 SWAP1 PUSH2 0xFD8 JUMP JUMPDEST PUSH1 0x40 MLOAD DUP1 SWAP2 SUB SWAP1 REVERT JUMPDEST CALLVALUE DUP2 PUSH0 DUP1 DUP6 DUP2 MSTORE PUSH1 0x20 ADD SWAP1 DUP2 MSTORE PUSH1 0x20 ADD PUSH0 KECCAK256 PUSH1 0x3 ADD SLOAD PUSH2 0x65D SWAP2 SWAP1 PUSH2 0x10C4 JUMP JUMPDEST EQ PUSH2 0x666 JUMPI PUSH0 DUP1 REVERT JUMPDEST DUP1 PUSH0 DUP1 DUP5 DUP2 MSTORE PUSH1 0x20 ADD SWAP1 DUP2 MSTORE PUSH1 0x20 ADD PUSH0 KECCAK256 PUSH1 0x5 ADD SLOAD GT PUSH2 0x684 JUMPI PUSH0 DUP1 REVERT JUMPDEST DUP1 PUSH0 DUP1 DUP5 DUP2 MSTORE PUSH1 0x20 ADD SWAP1 DUP2 MSTORE PUSH1 0x20 ADD PUSH0 KECCAK256 PUSH1 0x5 ADD PUSH0 DUP3 DUP3 SLOAD PUSH2 0x6A6 SWAP2 SWAP1 PUSH2 0x105E JUMP JUMPDEST SWAP3 POP POP DUP2 SWAP1 SSTORE POP DUP1 PUSH1 0x1 PUSH0 CALLER PUSH20 0xFFFFFFFFFFFFFFFFFFFFFFFFFFFFFFFFFFFFFFFF AND PUSH20 0xFFFFFFFFFFFFFFFFFFFFFFFFFFFFFFFFFFFFFFFF AND DUP2 MSTORE PUSH1 0x20 ADD SWAP1 DUP2 MSTORE PUSH1 0x20 ADD PUSH0 KECCAK256 PUSH0 DUP5 DUP2 MSTORE PUSH1 0x20 ADD SWAP1 DUP2 MSTORE PUSH1 0x20 ADD PUSH0 KECCAK256 PUSH0 DUP3 DUP3 SLOAD PUSH2 0x708 SWAP2 SWAP1 PUSH2 0x1091 JUMP JUMPDEST SWAP3 POP POP DUP2 SWAP1 SSTORE POP POP POP JUMP JUMPDEST PUSH1 0x1 PUSH1 0x20 MSTORE DUP2 PUSH0 MSTORE PUSH1 0x40 PUSH0 KECCAK256 PUSH1 0x20 MSTORE DUP1 PUSH0 MSTORE PUSH1 0x40 PUSH0 KECCAK256 PUSH0 SWAP2 POP SWAP2 POP POP SLOAD DUP2 JUMP JUMPDEST PUSH0 PUSH1 0x40 MLOAD SWAP1 POP SWAP1 JUMP JUMPDEST PUSH0 DUP1 REVERT JUMPDEST PUSH0 DUP1 REVERT JUMPDEST PUSH0 DUP1 REVERT JUMPDEST PUSH0 DUP1 REVERT JUMPDEST PUSH0 PUSH1 0x1F NOT PUSH1 0x1F DUP4 ADD AND SWAP1 POP SWAP2 SWAP1 POP JUMP JUMPDEST PUSH32 0x4E487B7100000000000000000000000000000000000000000000000000000000 PUSH0 MSTORE PUSH1 0x41 PUSH1 0x4 MSTORE PUSH1 0x24 PUSH0 REVERT JUMPDEST PUSH2 0x792 DUP3 PUSH2 0x74C JUMP JUMPDEST DUP2 ADD DUP2 DUP2 LT PUSH8 0xFFFFFFFFFFFFFFFF DUP3 GT OR ISZERO PUSH2 0x7B1 JUMPI PUSH2 0x7B0 PUSH2 0x75C JUMP JUMPDEST JUMPDEST DUP1 PUSH1 0x40 MSTORE POP POP POP JUMP JUMPDEST PUSH0 PUSH2 0x7C3 PUSH2 0x733 JUMP JUMPDEST SWAP1 POP PUSH2 0x7CF DUP3 DUP3 PUSH2 0x789 JUMP JUMPDEST SWAP2 SWAP1 POP JUMP JUMPDEST PUSH0 PUSH8 0xFFFFFFFFFFFFFFFF DUP3 GT ISZERO PUSH2 0x7EE JUMPI PUSH2 0x7ED PUSH2 0x75C JUMP JUMPDEST JUMPDEST PUSH2 0x7F7 DUP3 PUSH2 0x74C JUMP JUMPDEST SWAP1 POP PUSH1 0x20 DUP2 ADD SWAP1 POP SWAP2 SWAP1 POP JUMP JUMPDEST DUP3 DUP2 DUP4 CALLDATACOPY PUSH0 DUP4 DUP4 ADD MSTORE POP POP POP JUMP JUMPDEST PUSH0 PUSH2 0x824 PUSH2 0x81F DUP5 PUSH2 0x7D4 JUMP JUMPDEST PUSH2 0x7BA JUMP JUMPDEST SWAP1 POP DUP3 DUP2 MSTORE PUSH1 0x20 DUP2 ADD DUP5 DUP5 DUP5 ADD GT ISZERO PUSH2 0x840 JUMPI PUSH2 0x83F PUSH2 0x748 JUMP JUMPDEST JUMPDEST PUSH2 0x84B DUP5 DUP3 DUP6 PUSH2 0x804 JUMP JUMPDEST POP SWAP4 SWAP3 POP POP POP JUMP JUMPDEST PUSH0 DUP3 PUSH1 0x1F DUP4 ADD SLT PUSH2 0x867 JUMPI PUSH2 0x866 PUSH2 0x744 JUMP JUMPDEST JUMPDEST DUP2 CALLDATALOAD PUSH2 0x877 DUP5 DUP3 PUSH1 0x20 DUP7 ADD PUSH2 0x812 JUMP JUMPDEST SWAP2 POP POP SWAP3 SWAP2 POP POP JUMP JUMPDEST PUSH0 DUP2 SWAP1 POP SWAP2 SWAP1 POP JUMP JUMPDEST PUSH2 0x892 DUP2 PUSH2 0x880 JUMP JUMPDEST DUP2 EQ PUSH2 0x89C JUMPI PUSH0 DUP1 REVERT JUMPDEST POP JUMP JUMPDEST PUSH0 DUP2 CALLDATALOAD SWAP1 POP PUSH2 0x8AD DUP2 PUSH2 0x889 JUMP JUMPDEST SWAP3 SWAP2 POP POP JUMP JUMPDEST PUSH0 DUP1 PUSH0 DUP1 PUSH1 0x80 DUP6 DUP8 SUB SLT ISZERO PUSH2 0x8CB JUMPI PUSH2 0x8CA PUSH2 0x73C JUMP JUMPDEST JUMPDEST PUSH0 DUP6 ADD CALLDATALOAD PUSH8 0xFFFFFFFFFFFFFFFF DUP2 GT ISZERO PUSH2 0x8E8 JUMPI PUSH2 0x8E7 PUSH2 0x740 JUMP JUMPDEST JUMPDEST PUSH2 0x8F4 DUP8 DUP3 DUP9 ADD PUSH2 0x853 JUMP JUMPDEST SWAP5 POP POP PUSH1 0x20 PUSH2 0x905 DUP8 DUP3 DUP9 ADD PUSH2 0x89F JUMP JUMPDEST SWAP4 POP POP PUSH1 0x40 PUSH2 0x916 DUP8 DUP3 DUP9 ADD PUSH2 0x89F JUMP JUMPDEST SWAP3 POP POP PUSH1 0x60 PUSH2 0x927 DUP8 DUP3 DUP9 ADD PUSH2 0x89F JUMP JUMPDEST SWAP2 POP POP SWAP3 SWAP6 SWAP2 SWAP5 POP SWAP3 POP JUMP JUMPDEST PUSH2 0x93C DUP2 PUSH2 0x880 JUMP JUMPDEST DUP3 MSTORE POP POP JUMP JUMPDEST PUSH0 PUSH1 0x20 DUP3 ADD SWAP1 POP PUSH2 0x955 PUSH0 DUP4 ADD DUP5 PUSH2 0x933 JUMP JUMPDEST SWAP3 SWAP2 POP POP JUMP JUMPDEST PUSH0 PUSH1 0x20 DUP3 DUP5 SUB SLT ISZERO PUSH2 0x970 JUMPI PUSH2 0x96F PUSH2 0x73C JUMP JUMPDEST JUMPDEST PUSH0 PUSH2 0x97D DUP5 DUP3 DUP6 ADD PUSH2 0x89F JUMP JUMPDEST SWAP2 POP POP SWAP3 SWAP2 POP POP JUMP JUMPDEST PUSH0 PUSH20 0xFFFFFFFFFFFFFFFFFFFFFFFFFFFFFFFFFFFFFFFF DUP3 AND SWAP1 POP SWAP2 SWAP1 POP JUMP JUMPDEST PUSH0 PUSH2 0x9AF DUP3 PUSH2 0x986 JUMP JUMPDEST SWAP1 POP SWAP2 SWAP1 POP JUMP JUMPDEST PUSH2 0x9BF DUP2 PUSH2 0x9A5 JUMP JUMPDEST DUP3 MSTORE POP POP JUMP JUMPDEST PUSH0 DUP2 MLOAD SWAP1 POP SWAP2 SWAP1 POP JUMP JUMPDEST PUSH0 DUP3 DUP3 MSTORE PUSH1 0x20 DUP3 ADD SWAP1 POP SWAP3 SWAP2 POP POP JUMP JUMPDEST DUP3 DUP2 DUP4 MCOPY PUSH0 DUP4 DUP4 ADD MSTORE POP POP POP JUMP JUMPDEST PUSH0 PUSH2 0x9F7 DUP3 PUSH2 0x9C5 JUMP JUMPDEST PUSH2 0xA01 DUP2 DUP6 PUSH2 0x9CF JUMP JUMPDEST SWAP4 POP PUSH2 0xA11 DUP2 DUP6 PUSH1 0x20 DUP7 ADD PUSH2 0x9DF JUMP JUMPDEST PUSH2 0xA1A DUP2 PUSH2 0x74C JUMP JUMPDEST DUP5 ADD SWAP2 POP POP SWAP3 SWAP2 POP POP JUMP JUMPDEST PUSH0 PUSH1 0xC0 DUP3 ADD SWAP1 POP PUSH2 0xA38 PUSH0 DUP4 ADD DUP10 PUSH2 0x9B6 JUMP JUMPDEST DUP2 DUP2 SUB PUSH1 0x20 DUP4 ADD MSTORE PUSH2 0xA4A DUP2 DUP9 PUSH2 0x9ED JUMP JUMPDEST SWAP1 POP PUSH2 0xA59 PUSH1 0x40 DUP4 ADD DUP8 PUSH2 0x933 JUMP JUMPDEST PUSH2 0xA66 PUSH1 0x60 DUP4 ADD DUP7 PUSH2 0x933 JUMP JUMPDEST PUSH2 0xA73 PUSH1 0x80 DUP4 ADD DUP6 PUSH2 0x933 JUMP JUMPDEST PUSH2 0xA80 PUSH1 0xA0 DUP4 ADD DUP5 PUSH2 0x933 JUMP JUMPDEST SWAP8 SWAP7 POP POP POP POP POP POP POP JUMP JUMPDEST PUSH2 0xA94 DUP2 PUSH2 0x9A5 JUMP JUMPDEST DUP2 EQ PUSH2 0xA9E JUMPI PUSH0 DUP1 REVERT JUMPDEST POP JUMP JUMPDEST PUSH0 DUP2 CALLDATALOAD SWAP1 POP PUSH2 0xAAF DUP2 PUSH2 0xA8B JUMP JUMPDEST SWAP3 SWAP2 POP POP JUMP JUMPDEST PUSH0 DUP1 PUSH0 PUSH1 0x60 DUP5 DUP7 SUB SLT ISZERO PUSH2 0xACC JUMPI PUSH2 0xACB PUSH2 0x73C JUMP JUMPDEST JUMPDEST PUSH0 PUSH2 0xAD9 DUP7 DUP3 DUP8 ADD PUSH2 0x89F JUMP JUMPDEST SWAP4 POP POP PUSH1 0x20 PUSH2 0xAEA DUP7 DUP3 DUP8 ADD PUSH2 0x89F JUMP JUMPDEST SWAP3 POP POP PUSH1 0x40 PUSH2 0xAFB DUP7 DUP3 DUP8 ADD PUSH2 0xAA1 JUMP JUMPDEST SWAP2 POP POP SWAP3 POP SWAP3 POP SWAP3 JUMP JUMPDEST PUSH0 DUP1 PUSH1 0x40 DUP4 DUP6 SUB SLT ISZERO PUSH2 0xB1B JUMPI PUSH2 0xB1A PUSH2 0x73C JUMP JUMPDEST JUMPDEST PUSH0 PUSH2 0xB28 DUP6 DUP3 DUP7 ADD PUSH2 0x89F JUMP JUMPDEST SWAP3 POP POP PUSH1 0x20 PUSH2 0xB39 DUP6 DUP3 DUP7 ADD PUSH2 0x89F JUMP JUMPDEST SWAP2 POP POP SWAP3 POP SWAP3 SWAP1 POP JUMP JUMPDEST PUSH0 DUP1 PUSH1 0x40 DUP4 DUP6 SUB SLT ISZERO PUSH2 0xB59 JUMPI PUSH2 0xB58 PUSH2 0x73C JUMP JUMPDEST JUMPDEST PUSH0 PUSH2 0xB66 DUP6 DUP3 DUP7 ADD PUSH2 0xAA1 JUMP JUMPDEST SWAP3 POP POP PUSH1 0x20 PUSH2 0xB77 DUP6 DUP3 DUP7 ADD PUSH2 0x89F JUMP JUMPDEST SWAP2 POP POP SWAP3 POP SWAP3 SWAP1 POP JUMP JUMPDEST PUSH32 0x6576656E74206973206578706972656400000000000000000000000000000000 PUSH0 DUP3 ADD MSTORE POP JUMP JUMPDEST PUSH0 PUSH2 0xBB5 PUSH1 0x10 DUP4 PUSH2 0x9CF JUMP JUMPDEST SWAP2 POP PUSH2 0xBC0 DUP3 PUSH2 0xB81 JUMP JUMPDEST PUSH1 0x20 DUP3 ADD SWAP1 POP SWAP2 SWAP1 POP JUMP JUMPDEST PUSH0 PUSH1 0x20 DUP3 ADD SWAP1 POP DUP2 DUP2 SUB PUSH0 DUP4 ADD MSTORE PUSH2 0xBE2 DUP2 PUSH2 0xBA9 JUMP JUMPDEST SWAP1 POP SWAP2 SWAP1 POP JUMP JUMPDEST PUSH32 0x4E487B7100000000000000000000000000000000000000000000000000000000 PUSH0 MSTORE PUSH1 0x22 PUSH1 0x4 MSTORE PUSH1 0x24 PUSH0 REVERT JUMPDEST PUSH0 PUSH1 0x2 DUP3 DIV SWAP1 POP PUSH1 0x1 DUP3 AND DUP1 PUSH2 0xC2D JUMPI PUSH1 0x7F DUP3 AND SWAP2 POP JUMPDEST PUSH1 0x20 DUP3 LT DUP2 SUB PUSH2 0xC40 JUMPI PUSH2 0xC3F PUSH2 0xBE9 JUMP JUMPDEST JUMPDEST POP SWAP2 SWAP1 POP JUMP JUMPDEST PUSH0 DUP2 SWAP1 POP DUP2 PUSH0 MSTORE PUSH1 0x20 PUSH0 KECCAK256 SWAP1 POP SWAP2 SWAP1 POP JUMP JUMPDEST PUSH0 PUSH1 0x20 PUSH1 0x1F DUP4 ADD DIV SWAP1 POP SWAP2 SWAP1 POP JUMP JUMPDEST PUSH0 DUP3 DUP3 SHL SWAP1 POP SWAP3 SWAP2 POP POP JUMP JUMPDEST PUSH0 PUSH1 0x8 DUP4 MUL PUSH2 0xCA2 PUSH32 0xFFFFFFFFFFFFFFFFFFFFFFFFFFFFFFFFFFFFFFFFFFFFFFFFFFFFFFFFFFFFFFFF DUP3 PUSH2 0xC67 JUMP JUMPDEST PUSH2 0xCAC DUP7 DUP4 PUSH2 0xC67 JUMP JUMPDEST SWAP6 POP DUP1 NOT DUP5 AND SWAP4 POP DUP1 DUP7 AND DUP5 OR SWAP3 POP POP POP SWAP4 SWAP3 POP POP POP JUMP JUMPDEST PUSH0 DUP2 SWAP1 POP SWAP2 SWAP1 POP JUMP JUMPDEST PUSH0 PUSH2 0xCE7 PUSH2 0xCE2 PUSH2 0xCDD DUP5 PUSH2 0x880 JUMP JUMPDEST PUSH2 0xCC4 JUMP JUMPDEST PUSH2 0x880 JUMP JUMPDEST SWAP1 POP SWAP2 SWAP1 POP JUMP JUMPDEST PUSH0 DUP2 SWAP1 POP SWAP2 SWAP1 POP JUMP JUMPDEST PUSH2 0xD00 DUP4 PUSH2 0xCCD JUMP JUMPDEST PUSH2 0xD14 PUSH2 0xD0C DUP3 PUSH2 0xCEE JUMP JUMPDEST DUP5 DUP5 SLOAD PUSH2 0xC73 JUMP JUMPDEST DUP3 SSTORE POP POP POP POP JUMP JUMPDEST PUSH0 SWAP1 JUMP JUMPDEST PUSH2 0xD28 PUSH2 0xD1C JUMP JUMPDEST PUSH2 0xD33 DUP2 DUP5 DUP5 PUSH2 0xCF7 JUMP JUMPDEST POP POP POP JUMP JUMPDEST JUMPDEST DUP2 DUP2 LT ISZERO PUSH2 0xD56 JUMPI PUSH2 0xD4B PUSH0 DUP3 PUSH2 0xD20 JUMP JUMPDEST PUSH1 0x1 DUP2 ADD SWAP1 POP PUSH2 0xD39 JUMP JUMPDEST POP POP JUMP JUMPDEST PUSH1 0x1F DUP3 GT ISZERO PUSH2 0xD9B JUMPI PUSH2 0xD6C DUP2 PUSH2 0xC46 JUMP JUMPDEST PUSH2 0xD75 DUP5 PUSH2 0xC58 JUMP JUMPDEST DUP2 ADD PUSH1 0x20 DUP6 LT ISZERO PUSH2 0xD84 JUMPI DUP2 SWAP1 POP JUMPDEST PUSH2 0xD98 PUSH2 0xD90 DUP6 PUSH2 0xC58 JUMP JUMPDEST DUP4 ADD DUP3 PUSH2 0xD38 JUMP JUMPDEST POP POP JUMPDEST POP POP POP JUMP JUMPDEST PUSH0 DUP3 DUP3 SHR SWAP1 POP SWAP3 SWAP2 POP POP JUMP JUMPDEST PUSH0 PUSH2 0xDBB PUSH0 NOT DUP5 PUSH1 0x8 MUL PUSH2 0xDA0 JUMP JUMPDEST NOT DUP1 DUP4 AND SWAP2 POP POP SWAP3 SWAP2 POP POP JUMP JUMPDEST PUSH0 PUSH2 0xDD3 DUP4 DUP4 PUSH2 0xDAC JUMP JUMPDEST SWAP2 POP DUP3 PUSH1 0x2 MUL DUP3 OR SWAP1 POP SWAP3 SWAP2 POP POP JUMP JUMPDEST PUSH2 0xDEC DUP3 PUSH2 0x9C5 JUMP JUMPDEST PUSH8 0xFFFFFFFFFFFFFFFF DUP2 GT ISZERO PUSH2 0xE05 JUMPI PUSH2 0xE04 PUSH2 0x75C JUMP JUMPDEST JUMPDEST PUSH2 0xE0F DUP3 SLOAD PUSH2 0xC16 JUMP JUMPDEST PUSH2 0xE1A DUP3 DUP3 DUP6 PUSH2 0xD5A JUMP JUMPDEST PUSH0 PUSH1 0x20 SWAP1 POP PUSH1 0x1F DUP4 GT PUSH1 0x1 DUP2 EQ PUSH2 0xE4B JUMPI PUSH0 DUP5 ISZERO PUSH2 0xE39 JUMPI DUP3 DUP8 ADD MLOAD SWAP1 POP JUMPDEST PUSH2 0xE43 DUP6 DUP3 PUSH2 0xDC8 JUMP JUMPDEST DUP7 SSTORE POP PUSH2 0xEAA JUMP JUMPDEST PUSH1 0x1F NOT DUP5 AND PUSH2 0xE59 DUP7 PUSH2 0xC46 JUMP JUMPDEST PUSH0 JUMPDEST DUP3 DUP2 LT ISZERO PUSH2 0xE80 JUMPI DUP5 DUP10 ADD MLOAD DUP3 SSTORE PUSH1 0x1 DUP3 ADD SWAP2 POP PUSH1 0x20 DUP6 ADD SWAP5 POP PUSH1 0x20 DUP2 ADD SWAP1 POP PUSH2 0xE5B JUMP JUMPDEST DUP7 DUP4 LT ISZERO PUSH2 0xE9D JUMPI DUP5 DUP10 ADD MLOAD PUSH2 0xE99 PUSH1 0x1F DUP10 AND DUP3 PUSH2 0xDAC JUMP JUMPDEST DUP4 SSTORE POP JUMPDEST PUSH1 0x1 PUSH1 0x2 DUP9 MUL ADD DUP9 SSTORE POP POP POP JUMPDEST POP POP POP POP POP POP JUMP JUMPDEST PUSH32 0x4E487B7100000000000000000000000000000000000000000000000000000000 PUSH0 MSTORE PUSH1 0x11 PUSH1 0x4 MSTORE PUSH1 0x24 PUSH0 REVERT JUMPDEST PUSH0 PUSH2 0xEE9 DUP3 PUSH2 0x880 JUMP JUMPDEST SWAP2 POP PUSH32 0xFFFFFFFFFFFFFFFFFFFFFFFFFFFFFFFFFFFFFFFFFFFFFFFFFFFFFFFFFFFFFFFF DUP3 SUB PUSH2 0xF1B JUMPI PUSH2 0xF1A PUSH2 0xEB2 JUMP JUMPDEST JUMPDEST PUSH1 0x1 DUP3 ADD SWAP1 POP SWAP2 SWAP1 POP JUMP JUMPDEST PUSH32 0x6576656E74206E6F742065786973747300000000000000000000000000000000 PUSH0 DUP3 ADD MSTORE POP JUMP JUMPDEST PUSH0 PUSH2 0xF5A PUSH1 0x10 DUP4 PUSH2 0x9CF JUMP JUMPDEST SWAP2 POP PUSH2 0xF65 DUP3 PUSH2 0xF26 JUMP JUMPDEST PUSH1 0x20 DUP3 ADD SWAP1 POP SWAP2 SWAP1 POP JUMP JUMPDEST PUSH0 PUSH1 0x20 DUP3 ADD SWAP1 POP DUP2 DUP2 SUB PUSH0 DUP4 ADD MSTORE PUSH2 0xF87 DUP2 PUSH2 0xF4E JUMP JUMPDEST SWAP1 POP SWAP2 SWAP1 POP JUMP JUMPDEST PUSH32 0x6576656E742068617320656E6465640000000000000000000000000000000000 PUSH0 DUP3 ADD MSTORE POP JUMP JUMPDEST PUSH0 PUSH2 0xFC2 PUSH1 0xF DUP4 PUSH2 0x9CF JUMP JUMPDEST SWAP2 POP PUSH2 0xFCD DUP3 PUSH2 0xF8E JUMP JUMPDEST PUSH1 0x20 DUP3 ADD SWAP1 POP SWAP2 SWAP1 POP JUMP JUMPDEST PUSH0 PUSH1 0x20 DUP3 ADD SWAP1 POP DUP2 DUP2 SUB PUSH0 DUP4 ADD MSTORE PUSH2 0xFEF DUP2 PUSH2 0xFB6 JUMP JUMPDEST SWAP1 POP SWAP2 SWAP1 POP JUMP JUMPDEST PUSH32 0x6E6F7420656E6F756768207469636B6574000000000000000000000000000000 PUSH0 DUP3 ADD MSTORE POP JUMP JUMPDEST PUSH0 PUSH2 0x102A PUSH1 0x11 DUP4 PUSH2 0x9CF JUMP JUMPDEST SWAP2 POP PUSH2 0x1035 DUP3 PUSH2 0xFF6 JUMP JUMPDEST PUSH1 0x20 DUP3 ADD SWAP1 POP SWAP2 SWAP1 POP JUMP JUMPDEST PUSH0 PUSH1 0x20 DUP3 ADD SWAP1 POP DUP2 DUP2 SUB PUSH0 DUP4 ADD MSTORE PUSH2 0x1057 DUP2 PUSH2 0x101E JUMP JUMPDEST SWAP1 POP SWAP2 SWAP1 POP JUMP JUMPDEST PUSH0 PUSH2 0x1068 DUP3 PUSH2 0x880 JUMP JUMPDEST SWAP2 POP PUSH2 0x1073 DUP4 PUSH2 0x880 JUMP JUMPDEST SWAP3 POP DUP3 DUP3 SUB SWAP1 POP DUP2 DUP2 GT ISZERO PUSH2 0x108B JUMPI PUSH2 0x108A PUSH2 0xEB2 JUMP JUMPDEST JUMPDEST SWAP3 SWAP2 POP POP JUMP JUMPDEST PUSH0 PUSH2 0x109B DUP3 PUSH2 0x880 JUMP JUMPDEST SWAP2 POP PUSH2 0x10A6 DUP4 PUSH2 0x880 JUMP JUMPDEST SWAP3 POP DUP3 DUP3 ADD SWAP1 POP DUP1 DUP3 GT ISZERO PUSH2 0x10BE JUMPI PUSH2 0x10BD PUSH2 0xEB2 JUMP JUMPDEST JUMPDEST SWAP3 SWAP2 POP POP JUMP JUMPDEST PUSH0 PUSH2 0x10CE DUP3 PUSH2 0x880 JUMP JUMPDEST SWAP2 POP PUSH2 0x10D9 DUP4 PUSH2 0x880 JUMP JUMPDEST SWAP3 POP DUP3 DUP3 MUL PUSH2 0x10E7 DUP2 PUSH2 0x880 JUMP JUMPDEST SWAP2 POP DUP3 DUP3 DIV DUP5 EQ DUP4 ISZERO OR PUSH2 0x10FE JUMPI PUSH2 0x10FD PUSH2 0xEB2 JUMP JUMPDEST JUMPDEST POP SWAP3 SWAP2 POP POP JUMP INVALID LOG2 PUSH5 0x6970667358 0x22 SLT KECCAK256 PUSH28 0xA99FA76E89747FBA4C02D4590D04C8978785698EA1BB7CD0F12CEE43 PUSH9 0xEEFB64736F6C634300 ADDMOD NOT STOP CALLER "
				},
				"gasEstimates": {
					"creation": {
						"codeDepositCost": "882200",
						"executionCost": "914",
						"totalCost": "883114"
					},
					"external": {
						"buyticket(uint256,uint256)": "infinite",
						"createevent(string,uint256,uint256,uint256)": "infinite",
						"devents(uint256)": "infinite",
						"nextid()": "2425",
						"tickets(address,uint256)": "infinite",
						"transferticket(uint256,uint256,address)": "infinite"
					}
				},
				"methodIdentifiers": {
					"buyticket(uint256,uint256)": "d9e20b7c",
					"createevent(string,uint256,uint256,uint256)": "3a0d3ab7",
					"devents(uint256)": "5cf47e12",
					"nextid()": "5c29d40d",
					"tickets(address,uint256)": "dae7a13c",
					"transferticket(uint256,uint256,address)": "7a5a2462"
				}
			},
			"storageLayout": {
				"storage": [
					{
						"astId": 19,
						"contract": "firstproject/eventmanagement.sol:events",
						"label": "devents",
						"offset": 0,
						"slot": "0",
						"type": "t_mapping(t_uint256,t_struct(devent)14_storage)"
					},
					{
						"astId": 25,
						"contract": "firstproject/eventmanagement.sol:events",
						"label": "tickets",
						"offset": 0,
						"slot": "1",
						"type": "t_mapping(t_address,t_mapping(t_uint256,t_uint256))"
					},
					{
						"astId": 27,
						"contract": "firstproject/eventmanagement.sol:events",
						"label": "nextid",
						"offset": 0,
						"slot": "2",
						"type": "t_uint256"
					}
				],
				"types": {
					"t_address": {
						"encoding": "inplace",
						"label": "address",
						"numberOfBytes": "20"
					},
					"t_mapping(t_address,t_mapping(t_uint256,t_uint256))": {
						"encoding": "mapping",
						"key": "t_address",
						"label": "mapping(address => mapping(uint256 => uint256))",
						"numberOfBytes": "32",
						"value": "t_mapping(t_uint256,t_uint256)"
					},
					"t_mapping(t_uint256,t_struct(devent)14_storage)": {
						"encoding": "mapping",
						"key": "t_uint256",
						"label": "mapping(uint256 => struct events.devent)",
						"numberOfBytes": "32",
						"value": "t_struct(devent)14_storage"
					},
					"t_mapping(t_uint256,t_uint256)": {
						"encoding": "mapping",
						"key": "t_uint256",
						"label": "mapping(uint256 => uint256)",
						"numberOfBytes": "32",
						"value": "t_uint256"
					},
					"t_string_storage": {
						"encoding": "bytes",
						"label": "string",
						"numberOfBytes": "32"
					},
					"t_struct(devent)14_storage": {
						"encoding": "inplace",
						"label": "struct events.devent",
						"members": [
							{
								"astId": 3,
								"contract": "firstproject/eventmanagement.sol:events",
								"label": "organiser",
								"offset": 0,
								"slot": "0",
								"type": "t_address"
							},
							{
								"astId": 5,
								"contract": "firstproject/eventmanagement.sol:events",
								"label": "name",
								"offset": 0,
								"slot": "1",
								"type": "t_string_storage"
							},
							{
								"astId": 7,
								"contract": "firstproject/eventmanagement.sol:events",
								"label": "date",
								"offset": 0,
								"slot": "2",
								"type": "t_uint256"
							},
							{
								"astId": 9,
								"contract": "firstproject/eventmanagement.sol:events",
								"label": "price",
								"offset": 0,
								"slot": "3",
								"type": "t_uint256"
							},
							{
								"astId": 11,
								"contract": "firstproject/eventmanagement.sol:events",
								"label": "totalticket",
								"offset": 0,
								"slot": "4",
								"type": "t_uint256"
							},
							{
								"astId": 13,
								"contract": "firstproject/eventmanagement.sol:events",
								"label": "remainingticket",
								"offset": 0,
								"slot": "5",
								"type": "t_uint256"
							}
						],
						"numberOfBytes": "192"
					},
					"t_uint256": {
						"encoding": "inplace",
						"label": "uint256",
						"numberOfBytes": "32"
					}
				}
			},
			"userdoc": {
				"kind": "user",
				"methods": {},
				"version": 1
			}
		}
	}
}